:020000040800F2
:10000000F8380020CD020008D9290008552600083C
:10001000D5290008DD2000080F310008000000008D
:100020000000000000000000000000003502000891
:10003000DD22000800000000790200085D2C0008A5
:10004000E7020008E7020008E7020008E7020008EC
:10005000E7020008E7020008E7020008E7020008DC
:10006000E7020008E7020008E1220008E7020008B2
:10007000E7020008E7020008E7020008E7020008BC
:10008000E7020008E7020008E7020008E7020008AC
:10009000E7020008E7020008E7020008E70200089C
:1000A000E7020008E7020008E7020008E70200088C
:1000B000F12C0008252D0008E7020008E7020008DF
:1000C000E7020008E7020008E7020008E70200086C
:1000D000E7020008552E0008E7020008DD2E0008A0
:1000E000E7020008E7020008E702000800F002F853
:1000F00000F090F80AA090E8000C82448344AAF132
:100100000107DA4501D100F085F8AFF2090EBAE82F
:100110000F0013F0010F18BFFB1A43F0010318473B
:100120007854000098540000103A24BF78C878C171
:10013000FAD8520724BF30C830C144BF04680C60ED
:10014000704700000023002400250026103A28BF35
:1001500078C1FBD8520728BF30C148BF0B60704739
:100160006E2900F00884702900F0CF81662905F01F
:100170007B81652905F07881672905F07581612902
:1001800005F0748103681B0A28BF41F080016929CA
:1001900000F04081642900F03D81752900F03A812A
:1001A0006F2900F00085782900F09B81E92900F093
:1001B0009B84E42900F09884F52900F09584EF29C8
:1001C00000F0FD84F82900F09A810368DB0928BF5C
:1001D00041F08001632900F00A84732900F00F8444
:1001E000E32901F0D380F32901F0D8800020704783
:1001F0001FB501F029F904000020002104F060FF80
:10020000401C60600020002104F044FFE0601FBD3E
:1002100010B510BD01F0EAF81146FFF7E9FF03F051
:1002200089FB01F0C7F903B4FFF7F2FF03BC01F04B
:100230000FFA0000224B19680868B0E8F00F80F34D
:100240000988BFF36F8F4FF0000080F311884EF0E4
:100250000D0E70470000000006480068006880F33B
:10026000088862B661B6BFF34F8FBFF36F8F00DFB0
:1002700000BF00BF08ED00E0EFF30980BFF36F8F10
:100280000F4B1A6820E9F00F106008B54FF0BF005F
:1002900080F31188BFF34F8FBFF36F8F04F0FCFA28
:1002A0004FF0000080F31188BDE808401968086825
:1002B000B0E8F00F80F30988BFF36F8F704700BF7D
:1002C00094000020EFF30580704700000948804744
:1002D00009480047FEE7FEE7FEE7FEE7FEE7FEE728
:1002E000FEE7FEE7FEE7FEE704480549054A064B40
:1002F00070470000912C0008ED000008F832002043
:10030000F8380020F8340020F83400201CB50C46E2
:10031000064B7B4469460090204600F046FB0446AD
:100320000020694600F054FB20461CBDBB060000BF
:100330000FB4044910B503AA029800F065FB10BC85
:100340005DF814FB080000200FB41CB5084B06AA8A
:100350007B4469460090059800F027FB0446002086
:10036000694600F035FB20461CBC5DF814FB00001C
:100370007D06000070B5044685690068C10601D598
:10038000302600E02026C00707D070BDD4E9012147
:1003900030469047206A401C20626D1EF6D570BD25
:1003A00070B5044685690078C00707D170BDD4E9EF
:1003B000012120209047206A401C20626D1EF6D546
:1003C00070BD70B50C460546012A05D02878800618
:1003D00000D5EA69002302E0012305E05B1C93429B
:1003E00002D2E05C0028F9D1A869E618C01AA86119
:1003F000286A184428622846FFF7BCFF04E0D5E9C4
:10040000012114F8010B9047B442F8D32846FFF7B6
:10041000C7FF70BD2DE9F04106460024106875291C
:10042000314616A510D000F03BFA002802DA40420F
:1004300013A507E031688A0701D512A502E0490734
:1004400004D511A5012401E000F033FA00210A22AD
:1004500006F1240709E0B0FBF2FCB0FBF2F302FB6B
:100460001C00303078541846491C0028F3D123462C
:100470002A463046BDE8F04100F024BA00000000F2
:100480002D0000002B00000020000000F0B40D46FD
:100490000188090502D5214C7C4402E01F4C7C44B4
:1004A0000E34002100F1240608E002F00F071209C3
:1004B000E75D42EA03721B097754491C52EA0307BD
:1004C000F3D102780023120704D5702D06D009B1AC
:1004D000022311342246F0BC00F0F4B90123103499
:1004E000F8E770B504460D462146106800F0E1F9C2
:1004F000024629462046BDE870400023C6E7D21DCB
:1005000022F00703D3E90023C0E70368126843F031
:10051000200303600823C3610023B7E7FC4F0000FA
:100520002DE9F05F894604464FF0000ADFF874B108
:10053000FB44C0F820A02046E1688847002874D01A
:10054000252806D0D4E901219047206A401C20626A
:10055000F1E700265F462046E168884720280546E7
:1005600007DB312D05D2781910F8200C08B10643AD
:10057000F1E7B00701D526F00406C4F81CA0002757
:10058000C4F818A02A2D09D0284602F0D6FD38B3A9
:1005900004EB8708303DC8F8185019E059F8041BDF
:1005A000204604EB87029161E1688847012F0546E8
:1005B00018D1E069002820DA26F020061DE0D8F8DE
:1005C000180000EB800005EB40003038C8F8180038
:1005D0002046E1688847054602F0AFFD0028EED1CD
:1005E000012F0AD02E2D08D12046E16888477F1CB4
:1005F0000546022F46F02006C4DBA069002803DA76
:10060000404246F00106A061F00701D026F0100636
:100610006C2D0BD0682D09D04C2D39D06A2D35D0DA
:10062000742D35D07A2D33D016E038E0E1682F46AE
:1006300020468847B842054609D16C2F26D04FF492
:100640008060E168064320468847054604E06C2F39
:100650001AD04FF4807006430DB3A5F1410019285C
:1006600002D8203546F400664A46294620462660D0
:100670004E46FFF775FD80B101280BD0F61D26F020
:10068000070000F1080956E74020E4E78020D8E79A
:100690000020D6E706F104094DE7284652E7206A14
:1006A000BDE8F09F8C4F000030B505460B462A464A
:1006B00013F8014B12F8010B08B1A042F8D01CB19D
:1006C000002802D06D1CF1E7284630BD10B5431C50
:1006D00002E010F8011B71B18107FAD14FF001322D
:1006E00002C88C1A8C4314EAC211F9D0C01A0A0647
:1006F00003D0C01E10BDC01A10BD0A0401D0801E58
:1007000010BD0902FCD0401E10BD032A40F230800B
:1007100010F0030C00F0158011F8013BBCF1020F42
:10072000624498BF11F801CB00F8013B38BF11F8C3
:10073000013BA2F1040298BF00F801CB38BF00F8DA
:10074000013B11F0030300F02580083AC0F0088057
:1007500051F8043B083A51F804CBA0E80810F5E73B
:10076000121D5CBF51F8043B40F8043BAFF300801E
:10077000D20724BF11F8013B11F801CB48BF11F893
:10078000012B24BF00F8013B00F801CB48BF00F863
:10079000012B704710B5203AC0F00B80B1E818501B
:1007A000203AA0E81850B1E81850A0E81850BFF45B
:1007B000F5AF5FEA027C24BFB1E81850A0E81850FA
:1007C00044BF18C918C0BDE810405FEA827C24BF4E
:1007D00051F8043B40F8043B08BF7047D20728BFDC
:1007E00031F8023B48BF11F8012B28BF20F8023B2B
:1007F00048BF00F8012B704702F0FF0343EA0322D1
:1008000042EA024200F002B84FF000020429C0F0B0
:10081000128010F0030C00F01B80CCF1040CBCF132
:10082000020F18BF00F8012BA8BF20F8022BA1EB84
:100830000C0100F00DB85FEAC17C24BF00F8012B69
:1008400000F8012B48BF00F8012B70474FF0000261
:1008500000B5134694469646203922BFA0E80C50B6
:10086000A0E80C50B1F12001BFF4F7AF090728BF91
:10087000A0E80C5048BF0CC05DF804EB890028BF0D
:1008800040F8042B08BF704748BF20F8022B11F036
:10089000804F18BF00F8012B7047704770477047B2
:1008A00009684A0501D540B27047C905FCD500B2B8
:1008B000704709684A0501D5C0B27047C905FCD523
:1008C00080B270472DE9F0470D469946924604469E
:1008D00000F124080168880604D5E06921F01001C0
:1008E000216000E00120A84201DD471B00E0002755
:1008F000A1697A1902EB0900081AA0612078C006E4
:1009000002D42046FFF736FD002608E0D4E9012195
:100910001AF806009047206A401C761C20624E455B
:10092000F4DB2078C0060AD52046FFF723FD06E059
:10093000D4E9012130209047206A401C2062381EF3
:10094000A7F10107F4DC07E0D4E9012118F805005C
:100950009047206A401C2062281EA5F10105F3DCA7
:100960002046FFF71DFD2078000602D50220BDE8D5
:10097000F0870120FBE711680268006A530501D582
:1009800008700AE0D30501D5088006E0130603D5F8
:10099000C217C1E9000200E00860012070470000B2
:1009A00001694A1C02610878704700B58FB0CDE933
:1009B00001310021059105497944CDE90310114623
:1009C0006846FFF7ADFD0FB000BD0000E5FFFFFF7B
:1009D0000A6802F8010B0A60704710B5436913B149
:1009E000AFF3008001E0FFF7ECFC012010BD1278AE
:1009F00000F124010A7000224A700122EDE711681B
:100A00004FF0FF32E9E70000074B70B50D467B441D
:100A1000FFF7CBFF0446284600F0C4FC10B14FF0AE
:100A2000FF3070BD204670BD1B2A00002DE9FF5F1E
:100A300015468A460446DFF8AC80F8440027D8E91A
:100A400000103E46CDE9001010E03AF816106A4654
:100A500002A800F0ABFC411C07D02178890603D521
:100A6000E269391891420DD80744761C2078800637
:100A700002D5E069B84205DDAE42E6DB3AF8160081
:100A80000028E2D1A069C01BA0612046FFF772FCDC
:100A9000D8E90010CDE90010002017E03AF818104E
:100AA0006A4602A800F082FCB0F1FF3F81460BD0FD
:100AB00000250DF1080B05E0D4E901211BF8050024
:100AC00090476D1C4D45F7D308F10100B0428046B8
:100AD000E4DB206A384420622046FFF761FCBDE871
:100AE000FF9F0000964A00002DE9F0418046D21D8C
:100AF00022F007020025D2E90002F52915A614D03C
:100B0000011E72F1000106DA0023D0EB030063EB53
:100B1000020211A608E0D8F800108B0701D50FA635
:100B200002E0490701D50EA601251146002408F16F
:100B3000240704E000F04EF830323A55641C50EAC5
:100B40000102F7D12B46324621464046BDE8F0412E
:100B5000FFF7B8BE000000002D0000002B000000D1
:100B60002000000030B4002100F1240408E002F06D
:100B70000705D208303542EA4372DB086554491C48
:100B800052EA0305F3D10468002310A2250707D514
:100B9000A40600D421B1C46901230DA2641EC4615E
:100BA00030BCFFF78FBE10B5044621461068FFF732
:100BB00080FE02462046BDE810400023D2E7D21D49
:100BC00022F00701D1E90023CCE70000000000007B
:100BD0003000000030B5B0F10A024FEA900E71F11A
:100BE00000034EEA817EB0EB0E0061EB91014FEA0B
:100BF000101E4EEA017E10EB0E0041EB11114FEA80
:100C0000102E4EEA016E10EB0E0041EB11214FEA5F
:100C1000104E4EEA014E10EB0E0041EB1141401810
:100C200041F100014FEAD00040EA41704FEAD101A2
:100C300010EB80054FEA810444EA907444EB010410
:100C40006D1944EB0404521BA3414FF0000348BF4D
:100C50000A3200D530BD401C41F1000130BD704763
:100C60002DE9FF4F0C461E464FF0FF378BB0D2E9FF
:100C70000001DDF860800A908A46C1F30A5505B983
:100C80003D46002108464FF00000BAF1000F00F485
:100C9000400005DA00EB80004FF4400101EA50000B
:100CA0004FEA9059B9F1010F00DDB9460A9850EAB0
:100CB0004A000ED044F61050A5F2FF3545432F14DC
:100CC000B8F1000F1ED07542291E1EDDC9F10002C9
:100CD0001CE0B8F1010F4FF0000001D0302103E01B
:100CE000F24305E02154401CB042FBDB30460022B9
:100CF000002121540B99C1F80880C1E900200FB0F0
:100D0000BDE8F08FBD1B6D1CDEE74A4600DA694284
:100D100006A800F0DDFB06AB93E8070003AB83E811
:100D2000070050460A9900F09AFC8DE80700A0F5EC
:100D300000501F3800900398002D0ADD42F21F0179
:100D40004A460844002303A90390684600F003FFC5
:100D500009E0A0F500504A461F38002303A903907C
:100D6000684600F00DFF8DE807000004000C03D07A
:100D70004FF0FF30410800E01046B8F1000F03D0FB
:100D80000022009215461EE0751E05D4FFF722FFD3
:100D9000303262556D1EF9D5B3460122084302D0A8
:100DA00000227F1C04E02078302801D100227F1E21
:100DB000002A099784D01DE0112D07DAFFF70AFFFA
:100DC000303262556D1C50EA0102F5D1084302D061
:100DD0000098C8B10EE00021681E05E0235C625C4B
:100DE00063542254401E491C8142F7DBAB46A81BCA
:100DF000401E0990002004F80B000B98099AC0F8D7
:100E00000880C0E9002B7AE711264FF0000857E769
:100E10002DE9F04F88460446D21D22F0070191B01B
:100E2000D1E90001CDE90A0102F073F902460B98FD
:100E3000C00F01D02D2007E02068810701D52B20AD
:100E400002E0202101EAC000032A099001D0072A0C
:100E500005DB03464146204600F0FAFA0BE1207814
:100E6000800601D5E06900E00620B8F1650F8146F3
:100E700006D0B8F1660F18D0B8F1670F70D131E025
:100E80000020B9F1110F009001DB112301E009F1FD
:100E900001030AAA01A90CA8FFF7E2FEDDE90C7024
:100EA000002609F10105834647E001204B460090EA
:100EB0004FF000470AAA01A90CA8FFF7D1FEDDE90F
:100EC0000DB00C995D46002610B909F101000D180E
:100ED000B9EB050003D4C0F1FF3609F10105A5EB1C
:100EE00009002BE0B9F1010F01DA4FF001090020F0
:100EF000B9F1110F0090484601DD112300E00346CF
:100F00000AAA01A90CA8FFF7ABFEDDE90C704D465B
:100F100000268346207800070AD4AB4500DA5D46F8
:100F200001A8012D04DD411911F8011C302907D059
:100F30004F4502DA17F1040F04DA012082460FE070
:100F40006D1EEEE7002F02DCED1B3E4403E0781C33
:100F5000A84200DD7D1CB81B00F1010A4FF00047DC
:100F60002078000703D4AA4501DB4FF0FF3A0021A7
:100F7000B7F1004F0DF143088DF8431024D0022043
:100F80002B23002F01DA7F422D230A21021EA0F11C
:100F9000010000DC5FB197FBF1FC97FBF1F201FB74
:100FA0001C7C17460CF1300C08F801CDEEE7A8F1D7
:100FB000010003702188090501D5452100E0652164
:100FC000A0F1010800F8011C09980FA9A1EB08077E
:100FD000FF1D00B10120411901EBEA70A1693844FD
:100FE000081A401EA0612078C00602D42046FFF7F0
:100FF000C1F9099828B1D4E901219047206A401C21
:1010000020622078C00622D52046FFF7B3F91EE003
:10101000002E04DBB34502DD01A8805D00E0302036
:10102000D4E901219047206A401C2062761CAAF175
:1010300001005FEA000A0AD100F006FAC068016800
:10104000405CD4E901219047206A401C2062281EA0
:10105000A5F10105DCDC07E0D4E9012118F8010B5A
:101060009047206A401C2062381EA7F10107F3DC7C
:101070002046FFF795F9032011B041E62DE9F04F26
:1010800004460D46D21D22F0070089B0D0E9009732
:101090004846394602F03DF80246F80F01D02D23AC
:1010A00007E02068810701D52B2302E0202101EA17
:1010B000C0038DF820300BB1012000E00020032A8E
:1010C000824601D0072A04DB2946204600F0C0F9F9
:1010D0003FE12078800601D40D2500E0E569C7F3E3
:1010E0000A560D2D49DA00214FEA175B08464FF0EA
:1010F0000000002F00F4400007DA00EB80004FF4FE
:10110000400100EBD07001EA60008115012901DD8A
:101110004FF0FF3100224FEA850CBCF1180F06D3C7
:101120001346ACF118004FF08052C24003E04FF478
:10113000801323FA0CF30CF10C0CBCF1200F04D338
:10114000ACF1200C09FA0CF001E007FA0CF00029D0
:101150004FF0004801DD18B90FE00ED140450CD327
:1011600019EB02095F4121B9404502D19F4329EAA9
:101170000209BBEB175F00D0761C2088000502D562
:101180007B48784402E07A487844193808AA30232A
:1011900002F80A30037C0AF10101002E0AF1020A6A
:1011A00053546A4602DC4FF0300101E04FF0310148
:1011B0004FF001088DF8001002D0A6F2FF3603E0D0
:1011C00059EA470100D06B4E002D02DC2178090757
:1011D00004D54FF002082E218DF80110C4460021DD
:1011E0000BE0C7F303433F01C35C491C6D1E02F8CB
:1011F0000830052908F1010801DA002DF1DC002191
:101200000CE000EB1973491C1B786D1E082902F8CD
:1012100008304FEA091908F1010801DA002DF0DC65
:1012200021688B0602D516E0A8F10108E04505DD2E
:1012300002EB080313F8013C302BF5D0B8F1000F96
:1012400009DD02EB080313F8013C2E2B03D109073B
:1012500001D4A8F10108002D05DD3E2102F8081097
:101260006D1E08F10108407C002E02F8080008F10C
:10127000010804DA2D20764202F8080002E02B2053
:1012800002F808000A214FF47A70864208F101083A
:101290000BDB96FBF0F3303302F8083096FBF0F3EB
:1012A00008F1010800FB136601E0642E0CDB6420EA
:1012B00096FBF0F3303302F8083096FBF0F308F1B8
:1012C000010800FB136601E00A2E06DB96FBF1F035
:1012D000303002F8080008F1010896FBF1F001FB3C
:1012E0001060303002F80800A16908F1010808EB2D
:1012F000050202EB0A00081AA0612078C00602D499
:101300002046FFF737F8216A08AE01EB0A00206299
:1013100004E0D4E9012116F8010B9047BAF1010A63
:10132000F7D22078C00602D52046FFF723F86E4694
:1013300009E016F8010B3E280FD0D4E901219047AF
:10134000206A401C2062B8F10108F2D22046FFF763
:1013500027F809B00320BDE8F08F206A28442062F6
:1013600003E0D4E90121302090476D1EEBD3F8E76C
:101370006943000002FCFFFF10B5436913B1AFF3EE
:10138000008001E0FFF752FB012010BD128800F140
:10139000240182840022C2840122EDE711684FF00B
:1013A000FF32E9E7007B00F08000704770B5164619
:1013B0000C46054600F040F8036893F80101012847
:1013C00006D0FF2C0FD8185D68B101202C7070BDBD
:1013D000D3F807013246214603F207130344284697
:1013E000BDE8704018474FF0FF3070BD754600F003
:1013F000EBF8AE4605006946534620F007008546E7
:1014000018B020B5FEF770FFBDE820404FF0000691
:101410004FF000074FF000084FF0000B21F00701DC
:10142000AC46ACE8C009ACE8C009ACE8C009ACE81F
:10143000C0098D467047000010B500F005F8001D8A
:1014400010BD00BF7D3C000000487047B83200204E
:101450002DE9F0411F46044603260168072A01F4DE
:10146000006004DB08B116A505E016A503E008B18D
:1014700015A500E015A521F010002060A069C01E90
:10148000A0610FB1401EA0612046FEF773FF4FB16F
:10149000D4E9012138469047206A401C2062C01CD4
:1014A000206206E0206AFAE7D4E9012115F8010B71
:1014B0009047761EF8D22046FEF772FFBDE8F08115
:1014C0004E414E006E616E00494E4600696E6600E8
:1014D0002DE9F047814616468AB0354878440DC854
:1014E0008DE80D0032487844801C03AC0DC884E8B8
:1014F0000D0041F69B300844372190FBF1F290FB40
:10150000F1F5A5F1800501FB12041B3C02D56442F4
:10151000012000E00020DFF898A080460027FA4470
:10152000AAF1BE0A0EE0E0070AD03246684607EB91
:10153000470101230AEB810100F022FB8DE807003F
:1015400064107F1C002CEED1194F7F44AE3F19E090
:10155000E80715D007EB04100DF1180A90E80E000B
:101560008AE80E00C068F04201D19819089032460E
:10157000012306A903A800F003FB03AB83E80700DF
:101580006D10641C002DE3D14FF001033246694613
:10159000B8F1000F03A802D000F0DDFA01E000F07E
:1015A000EFFAC9E90001C9F808200AB0BDE8F087E0
:1015B000A040000010B50446AFF300802046BDE80F
:1015C0001040FEF730BE00000048704798320020FF
:1015D0004FF0013C50F8042B51F8043B9A4221D1C2
:1015E000A2EB0C03934313EACC1317D150F8042B4E
:1015F00051F8043B9A4215D1A2EB0C03934313EA32
:10160000CC130BD150F8042B51F8043B9A4209D16A
:10161000A2EB0C03934313EACC13DBD04FF0000092
:10162000704700BFD01A01BAB1FA81F101F0180178
:1016300022FA01F0CB40C1F12001DBB2C0B2C01AE6
:101640002CFA01F3D11A914311EAC311E6D1704784
:1016500001491820ABBEFEE72600020070475FEA92
:10166000400C08BF91F0000F4FEA8C234FEAC122D3
:1016700043EA51514FEA1C5018BF00F5F0404FEAC1
:10168000300018BF41F000415FEA6C5C00F0298037
:10169000BCF1FF3F08BF40F080407047130C06BF0D
:1016A00012044FF0100C4FF0000C130E04BF120286
:1016B0000CF1080C130F04BF12010CF1040C930F72
:1016C00004BF92000CF1020CD30F04BF52000CF1C6
:1016D000010C11464FF00002A0F11F00A0EB0C001E
:1016E000704711F0004F08BF704731F000413FF4E0
:1016F000D5AF0B0C06BF09044FF0100C4FF0000CD7
:101700000B0E04BF09020CF1080C0B0F04BF0901FA
:101710000CF1040C8B0F04BF89000CF1020CCB0FF1
:1017200004BF49000CF1010CCCF12003A0EB0C002C
:1017300022FA03F302FA0CF241EA030100F101007C
:10174000704720F07F4C80EA030023F07F47ACEB2A
:10175000070303F57C5300F0004003F1FF032DE97C
:1017600080494FEA154B09B44FEA144325EA0B4E62
:1017700024EA03480FF2042606EB132749083E78B3
:101780005FEA320203FB0667C7F5000707FB06F6B0
:101790004FEA54374FEAD64606F1020607FB066CBD
:1017A000CCF1005C4FEA1C472CEA074C07FB06F41F
:1017B0000CFB06F504EB15464FEA961634BF0020E5
:1017C0004FF000404FEAD13706FB07FC4FEA1C4CB4
:1017D0000CFB0BF7D21B03FB0CF761EB07010CFBB7
:1017E0000EF7B0EB074072EB17420CFB08F734BF63
:1017F000A2EB0742B2EB074261EB17414FEA0C4400
:101800004FEA910706FB07FC4FEA1C4C0CFB0BF759
:10181000B0EBC74072EB573203FB0CF734BFA2EBBF
:10182000C742B2EBC74261EB57310CFB0EF7B0EB8E
:10183000C70072EB57720CFB08F734BFA2EBC7026C
:10184000B2EBC70261EB5771039F4FEA816141EA36
:10185000921104EBCC044FEAD1374FEA826206FBC7
:1018600007FC42EA90124FEA80604FEA1C4C0CFBE6
:101870000BF7D21B03FB0CF761EB07010CFB0EF718
:10188000B0EB074072EB17420CFB08F734BFA2EB3A
:101890000742B2EB074261EB17414FEA8C554FEA22
:1018A000910704EB9C2406FB07FC4FEA1C4C0CFB45
:1018B0000BF7B0EBC74072EB573203FB0CF734BFAA
:1018C000A2EBC742B2EBC74261EB57310CFB0EF7FC
:1018D000B0EBC70072EB57720CFB08F734BFA2EBFA
:1018E000C702B2EBC70261EB577115EB4C254FEA0B
:1018F000816141EA92114FEA82624FEAD13742EAAE
:10190000901206FB07FC44F100044FEA80604FEAA6
:101910001C4C0CFB0BF7D21B03FB0CF761EB070114
:101920000CFB0EF7B0EB074072EB17420CFB08F70D
:1019300034BFA2EB0742B2EB074261EB174115EB54
:101940001C154FEA813141EA92414FEA823242EA64
:1019500090424FEA80304FEA0C7644F1000448EAA6
:1019600003434EEA0B484FF0000EB2EB080C71EB4C
:10197000030724BF624639464EEB0E0E4FF0000BB4
:101980000018524149414BEB0B0BB2EB080C71EBC9
:1019900003077BF1000B24BF624639464EEB0E0E67
:1019A0004FF0000B0018524149414BEB0B0BB2EBCF
:1019B000080C71EB03077BF1000B24BF624639462C
:1019C0004EEB0E0E51EA020718BF46F0010616EB69
:1019D0000E7655F1000254F1000103D5BDE88901EE
:1019E000BDE80088BDE88901BDE80048B61952414C
:1019F00041EB0101A3F10103704780807F7E7D7C74
:101A00007B7A7978777676757473727171706F6E90
:101A10006E6D6C6C6B6A6A6968686766666564643B
:101A2000636362616160605F5F5E5E5D5D5C5C5BC5
:101A30005B5A5A5959585857575656555555545434
:101A4000535352525251515050504F4F4F4E4E4D92
:101A50004D4D4C4C4C4B4B4B4A4A4A4949494848DE
:101A6000484747474746464645454544444444431E
:101A700043434342424242414141002B9C4630D4C1
:101A800077002BD01CB54FEA370703B44FF0100096
:101A90004FF01001BAF1000F06D0BCF1000FDCBF0F
:101AA00040F0080040F008014FF000000FBCBDE816
:101AB00010400BF1010BBBF1010F08BF5FEA1707E4
:101AC00022BF12F1010211F101014FF0004143F177
:101AD000000300F0004043EA00007047F9D35708C4
:101AE000D0E746EA064613F1400F4FEA16461FDDDF
:101AF00013F1200FDFBF16430A46002120335B425B
:101B0000BED0C3F1200746EA064602FA07F74FEABD
:101B1000164646EA0706C3F1200722FA03F201FA45
:101B200007F721FA03F14FF0000342EA0702A7E7A3
:101B300046EA020646EA06464FEA164646EA010625
:101B4000BCBF46EA0646360C4FF000034FF00002D9
:101B50004FF0000194E72DE9804C9A46934670B40B
:101B600091E8380007C831EA400C48BF34EA430C1A
:101B700003D5FFF7E6FDFFF780FFF0BCBDE8008C62
:101B80002DE9804C9A46934670B491E8380007C816
:101B900010F0804F08BF13F0804F03D100F005F81C
:101BA000FFF76BFFF0BCBDE8008C20F07F4780EAB8
:101BB000030023F07F4C07EB0C03A3F57C5300F0EC
:101BC0000040A3F1FE0392F0000F00F0B38095F007
:101BD000000F00F077802DE901494FEA11404FEAEC
:101BE000144621EA004800FB06FC24EA064708FBED
:101BF00006F607FB08F800FB07F718EB06484CEB66
:101C0000164C4FEA124B18EB07484FEA15464CEBBF
:101C1000174022EA0B4E0BFB06FC25EA06470EFB9B
:101C200006F607FB0EFE0BFB07F71EEB064E4CEB12
:101C3000164C4FF000061EEB074E4CEB174B18EB03
:101C40000B0840F1000018EB0E0B58EB000840F1B8
:101C500000008F1A4FF000013CBFC943661B14BF40
:101C6000B5EB040C00213CBFC943F61B4FEA1744F7
:101C70004EEA8E0E27EA04454FEA1C4704FB076232
:101C80002CEA074C05FB07F70CFB05F604FB0CFCE4
:101C900016EB074642EB174216EB0C4642EB1C4292
:101CA0001BEB060658EB0202414146EA9E0601D5AF
:101CB000BDE80189B619524141EB0101A3F10103CD
:101CC000BDE801894FEA14454FEA114724EA054669
:101CD00021EA074C05FB07F406FB07F70CFB06F1AE
:101CE00005FB0CFC11EB074144EB17444FEA12478C
:101CF00011EB0C4144EB1C4422EA074C05FB07F2B4
:101D000006FB07F70CFB06F605FB0CFC16EB07467B
:101D100042EB174216EB0C4642EB1C456A1854F195
:101D2000000148BF7047B619524141EB0101A3F1D0
:101D30000103704795F0000F37D04FEA11424FEA88
:101D4000144721EA024624EA074C02FB07F106FB8E
:101D500007F70CFB06F402FB0CFC14EB074441EB09
:101D600017414FEA154714EB0C4441EB1C4125EA9F
:101D7000074C02FB07F506FB07F70CFB06F602FB18
:101D80000CFC16EB074645EB174516EB0C4645EBEE
:101D90001C42121951F1000148BF7047B619524157
:101DA00041EB0101A3F1010370474FEA14454FEAEB
:101DB000114724EA054621EA074C05FB07F106FB1B
:101DC00007F70CFB06F24FF0000605FB0CFC12EBCC
:101DD000074241EB174112EB0C4251EB1C4148BF4B
:101DE0007047921841EB0101A3F10103704721B143
:101DF000826842F00102826003E0826822F0010200
:101E0000826070470146C86C80B27047024600206D
:101E100013680B400BB1012000E00020704710B5A3
:101E20000023CBB21AB144681C43446002E044680A
:101E30009C43446010BD000030B5024600200023E2
:101E400050680F4C20400D790C6844EA052420436B
:101E5000506090680B4C2040D1E902542C434D79DE
:101E600044EA450420439060D06A20F470000C7C62
:101E7000641EE4B2234340EA0350D06230BD000048
:101E8000FFFEF0FFFDF7F1FF00B587B001214FF431
:101E9000017000F0F5FD00208DF81B000120ADF869
:101EA000180006A9114800F0DBFA00208DF809009F
:101EB0000490019001208DF8140000208DF8080096
:101EC00001A90B48FFF7B8FF0723012200210848AA
:101ED00000F010F801224FF408710548FFF79FFF4A
:101EE00001210348FFF783FF07B000BD0008014050
:101EF00000240140F0B504460D4600200021092DC4
:101F000011DDE068A5F10A0606EB4607072606FA8A
:101F100007F18843A5F10A0606EB460603FA06F127
:101F20000843E0600CE0206905EB4507072606FA48
:101F300007F1884305EB450603FA06F108432061E3
:101F4000072A0FDA606B561E06EB86071F2606FA75
:101F500007F18843561E06EB860605FA06F108438C
:101F6000606322E00D2A0FDA206BD61F06EB86078E
:101F70001F2606FA07F18843D61F06EB860605FAE8
:101F800006F10843206310E0E06AA2F10D0606EBBB
:101F900086071F2606FA07F18843A2F10D0606EB15
:101FA000860605FA06F10843E062F0BD21B18268B9
:101FB00042F4A002826003E0826822F4A002826000
:101FC0007047000070B50024002500BF11E001211A
:101FD0000B48FFF7EBFF00BF02210948FFF716FF90
:101FE0000128F9D10648FFF70DFF204484B2681C90
:101FF000C5B2322DEBDB322094FBF0F080B270BD25
:102000000024014010B504462CB900200E49887107
:102010000E49C8700FE0012C03D108200A4948710D
:1020200004E0022C02D10C20074948710120064926
:1020300088710649C87006480470034800F0A6F984
:10204000024800F0CBFC10BD20000020280000203A
:102050007900002010B5044601F0E0FA462001F0B6
:10206000AFFA01F007FB012800D110BD204601F0B6
:10207000A7FA01F0FFFA012801D10220F5E701F0EB
:10208000E7FA0020F1E710B500F0E6FA00F004F8F6
:102090001020FFF7DFFF10BD10B50120FFF7DAFFBA
:1020A00010BD10B5002401F0B9FA472001F088FAFC
:1020B00001F0E0FA012801D1002010BD01F05CFA26
:1020C000044601F025FA01F057FA00EB042084B22F
:1020D00001F03AFA01F0BCFA2046EEE700BFFEE755
:1020E00010B5002400F09CFA04E0601CC4B201208A
:1020F00000F0E2F802210F4800F086FA08B9642CDB
:10210000F3DB642C01DB002010BD002404E0601C24
:10211000C4B2012000F0D0F80221064800F074FAA1
:1021200008B1642CF3DB642C01DB0020ECE7012018
:10213000EAE70000000C014010B50121082000F082
:102140009FFC0220064908801020C870012088707A
:10215000044800F085F900F06FF8FFF7C1FF10BDEB
:1021600008010020000C014010B5002404E0601CB0
:10217000C4B2012000F0A0F80221104800F044FA97
:1021800008B1642CF3DB002404E0601CC4B201201D
:1021900000F092F80221094800F036FA08B9642CE0
:1021A000F3DB1E2000F088F80221044800F02CFA2E
:1021B00008B1012010BD0020FCE70000000C014028
:1021C00070B50024002506E06006040EFFF7CCFF82
:1021D0000443681CC5B2082DF6DB204670BD7CB5F3
:1021E00005460E4600F028F8FFF77AFF01281FD1B8
:1021F000002405E0FFF7E4FF0DF80400601CC4B202
:10220000052CF7DB9DF800009DF8011008449DF8AF
:10221000021008449DF8031008449DF804108842F9
:1022200008D19DF8000030709DF80200287001E090
:1022300000207CBD0120FCE710B500F0FDF9022173
:10224000094800F0EAF944F6206000F035F8022170
:10225000054800F0FDF91E2000F02EF8022102488A
:1022600000F0DBF910BD0000000C014010480068D0
:1022700020F080700E4908600846006840F08070C9
:1022800008600C48006820F001000A490860084610
:10229000006840F0010008600020486000BF00BFF7
:1022A00000BF0448406808B1002070470120FCE7E7
:1022B000FCED00E0001000E001B507494868009916
:1022C00001EBC101C900009100BF03494968091A27
:1022D000009A9142F9D308BD001000E07047000059
:1022E00010B5102000F03EF870B3184800780128AF
:1022F0000AD117480078012802D10020154908802A
:1023000002201249087018E010480078022814D101
:102310000F480078012806D10E48008840F400409C
:102320000C49088006E00A480078022802D1012002
:102330000749087001200549087004480078FFF734
:1023400061FE102000F008F810BD000079000020A8
:102350006C0000200E00002001490860704700005A
:1023600014040140014600200022074B1B6803EAC9
:102370000102054B14331B680B4013B10AB1012055
:1023800000E00020704700000004014000212349C4
:102390008279002A3AD00A46126803689A430B46AB
:1023A0001A600A1D126803689A430B1D1A600279AD
:1023B00011440A6803681A430A60184A083212680E
:1023C00003689A43154B08331A601A1D1268036894
:1023D0009A43124B0C331A604279102A0ED11A1FFD
:1023E000126803681A430D4B08331A601A1D1268ED
:1023F00003681A43094B0C331A600DE00749427910
:1024000011440A6803681A430A6005E0027911441E
:102410000A6803689A430A6070470000000401409C
:1024200030B500228B071C0F0F2303FA04F20B4B6D
:102430008C1053F824309343084C8D1044F8253009
:1024400023468C1053F824308C07240F00FA04F430
:102450002343024C8D1044F8253030BD0800014064
:102460002DE9F0410246002500260020002300242B
:10247000002791F803C00CF00F0591F803C00CF091
:10248000100CBCF1000F03D091F802C04CEA050516
:1024900091F800C0BCF1000F31D0146800202BE08F
:1024A0004FF0010C0CFA00F3B1F800C00CEA03067F
:1024B0009E4220D183004FF00F0C0CFA03F7BC436F
:1024C00005FA03FC4CEA040491F803C0BCF1280FA0
:1024D00006D14FF0010C0CFA00FCC2F814C00AE05F
:1024E00091F803C0BCF1480F05D14FF0010C0CFA74
:1024F00000FCC2F810C0401C0828D1D31460B1F809
:1025000000C0BCF1FF0F34DD546800202EE000F164
:10251000080C4FF0010808FA0CF3B1F800C00CEAFF
:1025200003069E4221D183004FF00F0C0CFA03F7F3
:10253000BC4305FA03FC4CEA040491F803C0BCF167
:10254000280F05D100F1080C08FA0CF8C2F8148025
:1025500091F803C0BCF1480F07D100F1080C4FF00F
:10256000010808FA0CF8C2F81080401C0828CED3E5
:102570005460BDE8F0810000F0B50A460023002455
:102580000021002500F00046B6F1004F02D11D4E9B
:10259000F16901E01B4E7168C0F3034583B200F49A
:1025A0004016B6F5401F08D121F07061154E7668CF
:1025B00026F07066134F7E6012E000F48016B6F5C8
:1025C000801F06D1032606FA05F4A14341F070618D
:1025D00006E0460D360103FA06F6B14341F070619C
:1025E00022B1460D360103FA06F6314300F00046EB
:1025F000B6F1004F02D1034EF16101E0014E71606E
:10260000F0BD0000000001400246002093680B402E
:102610000BB1012000E000207047416170470000CD
:1026200010B504200249C8700248FFF719FF10BD19
:1026300008010020000C014010B510200249C870AC
:102640000248FFF70DFF10BD08010020000C0140FB
:102650000161704700BFFEE708B50121082000F0C6
:102660000FFAC020ADF8000003208DF802001420FE
:102670008DF8030069460348FFF7F2FE00F0E8FF1B
:1026800008BD0000000C01402DE9F041FFF709FDF5
:10269000074602F009FE0646064902F027FD0546F8
:1026A0004FF07E5102F014FE0446204602F0E0FD99
:1026B000BDE8F081CDCC8C3FF0B587B00646002454
:1026C0000220334908703348C07968B9324632A1D4
:1026D0003248FDF739FE314931A001F0A7FE2F49FC
:1026E00031A0FDF725FE50E02A48C07901284CD1E1
:1026F0003048008885B2304807782A0A2046611C95
:102700008CB22E490A542046611C8CB22B490D54C0
:1027100008460755002406E02948015DE01C274AC9
:102720001154601C84B2052CF6D300240DE000BFC8
:102730004021244800F01AFC0028F9D01F48015D10
:10274000204800F0E0FC601C84B2082CEFD31B484A
:10275000C0791A498979194A5279184B1B79CDE900
:102760000232CDE904101548C07814498978CDE9C2
:10277000001012484378027813A11948FDF7E4FDD0
:102780000F480079401C0E49087107B0F0BD0000E9
:102790006C0000201400002025730000A00700201A
:1027A00025730D0A0000000053656E64A3BA2573FB
:1027B0000D0A00007400002078000020820700202D
:1027C0006D000020004800402578202578202578DD
:1027D0002025782025782025782025782025780048
:1027E0006808002030B585B0002500220721434845
:1027F00001F084FD0021414801F060FD00BF404828
:1028000000680028FBD101203D49AC3108603D48FB
:10281000FFF752FD00203C4908703C480088040A3C
:102820003A4805782B46224639A16846FDF78CFDCB
:1028300032223CA1684601F033F8344803798278AB
:1028400039A16846FDF780FD322236A1684601F0C5
:1028500027F82E48C27838A16846FDF775FD322268
:1028600030A1684601F01CF82848827936A16846F4
:10287000FDF76AFD32222BA1684601F011F82348CA
:10288000C27935A16846FDF75FFD322225A1684671
:1028900001F006F81D48427932A16846FDF754FD63
:1028A000322220A1684600F0FBFF1848437A027AE2
:1028B00030A16846FDF748FD32221AA1684600F0B3
:1028C000EFFF00202F49C1F8BC012F48FFF7F4FCAF
:1028D00000BF0B4800680028FBD12C49088001206C
:1028E000094908700948427A017A044801F006FD56
:1028F0000120FFF787FB05B030BD00002C00002051
:102900001001214240420F006C0000201400002002
:1029100041542B414444523D253032782C253032ED
:10292000780000004F4B000041542B574C5241544B
:10293000453D25642C25640041542B54504F574588
:10294000523D25640000000041542B43574D4F4435
:10295000453D25640000000041542B544D4F444533
:102960003D25640041542B574C54494D453D256449
:102970000000000041542B554152543D25642C2544
:102980006400000000002142801A06000E000020B2
:1029900086B040F20B30059015E001F0F3FDFFF733
:1029A00011FB044601F000FE224607A16846FDF730
:1029B000CBFC6846FFF780FE00BF0548059902F092
:1029C00011F900BF00BFE8E7226D31223A2564000B
:1029D0009000002000BFFEE77047000070B50021A6
:1029E00000230F22C47804B3154C246804F4E06477
:1029F000C4F5E064210AC1F10403CA40447804FA32
:102A000003F184781440214309010E4C0678A15546
:102A1000047804F01F050124AC4005786D11AD0069
:102A200005F1E025C5F8004109E0047804F01F0530
:102A30000124AC40044D0678761145F8264070BD5F
:102A40000CED00E000E400E080E100E00249014319
:102A5000024A1160704700000000FA050CED00E02A
:102A600029B1064AD2690243044BDA6104E0034A01
:102A7000D2698243014BDA617047000000100240C6
:102A800029B1064A92690243044B9A6104E0034A61
:102A900092698243014B9A61704700000010024026
:102AA00030B500210022002400232D4D6D6805F073
:102AB0000C0121B1042905D0082923D105E0294DB5
:102AC000056022E0274D05601FE0254D6D6805F487
:102AD0007012234D6D6805F48034022505EB924297
:102AE0001CB9214D554305600BE01D4D6D6805F483
:102AF00000351DB11C4D5543056002E0194D55438D
:102B0000056002E0174D056000BF00BF144D6D6801
:102B100005F0F0010909154D6B5C0568DD40456065
:102B20000F4D6D6805F4E061090A104D6B5C456856
:102B3000DD4085600A4D6D6805F46051C90A0B4D92
:102B40006B5C4568DD40C560054D6D6805F440412E
:102B5000890B074D6B5CC568B5FBF3F5056130BDAE
:102B60000010024000127A0000093D000C01002014
:102B70001C01002010B500F001F810BD0CB50020BC
:102B8000019000903348006840F48030314908607B
:102B900000BF3048006800F4003000900198401CED
:102BA0000190009818B90198B0F5A06FF1D12948AB
:102BB000006800F4003010B10120009001E0002016
:102BC00000900098012843D12348006840F010008D
:102BD000214908600846006820F0070008600846A0
:102BE000006840F0020008601A48406819494860CF
:102BF0000846406848600846406840F48060486085
:102C00000846406820F47C1048600846406840F45C
:102C1000E81048600846006840F08070086000BF17
:102C20000C48006800F000700028F9D0094840689E
:102C300020F00300074948600846406840F0020061
:102C4000486000BF0348406800F00C000828F9D134
:102C50000CBD0000001002400020024010B500BF73
:102C6000BF2080F31188BFF34F8FBFF36F8F00BF7A
:102C700001F0F8FF18B14FF080500449086000BF20
:102C8000002080F3118800BF10BD000004ED00E0BB
:102C900010B51348006840F001001149086008466B
:102CA0004068104908400E494860084600680E49CF
:102CB00008400B4908600846006820F4802008603E
:102CC0000846406820F4FE0048604FF41F0088600A
:102CD000FFF750FF4FF000600449086010BD00008E
:102CE000001002400000FFF8FFFFF6FE08ED00E0D4
:102CF00010B50121880700F03EF880B1084800882F
:102D0000401C80B2064908804FF6FE71884202D10D
:102D10000020034908800121880700F01DF810BD3C
:102D20007A00002010B50121094800F024F868B1AC
:102D30000121074800F010F80648008840F40040E0
:102D4000044908800021024800F009F810BD000085
:102D5000000400400E000020CA430282704721B1E7
:102D6000028842F00102028004E002884FF6FE73FE
:102D70001A400280704730B502460020002300242C
:102D8000158A05EA0103958905EA010413B10CB11E
:102D9000012000E0002030BD1AB183890B438381FC
:102DA00002E083898B4383817047818470470000F0
:102DB000002202881D4B98420ED01D4B98420BD02A
:102DC000B0F1804F08D01B4B984205D01A4B984267
:102DD00002D01A4B984204D14FF68F731A404B8899
:102DE0001A43174B984207D0164B984204D04FF61F
:102DF000FF431A40CB881A4302808B8883850B8857
:102E000003850A4B98420BD0094B984208D00E4BD1
:102E1000984205D00D4B984202D00D4B984201D1FB
:102E20000B7A03860123838270470000002C014047
:102E3000003401400004004000080040000C004045
:102E400000100040001400400040014000440140D8
:102E50000048014010B540F225511D4800F093F89C
:102E600010B31B4800F04AF9C4B21A48008800F4B5
:102E70000040C8B91748008800F4804060B10A2CAF
:102E800003D000201349088020E01248008840F455
:102E900000401049088019E00D2C06D10D4800882B
:102EA00040F480400B49088010E00A480088C0F3D5
:102EB0000D0009490C5407480088401C054908804A
:102EC00008460088092801DD0020088010BD0000A8
:102ED000003801400C0000207807002010B540F2B7
:102EE0002551174800F04FF810B3154800F006F9C7
:102EF000C4B21448008800F40040C8B911480088E2
:102F0000B0F5806F15DA1048007850B900210F48ED
:102F1000FFF74BFF0B48008818B901210B48FFF75A
:102F20001EFF08490888411C064A118008490C54B4
:102F300005E00448008840F400400249088010BDC4
:102F4000004800400E0000206C00002000040040FB
:102F50002001002021B1828942F40052828104E0E4
:102F600082894DF6FF731A40828170470246002025
:102F7000B1F5007F00D100BF13880B400BB10120D9
:102F800000E00020704770B50246002400230025B1
:102F9000002040F66A16B14200D100BFC1F34215CD
:102FA00001F01F03012606FA03F3012D02D19689D1
:102FB000334006E0022D02D1168A334001E0968AA2
:102FC00033400C12012606FA04F41688344013B17B
:102FD0000CB1012000E0002070BDF0B503460024D4
:102FE00000260025002040F66A17B94200D100BF34
:102FF0001846C1F3421401F01F06012707FA06F52F
:10300000012C01D10C3004E0022C01D1103000E081
:1030100014301AB107682F43076002E00768AF4316
:103020000760F0BD2DE9F04786B005460E46002446
:10303000A24600BFA1460027B08900B100BF2F46BD
:103040002C8A4CF6FF700440F08804432C82AC8933
:103050004EF6F3100440B088318908437189084363
:103060000443AC81AC8A4FF6FF400440B08904436E
:10307000AC8201A8FFF714FD1F48874202D1DDF89A
:1030800010A001E0DDF80CA0A88900F4004040B1D8
:103090000AEBCA0000EB0A1031684900B0FBF1F8F6
:1030A00007E00AEBCA0000EB0A1031688900B0FBA8
:1030B000F1F86420B8FBF0F004012009642101FB61
:1030C0001089A88900F4004040B1322000EBC9000B
:1030D000B0FBF1F000F00700044308E0322000EB01
:1030E00009106421B0FBF1F000F00F0004432C81C3
:1030F00006B0BDE8F087000000380140014688882E
:10310000C0F308007047C1F308028280704700BF17
:10311000FEE7490050EAC12018BF04204A0D18BF3D
:1031200040F0010040F2FF72B2EB515F08BF40F087
:103130000200012808BF0520704730380A2801D254
:10314000012070470020704738B500240125012177
:103150000420FFF795FC01210846FFF791FC0121AF
:103160003B48FFF709FAE803ADF8000010208DF89E
:10317000030003208DF8020069463648FFF770F916
:103180001020ADF8000028208DF8030003208DF8F2
:10319000020069462F48FFF763F904210020FFF77A
:1031A0003FF910202C490860002008710820487160
:1031B000002088710846FFF7E9F80A2027490870BF
:1031C00002204870032088700020C8700846FFF76E
:1031D00005FC0020224908602249C1F8100105E0E1
:1031E00021A0FDF7A5F82548FFF766F81C48AC3884
:1031F00000680028F4D12249224801F03FF9224911
:10320000224801F0F4F800202149088000212148DB
:10321000FFF7A5FD0120124908601848FFF74CF898
:1032200003240AE046221CA11CA000F039FB20B9AF
:1032300000251CA0FDF77CF804E0201EA4F101018C
:10324000CCB2EFD100BF04B90125284638BD00003B
:10325000000230000008014020000020280000206B
:10326000BC01214200002142C4A3BFE9D5FDC3A691
:103270002CC7EBC9D4B5C821210A000040420F0079
:10328000500000202C000020680000205400002086
:103290000E000020000400404F4B00004154453018
:1032A00000000000BCECB2E2B3C9B9A60A000000FD
:1032B00086B04FF44470059015E001F063F9FFF714
:1032C000E3F90446224608A16846FDF73DF8684642
:1032D000FFF7F2F901F068F900BF0548059901F020
:1032E00081FC00BF00BFE8E7226C31223A25640070
:1032F000840000201CB537E001F044F91BA0FDF765
:1033000017F82148022100238022CDE900101FA1D7
:10331000214801F033FC1C48001D022100238022BB
:10332000CDE900101DA1214801F028FC16480C3001
:10333000022100238022CDE900101DA11F4801F0C9
:103340001DFC11481030022100238022CDE900101D
:103350001BA11E4801F012FC01F026F9002001F02B
:10336000A5F9642001F088F9C6E700007374617262
:103370007420637265617465206D61696E2074618B
:10338000736B0D0A00000000AC0800206468313146
:10339000207461736B000000D133000862687431DF
:1033A000373530207461736B00000000B1320008C3
:1033B0006C6F7261207461736B00000095370008B8
:1033C0004D5132207461736B000000009129000898
:1033D00088B040F2153007901CE00020019000906A
:1033E00001F0D0F8694601A8FEF7F9FE9DF800301B
:1033F0009DF8042008A102A8FCF7A6FF02A8FFF789
:103400005BF901F0D1F800BF0748079901F0EAFB2A
:1034100000BF00BFE1E70000227431223A25642C8E
:10342000226831223A2564008000002000BF054A4E
:10343000128802F04002002AF9D0C2B2014B1B1DD3
:103440001A8070470038014000B58BB0242218491B
:1034500002A8FDF79FF916482430006801904FF448
:10346000A060FFF7F3FA01A902A801F007F8FEF740
:10347000FDFE00F021F900F037F9FEF75DFE18B906
:103480000CA0FCF755FF02E00EA0FCF751FFFEF781
:10349000FAFD10B10FA0FCF74BFFFEF7F5FC114849
:1034A000FEF70AFF10A0FCF743FF0BB000BD0000C1
:1034B000705400084448543131206572726F720DA7
:1034C0000A000000444831312073756363657373EB
:1034D0000D0A0000424831373530206572726F7234
:1034E0000D0A0000A0860100616C6C2068617264A6
:1034F00077617265732066696E69736865642069B7
:103500006E697469616C697A6174696F6E0D0A0025
:1035100010B580200B4908600120FEF7CDFE402049
:103520000849091F08600120FEF7C6FE4020054932
:1035300008600120FEF7C0FE80200249091F0860D4
:1035400010BD0000140C014010B58020094908602E
:103550000120FEF7B1FE4020064908600120FEF779
:10356000ABFE40200349091D08600120FEF7A4FEC0
:1035700010BD0000100C014070B50024002518E0BB
:103580006006040E40200D4908600120FEF794FEFD
:103590000A480838006800F0800008B1601CC4B216
:1035A00040200649091D08600120FEF785FE681CC1
:1035B000C5B2082DE4DB204670BD0000100C0140B0
:1035C00070B50446002523E004F0800018B1802087
:1035D0001149086003E080200F49091D086001209F
:1035E000FEF76AFE40200C4908600120FEF764FEE9
:1035F00040200949091D0860072D02D18020091FBC
:1036000008606006040E0120FEF756FE681CC5B275
:10361000082DD9DB70BD0000100C014010B58020D2
:103620000A490860402008600120FEF745FE80201E
:103630000649091D08600120FEF73EFE40200349AF
:10364000091D08600120FEF737FE10BD100C014077
:1036500010B58020064908604020091F086001203D
:10366000FEF72AFE80200249091F086010BD0000F5
:10367000140C014010B580200E4908600120FEF7AF
:103680001BFE40200B4908600120FEF715FE09488B
:103690000838006800F0800008B1012400E0002430
:1036A00040200449091D08600120FEF705FE204660
:1036B00010BD0000100C014008B501210820FFF7E3
:1036C000DFF908488088ADF8000010208DF803006D
:1036D00003208DF80200034908686946FEF7C0FE22
:1036E00008BD00000000002010B508E01AA0FCF79B
:1036F0001FFE1EA0FCF71CFE1D48FEF7DDFDFFF7B8
:1037000023FD0028F2D11BA0FCF712FE1D48FEF796
:10371000D3FD01201C49086049F64040FEF7CCFD6E
:1037200001211A4800F0CAFD0020FEF76BFC45F2AB
:10373000104017490880102088700020C8700520AC
:103740000871002048718871C87107200872002034
:103750004872FFF747F810BDCEB4BCECB2E2B5BD7D
:10376000C4A3BFE92121210D0A0000000D0A0000B9
:10377000E0930400BCECB2E2B5BDC4A3BFE92121D3
:10378000210D0A0020A10700BC0121422C000020CD
:103790001400002008B540F21530009032E00024FB
:1037A00000251948008800F4004020B3164800881E
:1037B000C0F30E050020154948551349088000BF85
:1037C0000DE000BF40211248FFF7D0FB0028F9D0E0
:1037D0000E48015D0E48FFF796FC601C84B2AC42B7
:1037E000EFDB0C48C07910B9002000F017F829462B
:1037F0000648FDF709F800BF0748009901F0F2F903
:1038000000BF00BFCBE700000E0000202001002019
:1038100000380140140000208C00002010B5044640
:103820000A48008800F4004070B100200749098868
:10383000C1F30E01064A5054114606A0FCF778FD6C
:1038400014B100200149088010BD00000E000020C6
:103850002001002073656E6420726573756C743A84
:1038600025730D0A0000000070B5044600250A48C3
:10387000008800F4004068B1002007490988C1F3BE
:103880000E01064A5054FFF7C9FF21460348FCF7D2
:103890000BFF0546284670BD0E00002020010020C9
:1038A0002DE9F04104460E461546002700201A492E
:1038B0000880214619A0FCF73BFDFF2C0AD800BF69
:1038C0001948008800F040000028F9D01649091D69
:1038D0000C8003E0214615A000F0A8FDCEB1C5B1D3
:1038E00010E042F21070FEF7E7FC0B48008800F48D
:1038F000004038B13046FFF7B7FF00B106E00020C6
:1039000005490880681E80B2051EEAD100BF05B9CE
:1039100001273846BDE8F0810E000020B7A2CBCDCC
:10392000A3BA25730D0A00000048004025730D0A54
:103930000000000000F040FD01E000F057FDFCE752
:103940002DE9F04105460E462648076826480068DE
:10395000001D00F0CCFD50B92348006890F82C10F1
:103960000120884021490968814320480160681C82
:10397000D8B9D6B11E4948681B49096888601A49F8
:1039800082680968CA6018490968091D826851601F
:1039900015490968091D8160154A134909684A617A
:1039A00011460968491C11601AE07C190E4800682C
:1039B0004460BC4207D20C480168091D0D480068EC
:1039C00000F0B9FD0CE008480168091D0A480068CC
:1039D00000F0B1FD09480068844201D20748046044
:1039E000BDE8F081A800002094000020AC00002079
:1039F0005C0A00209C00002098000020C4000020E9
:103A000010B5044600F0BEFD31480068401C304946
:103A100008603048006840B92E48046008460068D5
:103A200001280DD100F084F90AE02B48006838B96C
:103A300028480068C06AE16A884201D825480460C5
:103A400026480068401C25490860084600686064F4
:103A500094F82C1001208840214909680843204926
:103A60000860E16A01EB81011E4A02EB81014868AE
:103A7000A0608268E260211D826851608160E16A15
:103A800001EB8101174A02EB81026261E16A01EBFD
:103A90008101144A52F82110491CE26A02EB8202A9
:103AA000104B43F8221000F07FFD0B48006868B10E
:103AB00008480068C06AE16A884207D24FF0805027
:103AC00009490860BFF34F8FBFF36F8F10BD00002F
:103AD000A400002094000020B0000020C0000020BE
:103AE000AC000020CC08002004ED00E010B500F090
:103AF00049FD0C48006890B90B4800F00CFD0B48DC
:103B000000F009FD08480A490860084809490860AA
:103B100000221021322000F009FF0249086000F065
:103B200043FD10BDE0000020700A0020840A002040
:103B3000D8000020DC00002010B516E000F022FDC7
:103B40000C48C068C468201D00F0D1FC0A48006819
:103B5000401E0949086009480068401E074908607E
:103B600000F022FD204600F020F8044800680028FC
:103B7000E4D110BD480A0020A4000020A0000020CD
:103B800070B504460D46206C70B1216CE0680144AC
:103B9000E160D4E90210884201D32168E16028463F
:103BA000226CE168FCF7B1FD70BD10B50446206BD6
:103BB00000F00AFD204600F007FD10BD0146084A4E
:103BC000126812680AB9012200E000220A600A683D
:103BD00022B9034A1268D268106800E000207047DA
:103BE000D800002030B54FF42053154800F00704EA
:103BF0002CB1C01D20F00700114C041B1B1B0246FA
:103C0000104C226000240F4D6C60D018083820F052
:103C100007000D4C206000240B4D2D686C600A4D90
:103C20002D682C601146441A4C60074C24680C60C7
:103C3000064D4C682C60064D4C682C6030BD000071
:103C4000980A0020EC000020F4000020FC00002076
:103C5000F800002000BFFFF76FFF0648006801284A
:103C6000F9D94FF0805004490860BFF34F8FBFF37C
:103C70006F8FF0E7CC08002004ED00E02DE9F04163
:103C800006460D4617469846069C0DB9246000E08E
:103C90002760E66325640121204600F06DFE84F86C
:103CA0004C80BDE8F0812DE9F05F81460E46174655
:103CB0009A46DDF828800C9CB900A522206BFCF701
:103CC0009BFD781E216B01EB800B2BF0070B7EB167
:103CD000002507E0715D04F134004155705D00B9C5
:103CE00002E06D1C102DF5D300BF002143200155CB
:103CF000B8F1100F01D34FF00F08C4F82C80201D2D
:103D000000F016FC04F1180000F012FC2461C8F168
:103D10001000A061646252464946584600F0BCFA61
:103D200020600B9808B10B980460BDE8F09F00007C
:103D300010B5002407E004EB84010F4A02EB810078
:103D400000F0E9FB641C102CF5D30C4800F0E3FBF9
:103D50000B4800F0E0FB0B4800F0DDFB0A4800F0E8
:103D6000DAFB0A4800F0D7FB044809490860044818
:103D70000849086010BD0000CC0800200C0A002093
:103D8000200A0020340A0020480A00205C0A002093
:103D9000980000209C00002010B50146164800E065
:103DA000006803688B42FBD30246436813448B428E
:103DB00004D143684C682344436001460A464B687B
:103DC00013440468A34211D10C4C03682468A34235
:103DD00008D04B680468646823444B6003681B6820
:103DE0000B6005E0054B1B680B6001E003680B608E
:103DF000884200D0016010BDEC000020F4000020DB
:103E00002DE9F04104460D4616461F464FF00008C6
:103E100065602461B5420CD8F01BA169884202D3C9
:103E20004FF0010811E0211D0948006800F083FBF4
:103E30000BE0BE4204D2BD4202D34FF0010804E0C1
:103E4000211D0448006800F076FB4046BDE8F08183
:103E5000DC000020D800002070B5054600F092FB81
:103E6000A86B08B9012400E0002400F09DFB204667
:103E700070BD000070B505460E460E480068C0686B
:103E8000C468201D00F033FB94F8280000F0040003
:103E900028B132462946204600F0D0F805E094F8D3
:103EA000280000F0FE0084F828002046216A884798
:103EB00070BD0000D800002070B586B077E0029891
:103EC000002805DA03AED6E90020B168904700BFAC
:103ED000029800286BDB049C606908B9012000E0AF
:103EE000002010B9201D00F002FB01A800F0D2F85C
:103EF000054602980A2858D2DFE800F05705072E39
:103F0000364706082F3700BF00BF00BF94F82800CF
:103F100040F0010084F828000398A2698118034644
:103F20002A462046FFF76CFFA8B194F8280000F05D
:103F3000040038B10398A26981182A46204600F08F
:103F40007DF805E094F8280000F0FE0084F82800D1
:103F50002046216A884729E000BF94F8280000F035
:103F6000FE0084F8280021E000BF94F8280040F00B
:103F7000010084F828000398A061A06941192B462C
:103F80002A462046FFF73CFF10E094F8280000F096
:103F9000020018B9204600F017FB05E094F828004D
:103FA00000F0FE0084F8280000E000BF00BF0022FF
:103FB00002A90448006800F02FFD00287FF47FAFBD
:103FC00006B070BDE0000020F8B505460C4600F0D4
:103FD0005BFC684600F05EF80646009820BB44B9DA
:103FE000B54206D800F08AFF31462846FFF742FF67
:103FF0001CE03CB10E480068006808B9012000E0F0
:1040000000200446A91B22460A48006800F00EFB67
:1040100000F074FF50B94FF0805007490860BFF3BB
:104020004F8FBFF36F8F01E000F068FFF8BD000015
:10403000DC000020E000002004ED00E070B5044644
:104040000D46164604E0A06905442046216A8847CB
:10405000A06941192B4632462046FFF7D1FE0028C1
:10406000F1D170BD09480068006808B9012000E07E
:10407000002020B14FF0FF300549086005E00348FB
:104080000068C06800680249086070479800002016
:10409000C400002070B5044600F0DEFD0546074868
:1040A0000068854204D200F00BF80120206001E096
:1040B0000020206001480560284670BDE80000200F
:1040C00070B508E00D480068C06804684FF0FF3123
:1040D0002046FFF7CFFE09480068006808B90120B4
:1040E00000E000200028EDD004480568044800687E
:1040F000024908600248056070BD0000D800002039
:10410000DC00002000BFBF2080F31188BFF34F8F79
:10411000BFF36F8F00BF00BFFEE708B500BF684662
:10412000FFF74CFD044620460099FFF74DFFFFF7CF
:10413000C3FEF4E770B5044600F024FA94F9455044
:1041400010E0606A08B9012000E0002038B904F1ED
:10415000240000F04FFE18B100F01EFB00E003E069
:10416000681E45B2002DECDC00BFFF2084F845003E
:1041700000F01AFA00F006FA94F9445010E02069B1
:1041800008B9012000E0002048B904F1100000F057
:1041900031FE08B100F000FB681E45B200E001E00E
:1041A000002DECDC00BFFF2084F8440000F0FCF997
:1041B00070BD00002DE9F04705464FF0000900F002
:1041C00063FB3048006808B9FFF70CFD75B105F0D6
:1041D0000700C0F11008C8F1FF30A84201D2012049
:1041E00000E0002008B9454400E00025012000EB74
:1041F000E570002841D0002D3FD02348006885425B
:104200003BD8224E3046046801E0264624686068A8
:10421000A84202D220680028F7D11A4800688442D8
:104220002BD0306800F10809206830606068401BBE
:10423000102807D967196068401B786065603846A8
:10424000FFF7AAFD104960680968081A0E4908605E
:10425000084600680E490968884203D20A48006887
:104260000B490860606840F00040606000202060FA
:1042700008480068401C0749086000F03FFE4846B7
:10428000BDE8F087F4000020F8000020EC000020DA
:10429000FC00002000010020001F4FF0807303602D
:1042A000001F21F001030360001F034B036014385B
:1042B00002602038704700000541000870B50446D0
:1042C0000D4600210C48FEF745FE15B90C21E1838F
:1042D00008E0012D02D10821E18303E0022D01D184
:1042E0000421E18304F114012068FEF79BFE012103
:1042F0002068FEF72FFE70BD0048004070B50446F0
:104300000E461546082E2DD2DFE806F004090E13DE
:10431000181D22274FF496602549086022E04FF4CB
:104320001660234908601DE04FF49650204908604C
:1043300018E04FF416501E49086013E04FF4964001
:104340001B4908600EE04FF416401949086009E067
:104350004FF461401649086004E04FF4E13014491D
:10436000086000BF00BF00211248FEF7F3FD1048AF
:10437000006860610021618315B92183A1830DE08C
:10438000012D04D1290321838910A18306E0022D88
:1043900004D1E90221834FF4C061A18304F1140127
:1043A0000448FEF73FFE01210248FEF7D3FD70BD31
:1043B00010000020004800401CB5FFF745F80648F3
:1043C000022100230A02CDE9001004A1064800F0F2
:1043D000D5FB00F01DFA1CBDA408002063726561C6
:1043E00074655461736B0000F5320008704770B556
:1043F00004460D46606818B101216068FEF730FB85
:1044000001212068FEF7A8FC04F108012068FEF7EE
:10441000CFFC012211462068FEF7BEFC0121206876
:10442000FEF79DFC2846FEF7D9FA70BD0FB438B5EB
:1044300005A800900F48009A0499FBF767FF002039
:1044400000900C48FCF742F985B200240DE000BF53
:1044500040210948FEF78AFD0028F9D00548015D92
:104460000548FEF750FE601C84B2AC42EFDB38BC5E
:104470005DF814FB200500200048004038B50446D4
:104480000D46A06818B10121A068FEF7E9FA60683E
:1044900018B101216068FEF7F3FA608AADF80000F8
:1044A00018208DF8030003208DF802006946E068AB
:1044B000FDF7D6FF208AADF8000004208DF8030038
:1044C0006946E068FDF7CCFF04F114012068FEF7AF
:1044D000A9FD01212068FEF73DFD012240F2255192
:1044E0002068FEF77AFD2846FEF778FA38BD0146C7
:1044F0000A69D1E901309860D1E901035860506838
:10450000884201D188685060002008611068401E10
:1045100010601068704700F1080141604FF0FF31F2
:10452000816000F10801C1600161002101607047F4
:1045300000210161704710B502460B685C1C0CB984
:10454000106907E002F1080000E040684468246850
:104550009C42FAD944684C604C68A1608860416014
:104560000A611468641C146010BD42684A60936854
:104570008B60936859609160086103685B1C0360FD
:104580007047000000BFBF2080F31188BFF34F8F3A
:10459000BFF36F8F00BF03480068401C01490860EB
:1045A00070470000D400002006480068401E0549FE
:1045B00008600846006820B9002080F3118800BF19
:1045C00000BF7047D400002070B506463546E6B1FE
:1045D000083D2C466068C00FB8B12068A8B9606873
:1045E00020F00040606000F04FF9084960680968F9
:1045F0000844064908602046FFF7CEFB04480068DF
:10460000401C0349086000F079FC70BDF8000020F0
:104610000401002000204FF0E02108618861024879
:1046200048610720086170473F1901002DE9F041FA
:1046300005460E4617462C46FFF7A4FF94F94400A2
:10464000401C10B9002084F8440094F94500401C37
:1046500010B9002084F84500FFF7A6FFA06B28B929
:104660003A46314604F1240000F0ACF82046FFF74A
:1046700061FDBDE8F081000070B50446002544B13D
:1046800000F002F900212046FFF75AF900F036FC4D
:1046900005463DB94FF0805003490860BFF34F8F86
:1046A000BFF36F8F70BD000004ED00E070B50546EC
:1046B000FFF768FF15B92948006800E0284604465E
:1046C000201DFFF714FF78B9E06A00EB8000244951
:1046D00051F8200040B994F82C100120884021495D
:1046E000096881431F480160A06A18B104F11800ED
:1046F000FFF7FDFE1C480068401C1B490860174876
:104700000068844209D1211D1848FFF72EFF184880
:104710000068401C1649086006E016480068401E04
:1047200014490860FFF79EFCFFF73EFF0B48006846
:10473000844202D02046FFF738FA0F48006858B18B
:1047400006480068844207D14FF080500B4908604A
:10475000BFF34F8FBFF36F8F70BD00009400002038
:10476000CC080020AC000020C0000020480A002037
:10477000A0000020A4000020B000002004ED00E014
:1047800003490968016003490968416070470000F6
:10479000BC000020A80000200120014908607047EB
:1047A000B800002070B505460C4605480168183170
:1047B0002846FFF7C0FE01212046FFF7C1F870BD73
:1047C0009400002070B504460E46154660680F49F7
:1047D0000968C8610D49826809680A620B4909685D
:1047E00018318268516009490968183181600749A8
:1047F00009688C622168491C21600DB14FF0FF36B9
:1048000029463046FFF79CF870BD00009400002058
:104810001CB5154800210B468022CDE9001013A1DC
:10482000144800F0ABF90446012C02D100F014FC4E
:104830000446012C14D100BFBF2080F31188BFF3C0
:104840004F8FBFF36F8F00BF4FF0FF300A490860F2
:1048500001200A49086000200949086000F04CF86E
:10486000084800681CBD0000C800002049444C45B1
:1048700000000000553C0008C4000020B0000020EB
:10488000A8000020CC00002002480068401C01491C
:1048900008607047D00000201248006818B101205D
:1048A000114908601DE000200F4908600F480068AA
:1048B000B0FA80F0C0F11F0101EB81020C4B03EB59
:1048C000820042685268426000F1080243689342E5
:1048D00002D14268526842604268D268054B1A6051
:1048E00000BF7047D0000020B8000020AC000020BE
:1048F000CC0800209400002010B50A48006840F45D
:104900007F00084908600846006840F07F40086062
:10491000FFF780FE002004490860FBF79DFC0020A3
:1049200010BD000020ED00E0D40000202DE9F84388
:1049300004460E4617460025DCB1681EB0FBF4F0B5
:10494000B04216D304FB06F010F1510F11D804FB4E
:1049500006F909F15000FFF72DFC05464DB1A846B8
:1049600008F150083B464246314620460095FFF785
:1049700085F92846BDE8F8832DE9F04105460E4645
:1049800001272C46002C41D0E06B00283ED0B91EF8
:10499000E06BB1FBF0F0216C884237D3FFF7F2FDFA
:1049A000D4E90F12206801FB0200A0600020A06380
:1049B00020686060E06B401E226C216800FB0211E1
:1049C000E160FF2084F8440084F845009EB9206926
:1049D00008B9012000E00020A8B904F1100000F09F
:1049E00009FA80B14FF080500A490860BFF34F8F39
:1049F000BFF36F8F07E004F11000FFF78CFD04F1A7
:104A00002400FFF788FDFFF7CFFD00E000273846C0
:104A1000BDE8F08104ED00E02DE9F74183B00546E3
:104A20000F464FF000082C4600BFFFF7ABFDA66B0A
:104A3000F6B139462046FFF7A3F8701EA06320693F
:104A400008B9012000E0002060B904F1100000F076
:104A5000D1F938B14FF080502F490860BFF34F8F24
:104A6000BFF36F8FFFF7A0FD012006B0BDE8F08116
:104A7000059818B9FFF798FD0020F6E7B8F1000F88
:104A800004D101A8FFF77CFE4FF00108FFF78CFD71
:104A9000FFF7FAFEFFF776FD94F94400401C10B9C9
:104AA000002084F8440094F94500401C10B900200F
:104AB00084F84500FFF778FD05A901A800F02EF85D
:104AC000F0B92046FFF7C8F9A0B104F12400059918
:104AD000FFF768FE2046FFF72DFB00F00FFA0028D5
:104AE000A3D14FF080500C490860BFF34F8FBFF344
:104AF0006F8F9AE72046FFF71DFB00F0FFF994E760
:104B00002046FFF717FB00F0F9F92046FFF7A4F95C
:104B100000288AD00020A8E704ED00E070B5064622
:104B20000C46FFF72FFD134802687068131A2068BF
:104B3000401C08B9002519E00F493068096888420F
:104B400006D07068904203D80125002020600DE057
:104B50002068984207D92068C01A20603046FFF7C5
:104B60000FFE002502E0002020600125FFF71CFD5C
:104B7000284670BDA8000020BC0000202DE9FF4F92
:104B800085B0804689461746DDE912ABB800FFF7CD
:104B900011FB064676B15420FFF70CFB04462CB1FE
:104BA00054212046FBF752FE266304E03046FFF70F
:104BB0000BFD00E000247CB10020CDE900ABCDE985
:104BC00002403A4649464046089BFFF76CF82046AB
:104BD000FEF716FF012501E04FF0FF35284609B02A
:104BE000BDE8F08F2DE9F047044688464FF00009F4
:104BF000FFF74AFE16480668206800EB08052068A3
:104C0000B04207D92068A8420BD9B54209D94FF064
:104C1000010906E02068A84201D8B54201D94FF049
:104C200001092560B9F1000F03D0A81B0021FEF790
:104C300087FE00F063F907463FB94FF08050054901
:104C40000860BFF34F8FBFF36F8F4846BDE8F08712
:104C5000A800002004ED00E001490868704700004A
:104C6000A80000202DE9F0410027574800680028DF
:104C70007ED156480068451C544805608DB954489B
:104C8000D0F8008053480068514908605148C0F886
:104C9000008051480068401C4F490860FFF7E2F966
:104CA00000BF4E480068854276D300BF4848006880
:104CB000006808B9012000E0002020B14FF0FF306B
:104CC0004649086067E042480068C068C468666892
:104CD000B54202D2414806605DE06069D4E9021243
:104CE0008A60D4E902214A60211D42688A4201D1CA
:104CF000E1684160002262610168491E0160A06AAA
:104D000098B1A06AD4E907128A60D4E907214A6001
:104D100004F1180142688A4201D1216A41600022EF
:104D2000A2620168491E016000BF94F82C100120A6
:104D300088402B490968084329490860E16A01EB6A
:104D40008101284A02EB81014868A0608268E26024
:104D5000211D826851608160E16A01EB8101214A75
:104D600002EB81026261E16A01EB81011D4A00E010
:104D700022E052F82110491CE26A02EB8202194B30
:104D800043F822101849E06A0968C96A88428DD937
:104D900001278BE700E000BF13480068C06A00EB02
:104DA0008000104951F82000012800D901270F4840
:104DB000006800B1012704E00D480068401C0C4960
:104DC00008603846BDE8F081D0000020A80000202F
:104DD000980000209C000020BC000020C40000209F
:104DE000AC000020CC08002094000020B800002077
:104DF000B400002070B50346D868C168886AD1E95C
:104E00000745A560D1E90754656001F118044568BC
:104E1000A54201D10C6A446000258D620468641EBD
:104E200004603048006800283DD14869D1E9024556
:104E3000A560D1E9025465600C1D4568A54201D109
:104E4000CC68446000254D610468641E046091F8DC
:104E50002C400120A040244C24682043224C206098
:104E6000CC6A04EB8404214D05EB840460688860FF
:104E70008568CD600C1D85686C608460CC6A04EB2D
:104E800084041A4D05EB84054D61CC6A04EB84045F
:104E9000164D55F82440641CCD6A05EB8505134E6C
:104EA00046F8254010E0124C6068C86185680D62C4
:104EB00001F1180485686C6084600D4D8D622C468C
:104EC0002468641C2C6000BF0A4CC86A2468E46A29
:104ED000A04204D901220120074C206000E00022FA
:104EE000104670BDD0000020AC000020CC0800208F
:104EF000340A002094000020B800002070B500247F
:104F00000026FFF73FFB4B480068401E49490860F8
:104F10000846006800287DD147480068002879D0FD
:104F20005BE04648C068C468A06AD4E907128A609A
:104F3000D4E907214A6004F1180142688A4201D18C
:104F4000216A41600022A2620168491E0160606915
:104F5000D4E902128A60D4E902214A60211D426824
:104F60008A4201D1E1684160002262610168491E04
:104F7000016094F82C1001208840314909680843E9
:104F80002F490860E16A01EB81012E4A02EB8101A1
:104F90004868A0608268E260211D8268516081607B
:104FA000E16A01EB8101274A02EB81026261E16A59
:104FB00001EB8101234A52F82110491CE26A02EBFD
:104FC0008202204B43F822101F49E06A0968C96A2F
:104FD000884202D301201D4908601848006808B9BA
:104FE000012000E0002000289BD00CB1FFF73AF828
:104FF0001748056865B100BFFFF734FE10B1012006
:10500000124908606D1E002DF6D10020104908607D
:105010000E4800E009E0006838B1012630070D496C
:105020000860BFF34F8FBFF36F8FFFF7BDFA3046B5
:1050300070BD0000D0000020A4000020340A002031
:10504000AC000020CC08002094000020B800002014
:10505000B400002004ED00E01CB50024FEF746FD7E
:105060000748006850B10748322100230A46CDE9BD
:10507000001005A10648FFF781FD044620461CBD2F
:10508000E0000020E4000020546D7220537663009D
:105090001B41000810B500290AD00878002807D065
:1050A00005487844FCF794FA002801D0002010BD90
:1050B0000248784410BD0000160500000E050000EF
:1050C00010B500290AD00878002807D00548784490
:1050D000FCF77EFA002801D0002010BD0248784479
:1050E00010BD000006050000FE0400004FF47F0C18
:1050F0001CEAD0121EBF1CEAD11392EA0C0F93EAED
:105100000C0F00F0858090EA010F48BF42F48072D6
:1051100040F4000C41F400002CF07F4120F07F406F
:1051200000B58142A2EB03020FF2081CACEB504E1B
:10513000C0F100009EF800E04FEA4E0E00FB0EFCAE
:1051400038BF49004FEA2C1C02F5FA020CFB0EF3A3
:105150004FEACE1E4FEA112C4FEAC1210EEB635EDF
:1051600042EB22420EFB0CFC4FEA1C5300FB0311E6
:105170004FEA112C4FEA01310EFB0CFC4FEADC4CDC
:1051800000FB0C11C14228BF09184CEB03335DF83A
:1051900004EB10EB410143EBC250B2F57C0F38BF7A
:1051A000704729D512F0F00F1CBF00F1C04000F08D
:1051B00000407047008182838485868788898B8C34
:1051C0008D8E8F919293959697999A9C9D9FA0A270
:1051D000A3A5A7A8AAACAEB0B2B3B5B7B9BCBEC0C0
:1051E000C2C5C7C9CCCED1D4D7D9DCDFE2E6E9EC61
:1051F000F0F3F7FAFE0000004FEA400C0CF1807C5F
:10520000BCF17E4F28BF7047B0F1C04000F027B915
:1052100090EA010F0CEAD11348BF42F48072624554
:1052200038BF634507D213F47F0F16D080EA010020
:1052300000F00040704710B500F0CBF8097EFC3E4E
:1052400000F005B880EA010000F00040704780EAF5
:10525000010000F0004000F002B912F47F0F04BF1B
:105260000248704780EA010000F0F9B80000C07FF2
:1052700041000B0ED3F19E0208D950F400034FEA0F
:10528000032323FA02F048BF4042704710B500F0F4
:10529000A0F800BF49922480002070476FF00042C0
:1052A00082EA200070470000B0FA80F310FA03F29F
:1052B000C3F19D030AD0D90501EB1220530638BF74
:1052C000704700F1010008BF20F0010070470000A6
:1052D0004FF47F0C1CEAD0121EBF1CEAD11392EAD5
:1052E0000C0F93EA0C0F00F0478090EA010F48BFC3
:1052F00042F480724FF0004C4CEA00204CEA01214D
:1053000002EB0302A0FB0113A2F50002002918BF63
:1053100043F001035B0028BF4FEA330342EB224214
:105320005FEA132C4CEBC2502EBFBCEB436FB2F5BF
:105330007C0F70474FEA036CBCF1004F08BF20F0B0
:105340000100B2F57C0F38BF70470BD582F0FF0229
:1053500012F5803FC8BF704700F1C040D8BF00F0D1
:105360000040704700F5000C5FEA4C0C48BF7047E6
:10537000B0F1C04000F073B890EA010F0CEAD1130D
:1053800048BF42F48072624538BF634504D280EA68
:10539000010000F00040704710B500F01AF800BF9F
:1053A0008900013E00F007B800F009B85FEA410C3F
:1053B0005FEA1C6C08D080EA010000F050B85FEA98
:1053C000400C5FEA1C6CF6D14FF00040A0F5800065
:1053D00070470EF1020E2EF0030E5EF8044B2442CD
:1053E00004D44FEA4102B2F17F4F11D84FEA400393
:1053F000B3F17F4F0CD80ED14FEAD07CB2F17F4F82
:105400000CEB4C0C0CF1020C08BF4CEBD17C04E013
:105410004FF0080C01E04FEAD17C0CEB4C0324FA6E
:1054200003F404F00704B4F1040C06D20EEB840C70
:10543000BDE810404CF0010C6047DFE80CF00708B5
:1054400002024FF00040A0F5800010BD0846420067
:1054500018BFD2F1807288BF00F0004010BDFF215C
:1054600041EAD050C0057047FBF7D2BCFBF706BE3F
:105470000038014004400000000000000008014026
:105480000004000200C201000000000000000C0047
:105490000000000025030301303132333435363744
:1054A0003839414243444546403058003031323368
:1054B0003435363738396162636465664030780068
:1054C00004000008000000000000000200010000CD
:1054D00010000000000000000000000030313233F6
:1054E0003435363738396162636465667870003008
:1054F00031323334353637383941424344454658E2
:105500005000000002400000000000A00000000069
:1055100005400000000000C8000000000C40000032
:105520000000409C00000000194000000020BCBEAC
:105530000000000034400000BFC91B8E00000004C2
:10554000B5400000504BCFD06607E2CF010000000D
:105550006C4100003E8251AADFEEA734010000003A
:10556000D9420000DCB5A0E23A301F97FFFFFFFFF1
:10557000B4450000FD25A0C8E9A3C14FFFFFFFFF10
:10558000FF3F00000000008000000000FF3F00001F
:105590000000008000000000E45600080000002029
:1055A0002001000028010008045800082001002004
:1055B000D8370000440100081C0000004300000030
:1055C000F8FFFFFF0C0000000E0000000F000000BD
:1055D0002E0000001001000043000000F8FFFFFF54
:1055E00000404040404040404040414141414140F6
:1055F00040404040404040404040404040404040AB
:105600004005020202020202020202020202020239
:10561000022020202020202020202002020202023E
:105620000202909090909090101010101010101096
:1056300010101010101010101010101002020202A2
:1056400002028888888888880808080808080808E6
:1056500008080808080808080808080802020202E2
:1056600040000000000000000000000000000000FA
:10567000000000000000000000000000000000002A
:10568000000000000000000000000000000000001A
:10569000000000000000000000000000000000000A
:1056A00000000000000000000000000000000000FA
:1056B00000000000000000000000000000000000EA
:1056C00000000000000000000000000000000000DA
:1056D00000000000000000000000000000000000CA
:1056E00000000000000C014060000000000000000D
:1056F000000000000000000000001703050000008B
:105700000300000000000000000000000000000096
:10571000004800400800000000000400000C0140A8
:105720000008000400C201000000000000000C009E
:1057300000000000270203010004004002000000F6
:105740001F1C000063000000000000001D0102019A
:10575000001122334455000000000000000000004A
:105760000000000000000000000000000000000039
:105770000000000000000000000000000000000029
:105780000000000000000000000000000000000019
:105790000000000000000000000000000000000009
:1057A00000000000000000000000000000000000F9
:1057B0000F00000000000000AAAAAAAA0000000032
:1057C00000000000000000000000000000000000D9
:1057D00000000000000000000000000000000000C9
:1057E00000000000000000000000000000000000B9
:1057F0000000000001020304010203040607080977
:045800000204060890
:04000005080000ED02
:00000001FF
