:020000040800F2
:10000000003A0020CD020008F5230008C1220008B4
:10001000F12300081D1E0008732A000800000000DC
:100020000000000000000000000000003502000891
:100030001D20000800000000790200087926000851
:10004000E7020008E7020008E7020008E7020008EC
:10005000E7020008E7020008E7020008E7020008DC
:10006000E7020008E702000821200008E702000874
:10007000E7020008E7020008E7020008E7020008BC
:10008000E7020008E7020008E7020008E7020008AC
:10009000E7020008E7020008E7020008E70200089C
:1000A000E7020008E7020008E7020008E70200088C
:1000B0000D27000841270008E7020008E7020008B2
:1000C000E7020008E7020008E7020008E70200086C
:1000D000E7020008B9270008E702000841280008E5
:1000E000E7020008E7020008E702000800F002F853
:1000F00000F090F80AA090E8000C82448344AAF132
:100100000107DA4501D100F085F8AFF2090EBAE82F
:100110000F0013F0010F18BFFB1A43F0010318473B
:10012000EC4200000C430000103A24BF78C878C1AC
:10013000FAD8520724BF30C830C144BF04680C60ED
:10014000704700000023002400250026103A28BF35
:1001500078C1FBD8520728BF30C148BF0B60704739
:100160006E2900F0F683702900F0CF81662904F033
:10017000B580652904F0B280672904F0AF80612959
:1001800004F0AE8003681B0A28BF41F08001692992
:1001900000F04081642900F03D81752900F03A812A
:1001A0006F2900F0EE84782900F09B81E92900F0A6
:1001B0008984E42900F08684F52900F08384EF29FE
:1001C00000F0EB84F82900F09A810368DB0928BF6E
:1001D00041F08001632900F0F883732900F0FD836A
:1001E000E32901F0C180F32901F0C68000207047A7
:1001F0001FB501F017F904000020002104F058F8A1
:10020000401C60600020002104F03CF8E0601FBD4D
:1002100010B510BD01F0D8F81146FFF7E9FF02F064
:100220001DFD01F0B5F903B4FFF7F2FF03BC01F0C7
:10023000FDF90000224B19680868B0E8F00F80F360
:100240000988BFF36F8F4FF0000080F311884EF0E4
:100250000D0E70470000000006480068006880F33B
:10026000088862B661B6BFF34F8FBFF36F8F00DFB0
:1002700000BF00BF08ED00E0EFF30980BFF36F8F10
:100280000F4B1A6820E9F00F106008B54FF0BF005F
:1002900080F31188BFF34F8FBFF36F8F03F0F4FB30
:1002A0004FF0000080F31188BDE808401968086825
:1002B000B0E8F00F80F30988BFF36F8F704700BF7D
:1002C0009C000020EFF3058070470000094880473C
:1002D00009480047FEE7FEE7FEE7FEE7FEE7FEE728
:1002E000FEE7FEE7FEE7FEE704480549054A064B40
:1002F00070470000AD260008ED0000080034002023
:10030000003A002000360020003600201CB50C46C4
:10031000064B7B4469460090204600F034FB0446BF
:100320000020694600F042FB20461CBD97060000F5
:100330000FB4044910B503AA029800F053FB10BC97
:100340005DF814FB700000200FB41CB5084B06AA22
:100350007B4469460090059800F015FB0446002098
:10036000694600F023FB20461CBC5DF814FB00002E
:100370005906000070B5044685690068C10601D5BC
:10038000302600E02026C00707D070BDD4E9012147
:1003900030469047206A401C20626D1EF6D570BD25
:1003A00070B5044685690078C00707D170BDD4E9EF
:1003B000012120209047206A401C20626D1EF6D546
:1003C00070BD70B50C460546012A05D02878800618
:1003D00000D5EA69002302E0012305E05B1C93429B
:1003E00002D2E05C0028F9D1A869E618C01AA86119
:1003F000286A184428622846FFF7BCFF04E0D5E9C4
:10040000012114F8010B9047B442F8D32846FFF7B6
:10041000C7FF70BD2DE9F04106460024106875291C
:10042000314616A510D000F029FA002802DA404221
:1004300013A507E031688A0701D512A502E0490734
:1004400004D511A5012401E000F021FA00210A22BF
:1004500006F1240709E0B0FBF2FCB0FBF2F302FB6B
:100460001C00303078541846491C0028F3D123462C
:100470002A463046BDE8F04100F012BA0000000004
:100480002D0000002B00000020000000F0B40D46FD
:100490000188090502D5214C7C4402E01F4C7C44B4
:1004A0000E34002100F1240608E002F00F071209C3
:1004B000E75D42EA03721B097754491C52EA0307BD
:1004C000F3D102780023120704D5702D06D009B1AC
:1004D000022311342246F0BC00F0E2B901231034AB
:1004E000F8E770B504460D462146106800F0CFF9D4
:1004F000024629462046BDE870400023C6E7D21DCB
:1005000022F00703D3E90023C0E70368126843F031
:10051000200303600823C3610023B7E7703E000097
:100520002DE9F05F894604464FF0000ADFF874B108
:10053000FB44C0F820A02046E1688847002874D01A
:10054000252806D0D4E901219047206A401C20626A
:10055000F1E700265F462046E168884720280546E7
:1005600007DB312D05D2781910F8200C08B10643AD
:10057000F1E7B00701D526F00406C4F81CA0002757
:10058000C4F818A02A2D09D0284602F088FA38B3FA
:1005900004EB8708303DC8F8185019E059F8041BDF
:1005A000204604EB87029161E1688847012F0546E8
:1005B00018D1E069002820DA26F020061DE0D8F8DE
:1005C000180000EB800005EB40003038C8F8180038
:1005D0002046E1688847054602F061FA0028EED11E
:1005E000012F0AD02E2D08D12046E16888477F1CB4
:1005F0000546022F46F02006C4DBA069002803DA76
:10060000404246F00106A061F00701D026F0100636
:100610006C2D0BD0682D09D04C2D39D06A2D35D0DA
:10062000742D35D07A2D33D016E038E0E1682F46AE
:1006300020468847B842054609D16C2F26D04FF492
:100640008060E168064320468847054604E06C2F39
:100650001AD04FF4807006430DB3A5F1410019285C
:1006600002D8203546F400664A46294620462660D0
:100670004E46FFF775FD80B101280BD0F61D26F020
:10068000070000F1080956E74020E4E78020D8E79A
:100690000020D6E706F104094DE7284652E7206A14
:1006A000BDE8F09F003E000010B5431C02E010F8CA
:1006B000011B71B18107FAD14FF0013202C88C1AC7
:1006C0008C4314EAC211F9D0C01A0A0603D0C01E26
:1006D00010BDC01A10BD0A0401D0801E10BD090251
:1006E000FCD0401E10BD032A40F2308010F0030CF5
:1006F00000F0158011F8013BBCF1020F624498BF75
:1007000011F801CB00F8013B38BF11F8013BA2F111
:10071000040298BF00F801CB38BF00F8013B11F08C
:10072000030300F02580083AC0F0088051F8043B2C
:10073000083A51F804CBA0E80810F5E7121D5CBF99
:1007400051F8043B40F8043BAFF30080D20724BFCC
:1007500011F8013B11F801CB48BF11F8012B24BF60
:1007600000F8013B00F801CB48BF00F8012B7047AF
:1007700010B5203AC0F00B80B1E81850203AA0E83C
:100780001850B1E81850A0E81850BFF4F5AF5FEA70
:10079000027C24BFB1E81850A0E8185044BF18C923
:1007A00018C0BDE810405FEA827C24BF51F8043BCA
:1007B00040F8043B08BF7047D20728BF31F8023B1E
:1007C00048BF11F8012B28BF20F8023B48BF00F8B2
:1007D000012B704702F0FF0343EA032242EA024280
:1007E00000F002B84FF000020429C0F0128010F0AF
:1007F000030C00F01B80CCF1040CBCF1020F18BFFD
:1008000000F8012BA8BF20F8022BA1EB0C0100F08F
:100810000DB85FEAC17C24BF00F8012B00F8012B62
:1008200048BF00F8012B70474FF0000200B5134697
:1008300094469646203922BFA0E80C50A0E80C5000
:10084000B1F12001BFF4F7AF090728BFA0E80C50B1
:1008500048BF0CC05DF804EB890028BF40F8042BAA
:1008600008BF704748BF20F8022B11F0804F18BF17
:1008700000F8012B704770477047704709684A05B8
:1008800001D540B27047C905FCD500B27047096870
:100890004A0501D5C0B27047C905FCD580B2704782
:1008A0002DE9F0470D4699469246044600F124088A
:1008B0000168880604D5E06921F01001216000E09C
:1008C0000120A84201DD471B00E00027A1697A1939
:1008D00002EB0900081AA0612078C00602D4204665
:1008E000FFF748FD002608E0D4E901211AF80600C8
:1008F0009047206A401C761C20624E45F4DB20782D
:10090000C0060AD52046FFF735FD06E0D4E90121EF
:1009100030209047206A401C2062381EA7F1010752
:10092000F4DC07E0D4E9012118F805009047206ABB
:10093000401C2062281EA5F10105F3DC2046FFF7CC
:100940002FFD2078000602D50220BDE8F0870120A7
:10095000FBE711680268006A530501D508700AE0D8
:10096000D30501D5088006E0130603D5C217C1E9F7
:10097000000200E0086001207047000001694A1C85
:1009800002610878704700B58FB0CDE901310021D0
:10099000059105497944CDE9031011466846FFF7F2
:1009A000BFFD0FB000BD0000E5FFFFFF0A6802F8C1
:1009B000010B0A60704710B5436913B1AFF30080B3
:1009C00001E0FFF7FEFC012010BD127800F12401C8
:1009D0000A7000224A700122EDE711684FF0FF32E1
:1009E000E9E70000074B70B50D467B44FFF7CBFFEE
:1009F0000446284600F0C4FC10B14FF0FF3070BD33
:100A0000204670BD7F2100002DE9FF5F15468A4614
:100A10000446DFF8AC80F8440027D8E900103E46D1
:100A2000CDE9001010E03AF816106A4602A800F06E
:100A3000ABFC411C07D02178890603D5E26939183F
:100A400091420DD80744761C2078800602D5E069D3
:100A5000B84205DDAE42E6DB3AF816000028E2D1E6
:100A6000A069C01BA0612046FFF784FCD8E90010F4
:100A7000CDE90010002017E03AF818106A4602A8E5
:100A800000F082FCB0F1FF3F81460BD000250DF154
:100A9000080B05E0D4E901211BF8050090476D1C07
:100AA0004D45F7D308F10100B0428046E4DB206AEF
:100AB000384420622046FFF773FCBDE8FF9F00002A
:100AC0002E3900002DE9F0418046D21D22F00702A8
:100AD0000025D2E90002F52915A614D0011E72F1F5
:100AE000000106DA0023D0EB030063EB020211A63B
:100AF00008E0D8F800108B0701D50FA602E04907DF
:100B000001D50EA601251146002408F1240704E0B2
:100B100000F04EF830323A55641C50EA0102F7D129
:100B20002B46324621464046BDE8F041FFF7B8BEAD
:100B3000000000002D0000002B000000200000003D
:100B400030B4002100F1240408E002F00705D208C7
:100B5000303542EA4372DB086554491C52EA03050A
:100B6000F3D10468002310A2250707D5A40600D4FA
:100B700021B1C46901230DA2641EC46130BCFFF71A
:100B80008FBE10B5044621461068FFF780FE02466E
:100B90002046BDE810400023D2E7D21D22F0070115
:100BA000D1E90023CCE70000000000003000000085
:100BB00030B5B0F10A024FEA900E71F100034EEA2F
:100BC000817EB0EB0E0061EB91014FEA101E4EEA00
:100BD000017E10EB0E0041EB11114FEA102E4EEA90
:100BE000016E10EB0E0041EB11214FEA104E4EEA60
:100BF000014E10EB0E0041EB1141401841F1000194
:100C00004FEAD00040EA41704FEAD10110EB800575
:100C10004FEA810444EA907444EB01046D1944EBFB
:100C20000404521BA3414FF0000348BF0A3200D511
:100C300030BD401C41F1000130BD70472DE9FF4F30
:100C40000C461E464FF0FF378BB0D2E90001DDF8AD
:100C500060800A908A46C1F30A5505B93D460021D5
:100C600008464FF00000BAF1000F00F4400005DA2A
:100C700000EB80004FF4400101EA50004FEA905928
:100C8000B9F1010F00DDB9460A9850EA4A000ED0CA
:100C900044F61050A5F2FF3545432F14B8F1000F6C
:100CA0001ED07542291E1EDDC9F100021CE0B8F1FC
:100CB000010F4FF0000001D0302103E0F24305E0C6
:100CC0002154401CB042FBDB30460022002121545D
:100CD0000B99C1F80880C1E900200FB0BDE8F08F82
:100CE000BD1B6D1CDEE74A4600DA694206A800F02B
:100CF000DDFB06AB93E8070003AB83E80700504633
:100D00000A9900F09AFC8DE80700A0F500501F3802
:100D100000900398002D0ADD42F21F014A46084464
:100D2000002303A90390684600F003FF09E0A0F543
:100D300000504A461F38002303A90390684600F07C
:100D40000DFF8DE807000004000C03D04FF0FF30CA
:100D5000410800E01046B8F1000F03D000220092D5
:100D600015461EE0751E05D4FFF722FF303262558E
:100D70006D1EF9D5B3460122084302D000227F1C24
:100D800004E02078302801D100227F1E002A099734
:100D900084D01DE0112D07DAFFF70AFF30326255CB
:100DA0006D1C50EA0102F5D1084302D00098C8B189
:100DB0000EE00021681E05E0235C625C635422544F
:100DC000401E491C8142F7DBAB46A81B401E099020
:100DD000002004F80B000B98099AC0F80880C0E9BD
:100DE000002B7AE711264FF0000857E72DE9F04F66
:100DF00088460446D21D22F0070191B0D1E90001D6
:100E0000CDE90A0101F037FE02460B98C00F01D070
:100E10002D2007E02068810701D52B2002E020214A
:100E200001EAC000032A099001D0072A05DB034626
:100E30004146204600F0FAFA0BE12078800601D501
:100E4000E06900E00620B8F1650F814606D0B8F1F0
:100E5000660F18D0B8F1670F70D131E00020B9F1FA
:100E6000110F009001DB112301E009F101030AAA2F
:100E700001A90CA8FFF7E2FEDDE90C70002609F1DC
:100E80000105834647E001204B4600904FF00047A4
:100E90000AAA01A90CA8FFF7D1FEDDE90DB00C9953
:100EA0005D46002610B909F101000D18B9EB0500E7
:100EB00003D4C0F1FF3609F10105A5EB09002BE0D1
:100EC000B9F1010F01DA4FF001090020B9F1110F5A
:100ED0000090484601DD112300E003460AAA01A95B
:100EE0000CA8FFF7ABFEDDE90C704D4600268346EB
:100EF000207800070AD4AB4500DA5D4601A8012D31
:100F000004DD411911F8011C302907D04F4502DAE0
:100F100017F1040F04DA012082460FE06D1EEEE7A0
:100F2000002F02DCED1B3E4403E0781CA84200DDEC
:100F30007D1CB81B00F1010A4FF000472078000724
:100F400003D4AA4501DB4FF0FF3A0021B7F1004F6F
:100F50000DF143088DF8431024D002202B23002FDD
:100F600001DA7F422D230A21021EA0F1010000DCDC
:100F70005FB197FBF1FC97FBF1F201FB1C7C17467C
:100F80000CF1300C08F801CDEEE7A8F10100037078
:100F90002188090501D5452100E06521A0F101085E
:100FA00000F8011C09980FA9A1EB0807FF1D00B16B
:100FB0000120411901EBEA70A1693844081A401E6A
:100FC000A0612078C00602D42046FFF7D3F9099823
:100FD00028B1D4E901219047206A401C2062207882
:100FE000C00622D52046FFF7C5F91EE0002E04DB1F
:100FF000B34502DD01A8805D00E03020D4E9012185
:101000009047206A401C2062761CAAF101005FEA2A
:10101000000A0AD100F006FAC0680168405CD4E911
:1010200001219047206A401C2062281EA5F101057D
:10103000DCDC07E0D4E9012118F8010B9047206AB5
:10104000401C2062381EA7F10107F3DC2046FFF7A1
:10105000A7F9032011B041E62DE9F04F04460D46F3
:10106000D21D22F0070089B0D0E9009748463946E2
:1010700001F001FD0246F80F01D02D2307E02068A2
:10108000810701D52B2302E0202101EAC0038DF85E
:1010900020300BB1012000E00020032A824601D05D
:1010A000072A04DB2946204600F0C0F93FE12078FA
:1010B000800601D40D2500E0E569C7F30A560D2D21
:1010C00049DA00214FEA175B08464FF00000002F75
:1010D00000F4400007DA00EB80004FF4400100EB21
:1010E000D07001EA60008115012901DD4FF0FF3168
:1010F00000224FEA850CBCF1180F06D31346ACF161
:1011000018004FF08052C24003E04FF4801323FADE
:101110000CF30CF10C0CBCF1200F04D3ACF1200C3F
:1011200009FA0CF001E007FA0CF000294FF0004832
:1011300001DD18B90FE00ED140450CD319EB0209BF
:101140005F4121B9404502D19F4329EA0209BBEB27
:10115000175F00D0761C2088000502D57B487844B4
:1011600002E07A487844193808AA302302F80A3095
:10117000037C0AF10101002E0AF1020A53546A4667
:1011800002DC4FF0300101E04FF031014FF0010877
:101190008DF8001002D0A6F2FF3603E059EA4701AD
:1011A00000D06B4E002D02DC2178090704D54FF0EA
:1011B00002082E218DF80110C44600210BE0C7F370
:1011C00003433F01C35C491C6D1E02F8083005292A
:1011D00008F1010801DA002DF1DC00210CE000EB40
:1011E0001973491C1B786D1E082902F808304FEA54
:1011F000091908F1010801DA002DF0DC21688B06DD
:1012000002D516E0A8F10108E04505DD02EB080370
:1012100013F8013C302BF5D0B8F1000F09DD02EBDB
:10122000080313F8013C2E2B03D1090701D4A8F1C0
:101230000108002D05DD3E2102F808106D1E08F1A1
:101240000108407C002E02F8080008F1010804DAC9
:101250002D20764202F8080002E02B2002F8080058
:101260000A214FF47A70864208F101080BDB96FBE5
:10127000F0F3303302F8083096FBF0F308F1010880
:1012800000FB136601E0642E0CDB642096FBF0F398
:10129000303302F8083096FBF0F308F1010800FB48
:1012A000136601E00A2E06DB96FBF1F0303002F8FF
:1012B000080008F1010896FBF1F001FB10603030E6
:1012C00002F80800A16908F1010808EB050202EB29
:1012D0000A00081AA0612078C00602D42046FFF751
:1012E00049F8216A08AE01EB0A00206204E0D4E963
:1012F000012116F8010B9047BAF1010AF7D22078C4
:10130000C00602D52046FFF735F86E4609E016F80C
:10131000010B3E280FD0D4E901219047206A401CE0
:101320002062B8F10108F2D22046FFF739F809B07F
:101330000320BDE8F08F206A2844206203E0D4E94E
:101340000121302090476D1EEBD3F8E701320000F9
:1013500002FCFFFF10B5436913B1AFF3008001E059
:10136000FFF752FB012010BD128800F12401828496
:101370000022C2840122EDE711684FF0FF32E9E755
:10138000007B00F08000704770B516460C4605469D
:1013900000F040F8036893F80101012806D0FF2C03
:1013A0000FD8185D68B101202C7070BDD3F807010B
:1013B0003246214603F2071303442846BDE8704035
:1013C00018474FF0FF3070BD754600F0EBF8AE46A1
:1013D00005006946534620F00700854618B020B541
:1013E000FEF782FFBDE820404FF000064FF00007F7
:1013F0004FF000084FF0000B21F00701AC46ACE8BD
:10140000C009ACE8C009ACE8C009ACE8C0098D4629
:101410007047000010B500F005F8001D10BD00BFBA
:10142000912E000000487047C03300202DE9F041A4
:101430001F46044603260168072A01F4006004DB06
:1014400008B116A505E016A503E008B115A500E052
:1014500015A521F010002060A069C01EA0610FB189
:10146000401EA0612046FEF785FF4FB1D4E901215F
:1014700038469047206A401C2062C01C206206E06B
:10148000206AFAE7D4E9012115F8010B9047761E8E
:10149000F8D22046FEF784FFBDE8F0814E414E00B1
:1014A0006E616E00494E4600696E66002DE9F04798
:1014B000814616468AB0354878440DC88DE80D003F
:1014C00032487844801C03AC0DC884E80D0041F616
:1014D0009B300844372190FBF1F290FBF1F5A5F128
:1014E000800501FB12041B3C02D56442012000E090
:1014F0000020DFF898A080460027FA44AAF1BE0A2F
:101500000EE0E0070AD03246684607EB47010123A8
:101510000AEB810100F022FB8DE8070064107F1CBC
:10152000002CEED1194F7F44AE3F19E0E80715D0EB
:1015300007EB04100DF1180A90E80E008AE80E007F
:10154000C068F04201D1981908903246012306A9DB
:1015500003A800F003FB03AB83E807006D10641CD5
:10156000002DE3D14FF0010332466946B8F1000F78
:1015700003A802D000F0DDFA01E000F0EFFAC9E9BB
:101580000001C9F808200AB0BDE8F087382F000034
:1015900010B50446AFF300802046BDE81040FEF7CA
:1015A00042BE000000487047A03300204FF0013CCD
:1015B00050F8042B51F8043B9A4221D1A2EB0C03C2
:1015C000934313EACC1317D150F8042B51F8043B82
:1015D0009A4215D1A2EB0C03934313EACC130BD11F
:1015E00050F8042B51F8043B9A4209D1A2EB0C03AA
:1015F000934313EACC13DBD04FF00000704700BFD9
:10160000D01A01BAB1FA81F101F0180122FA01F001
:10161000CB40C1F12001DBB2C0B2C01A2CFA01F3F9
:10162000D11A914311EAC311E6D17047014918203C
:10163000ABBEFEE72600020070475FEA400C08BF21
:1016400091F0000F4FEA8C234FEAC12243EA515137
:101650004FEA1C5018BF00F5F0404FEA300018BFA9
:1016600041F000415FEA6C5C00F02980BCF1FF3F73
:1016700008BF40F080407047130C06BF12044FF0C3
:10168000100C4FF0000C130E04BF12020CF1080CEA
:10169000130F04BF12010CF1040C930F04BF92004E
:1016A0000CF1020CD30F04BF52000CF1010C1146D7
:1016B0004FF00002A0F11F00A0EB0C00704711F0EA
:1016C000004F08BF704731F000413FF4D5AF0B0C1D
:1016D00006BF09044FF0100C4FF0000C0B0E04BFB6
:1016E00009020CF1080C0B0F04BF09010CF1040CEA
:1016F0008B0F04BF89000CF1020CCB0F04BF490013
:101700000CF1010CCCF12003A0EB0C0022FA03F346
:1017100002FA0CF241EA030100F10100704720F0E7
:101720007F4C80EA030023F07F47ACEB070303F50F
:101730007C5300F0004003F1FF032DE980494FEA9C
:10174000154B09B44FEA144325EA0B4E24EA03482B
:101750000FF2042606EB132749083E785FEA3202AF
:1017600003FB0667C7F5000707FB06F64FEA543789
:101770004FEAD64606F1020607FB066CCCF1005C88
:101780004FEA1C472CEA074C07FB06F40CFB06F556
:1017900004EB15464FEA961634BF00204FF0004088
:1017A0004FEAD13706FB07FC4FEA1C4C0CFB0BF74A
:1017B000D21B03FB0CF761EB07010CFB0EF7B0EB40
:1017C000074072EB17420CFB08F734BFA2EB07424D
:1017D000B2EB074261EB17414FEA0C444FEA910725
:1017E00006FB07FC4FEA1C4C0CFB0BF7B0EBC740A9
:1017F00072EB573203FB0CF734BFA2EBC742B2EBDC
:10180000C74261EB57310CFB0EF7B0EBC70072EB30
:1018100057720CFB08F734BFA2EBC702B2EBC7024A
:1018200061EB5771039F4FEA816141EA921104EB2A
:10183000CC044FEAD1374FEA826206FB07FC42EA4A
:1018400090124FEA80604FEA1C4C0CFB0BF7D21B46
:1018500003FB0CF761EB07010CFB0EF7B0EB074045
:1018600072EB17420CFB08F734BFA2EB0742B2EB56
:10187000074261EB17414FEA8C554FEA910704EBA1
:101880009C2406FB07FC4FEA1C4C0CFB0BF7B0EB4F
:10189000C74072EB573203FB0CF734BFA2EBC742D1
:1018A000B2EBC74261EB57310CFB0EF7B0EBC70050
:1018B00072EB57720CFB08F734BFA2EBC702B2EB16
:1018C000C70261EB577115EB4C254FEA816141EA84
:1018D00092114FEA82624FEAD13742EA901206FB38
:1018E00007FC44F100044FEA80604FEA1C4C0CFBFB
:1018F0000BF7D21B03FB0CF761EB07010CFB0EF798
:10190000B0EB074072EB17420CFB08F734BFA2EBB9
:101910000742B2EB074261EB174115EB1C154FEA8A
:10192000813141EA92414FEA823242EA90424FEAE3
:1019300080304FEA0C7644F1000448EA03434EEA53
:101940000B484FF0000EB2EB080C71EB030724BFFD
:10195000624639464EEB0E0E4FF0000B0018524116
:1019600049414BEB0B0BB2EB080C71EB03077BF11E
:10197000000B24BF624639464EEB0E0E4FF0000BB3
:101980000018524149414BEB0B0BB2EB080C71EBC9
:1019900003077BF1000B24BF624639464EEB0E0E67
:1019A00051EA020718BF46F0010616EB0E7655F114
:1019B000000254F1000103D5BDE88901BDE80088AB
:1019C000BDE88901BDE80048B619524141EB01016B
:1019D000A3F10103704780807F7E7D7C7B7A7978DC
:1019E000777676757473727171706F6E6E6D6C6CE4
:1019F0006B6A6A6968686766666564646363626186
:101A00006160605F5F5E5E5D5D5C5C5B5B5A5A5906
:101A10005958585757565655555554545353525272
:101A20005251515050504F4F4F4E4E4D4D4D4C4CCA
:101A30004C4B4B4B4A4A4A49494948484847474713
:101A40004746464645454544444444434343434250
:101A5000424242414141002B9C4630D477002BD07A
:101A60001CB54FEA370703B44FF010004FF01001D8
:101A7000BAF1000F06D0BCF1000FDCBF40F0080047
:101A800040F008014FF000000FBCBDE810400BF122
:101A9000010BBBF1010F08BF5FEA170722BF12F16C
:101AA000010211F101014FF0004143F1000300F088
:101AB000004043EA00007047F9D35708D0E746EAF0
:101AC000064613F1400F4FEA16461FDD13F1200FB3
:101AD000DFBF16430A46002120335B42BED0C3F16C
:101AE000200746EA064602FA07F74FEA164646EA94
:101AF0000706C3F1200722FA03F201FA07F721FAD9
:101B000003F14FF0000342EA0702A7E746EA0206A4
:101B100046EA06464FEA164646EA0106BCBF46EAD2
:101B20000646360C4FF000034FF000024FF0000164
:101B300094E72DE9804C9A46934670B491E83800BA
:101B400007C831EA400C48BF34EA430C03D5FFF71D
:101B5000E6FDFFF780FFF0BCBDE8008C2DE9804C6E
:101B60009A46934670B491E8380007C810F0804F49
:101B700008BF13F0804F03D100F005F8FFF76BFFAB
:101B8000F0BCBDE8008C20F07F4780EA030023F022
:101B90007F4C07EB0C03A3F57C5300F00040A3F14E
:101BA000FE0392F0000F00F0B38095F0000F00F0FC
:101BB00077802DE901494FEA11404FEA144621EAA6
:101BC000004800FB06FC24EA064708FB06F607FB74
:101BD00008F800FB07F718EB06484CEB164C4FEAE9
:101BE000124B18EB07484FEA15464CEB174022EA18
:101BF0000B4E0BFB06FC25EA06470EFB06F607FB21
:101C00000EFE0BFB07F71EEB064E4CEB164C4FF08F
:101C100000061EEB074E4CEB174B18EB0B0840F180
:101C2000000018EB0E0B58EB000840F100008F1A73
:101C30004FF000013CBFC943661B14BFB5EB040C59
:101C400000213CBFC943F61B4FEA17444EEA8E0EF3
:101C500027EA04454FEA1C4704FB07622CEA074CBD
:101C600005FB07F70CFB05F604FB0CFC16EB07461F
:101C700042EB174216EB0C4642EB1C421BEB0606EE
:101C800058EB0202414146EA9E0601D5BDE80189B2
:101C9000B619524141EB0101A3F10103BDE80189ED
:101CA0004FEA14454FEA114724EA054621EA074C5A
:101CB00005FB07F406FB07F70CFB06F105FB0CFC24
:101CC00011EB074144EB17444FEA124711EB0C416B
:101CD00044EB1C4422EA074C05FB07F206FB07F71E
:101CE0000CFB06F605FB0CFC16EB074642EB174215
:101CF00016EB0C4642EB1C456A1854F1000148BF34
:101D00007047B619524141EB0101A3F1010370473D
:101D100095F0000F37D04FEA11424FEA144721EAFD
:101D2000024624EA074C02FB07F106FB07F70CFB0F
:101D300006F402FB0CFC14EB074441EB17414FEA9D
:101D4000154714EB0C4441EB1C4125EA074C02FB00
:101D500007F506FB07F70CFB06F602FB0CFC16EB7F
:101D6000074645EB174516EB0C4645EB1C4212198E
:101D700051F1000148BF7047B619524141EB0101D2
:101D8000A3F1010370474FEA14454FEA114724EAD3
:101D9000054621EA074C05FB07F106FB07F70CFB9C
:101DA00006F24FF0000605FB0CFC12EB074241EB7C
:101DB000174112EB0C4251EB1C4148BF704792187F
:101DC00041EB0101A3F101037047000010B5044687
:101DD0002CB900200E4988710E49C8700FE0012C03
:101DE00003D108200A49487104E0022C02D10C20DA
:101DF000074948710120064988710649C87006489C
:101E00000470034800F062F9024800F0F5FA10BDD2
:101E1000140000201C0000206D00002000BFFEE721
:101E200010B5002400F032FA04E0601CC4B20120B6
:101E300000F0E2F802210F4800F01DFA08B9642C06
:101E4000F3DB642C01DB002010BD002404E0601CE7
:101E5000C4B2012000F0D0F80221064800F00BFACD
:101E600008B1642CF3DB642C01DB0020ECE70120DB
:101E7000EAE70000000C014010B50121082000F045
:101E80000DFB0220064908801020C87001208870D0
:101E9000044800F065F900F06FF8FFF7C1FF10BDCE
:101EA00010010020000C014010B5002404E0601C6B
:101EB000C4B2012000F0A0F80221104800F0DBF9C4
:101EC00008B1642CF3DB002404E0601CC4B20120E0
:101ED00000F092F80221094800F0CDF908B9642C0D
:101EE000F3DB1E2000F088F80221044800F0C3F95B
:101EF00008B1012010BD0020FCE70000000C0140EB
:101F000070B50024002506E06006040EFFF7CCFF44
:101F10000443681CC5B2082DF6DB204670BD7CB5B5
:101F200005460E4600F028F8FFF77AFF01281FD17A
:101F3000002405E0FFF7E4FF0DF80400601CC4B2C4
:101F4000052CF7DB9DF800009DF8011008449DF872
:101F5000021008449DF8031008449DF804108842BC
:101F600008D19DF8000030709DF80200287001E053
:101F700000207CBD0120FCE710B500F093F90221A0
:101F8000094800F081F944F6206000F035F802219C
:101F9000054800F093F91E2000F02EF802210248B7
:101FA00000F072F910BD0000000C014010480068FC
:101FB00020F080700E4908600846006840F080708C
:101FC00008600C48006820F001000A4908600846D3
:101FD000006840F0010008600020486000BF00BFBA
:101FE00000BF0448406808B1002070470120FCE7AA
:101FF000FCED00E0001000E001B5074948680099D9
:1020000001EBC101C900009100BF03494968091AE9
:10201000009A9142F9D308BD001000E0704700001B
:1020200010B5102000F03EF870B318480078012871
:102030000AD117480078012802D1002015490880EC
:1020400002201249087018E010480078022814D1C4
:102050000F480078012806D10E48008840F400405F
:102060000C49088006E00A480078022802D10120C5
:102070000749087001200549087004480078FFF7F7
:10208000A5FE102000F008F810BD00006D00002033
:1020900060000020760000200149086070470000C1
:1020A00014040140014600200022074B1B6803EA8C
:1020B0000102054B14331B680B4013B10AB1012018
:1020C00000E0002070470000000401400021234987
:1020D0008279002A3AD00A46126803689A430B466E
:1020E0001A600A1D126803689A430B1D1A60027970
:1020F00011440A6803681A430A60184A08321268D1
:1021000003689A43154B08331A601A1D1268036856
:102110009A43124B0C331A604279102A0ED11A1FBF
:10212000126803681A430D4B08331A601A1D1268AF
:1021300003681A43094B0C331A600DE007494279D2
:1021400011440A6803681A430A6005E002791144E1
:102150000A6803689A430A6070470000000401405F
:102160002DE9F0410246002500260020002300242E
:10217000002791F803C00CF00F0591F803C00CF094
:10218000100CBCF1000F03D091F802C04CEA050519
:1021900091F800C0BCF1000F31D0146800202BE092
:1021A0004FF0010C0CFA00F3B1F800C00CEA030682
:1021B0009E4220D183004FF00F0C0CFA03F7BC4372
:1021C00005FA03FC4CEA040491F803C0BCF1280FA3
:1021D00006D14FF0010C0CFA00FCC2F814C00AE062
:1021E00091F803C0BCF1480F05D14FF0010C0CFA77
:1021F00000FCC2F810C0401C0828D1D31460B1F80C
:1022000000C0BCF1FF0F34DD546800202EE000F167
:10221000080C4FF0010808FA0CF3B1F800C00CEA02
:1022200003069E4221D183004FF00F0C0CFA03F7F6
:10223000BC4305FA03FC4CEA040491F803C0BCF16A
:10224000280F05D100F1080C08FA0CF8C2F8148028
:1022500091F803C0BCF1480F07D100F1080C4FF012
:10226000010808FA0CF8C2F81080401C0828CED3E8
:102270005460BDE8F0810246002093680B400BB12A
:10228000012000E0002070474161704710B5042034
:102290000249C8700248FFF763FF10BD100100201B
:1022A000000C014010B510200249C8700248FFF729
:1022B00057FF10BD10010020000C01400161704764
:1022C00000BFFEE7F0B587B0064600240220334980
:1022D00008703348C07968B9324632A13248FEF7F7
:1022E00033F8314931A001F099F92F4931A0FEF7B7
:1022F0001FF850E02A48C07901284CD130480088A6
:1023000085B2304807782A0A2046611C8CB22E49D3
:102310000A542046611C8CB22B490D5408460755BF
:10232000002406E02948015DE01C274A1154601C86
:1023300084B2052CF6D300240DE000BF40212448D0
:1023400000F0C6FA0028F9D01F48015D204800F0CF
:102350008CFB601C84B2082CEFD31B48C0791A494F
:102360008979194A5279184B1B79CDE90232CDE9A6
:1023700004101548C07814498978CDE90010124836
:102380004378027813A11948FDF7DEFF0F48007962
:10239000401C0E49087107B0F0BD0000600000202D
:1023A00008000020257300004601002025730D0A57
:1023B0000000000053656E64A3BA25730D0A000087
:1023C000680000206C00002028010020610000202F
:1023D0000048004025782025782025782025782081
:1023E0002578202578202578202578000E020020E9
:1023F00000BFFEE77047000070B5002100230F22E8
:10240000C47804B3154C246804F4E064C4F5E064B3
:10241000210AC1F10403CA40447804FA03F1847824
:102420001440214309010E4C0678A155047804F0AC
:102430001F050124AC4005786D11AD0005F1E025C4
:10244000C5F8004109E0047804F01F050124AC4000
:10245000044D0678761145F8264070BD0CED00E07D
:1024600000E400E080E100E002490143024A11601B
:10247000704700000000FA050CED00E029B1064AA3
:10248000D2690243044BDA6104E0034AD269824311
:10249000014BDA61704700000010024029B1064A82
:1024A00092690243044B9A6104E0034A92698243B1
:1024B000014B9A61704700000010024030B50021C6
:1024C0000022002400232D4D6D6805F00C0121B180
:1024D000042905D0082923D105E0294D056022E013
:1024E000274D05601FE0254D6D6805F47012234DE2
:1024F0006D6805F48034022505EB92421CB9214D2C
:10250000554305600BE01D4D6D6805F400351DB1A8
:102510001C4D5543056002E0194D5543056002E02E
:10252000174D056000BF00BF144D6D6805F0F00148
:102530000909154D6B5C0568DD4045600F4D6D6800
:1025400005F4E061090A104D6B5C4568DD4085606B
:102550000A4D6D6805F46051C90A0B4D6B5C456806
:10256000DD40C560054D6D6805F44041890B074DA0
:102570006B5CC568B5FBF3F5056130BD001002402A
:1025800000127A0000093D001401002024010020FF
:1025900010B500F001F810BD0CB5002001900090BE
:1025A0003348006840F480303149086000BF30484B
:1025B000006800F4003000900198401C01900098E1
:1025C00018B90198B0F5A06FF1D12948006800F45E
:1025D000003010B10120009001E000200090009830
:1025E000012843D12348006840F0100021490860C9
:1025F0000846006820F0070008600846006840F0C0
:10260000020008601A484068194948600846406856
:1026100048600846406840F480604860084640686A
:1026200020F47C1048600846406840F4E810486098
:102630000846006840F08070086000BF0C480068E1
:1026400000F000700028F9D00948406820F003002D
:10265000074948600846406840F00200486000BFF3
:102660000348406800F00C000828F9D10CBD0000B8
:10267000001002400020024010B500BFBF2080F3D0
:102680001188BFF34F8FBFF36F8F00BF01F0E2FBE4
:1026900018B14FF080500449086000BF002080F35B
:1026A000118800BF10BD000004ED00E010B5134814
:1026B000006840F001001149086008464068104970
:1026C00008400E494860084600680E4908400B491A
:1026D00008600846006820F48020086008464068CA
:1026E00020F4FE0048604FF41F008860FFF750FFA1
:1026F0004FF000600449086010BD00000010024067
:102700000000FFF8FFFFF6FE08ED00E010B5012124
:10271000880700F03EF880B108480088401C80B26D
:10272000064908804FF6FE71884202D10020034915
:1027300008800121880700F01DF810BD6E00002000
:1027400010B50121094800F024F868B101210748BB
:1027500000F010F80648008840F400400449088062
:102760000021024800F009F810BD000000040040FC
:1027700076000020CA430282704721B1028842F0ED
:102780000102028004E002884FF6FE731A400280C4
:10279000704730B50246002000230024158A05EA60
:1027A0000103958905EA010413B10CB1012000E091
:1027B000002030BD8184704710B540F225511D487E
:1027C00000F093F810B31B4800F04AF9C4B21A485D
:1027D000008800F40040C8B91748008800F4804021
:1027E00060B10A2C03D000201349088020E0124871
:1027F000008840F400401049088019E00D2C06D1F3
:102800000D48008840F480400B49088010E00A48D9
:102810000088C0F30D0009490C5407480088401C8B
:102820000549088008460088092801DD0020088045
:1028300010BD000000380140740000207A0800201C
:1028400010B540F22551174800F04FF810B3154865
:1028500000F006F9C4B21448008800F40040C8B97A
:1028600011480088B0F5806F15DA1048007850B92B
:1028700000210F48FFF79EFF0B48008818B901217F
:102880000B48FFF77AFF08490888411C064A118067
:1028900008490C5405E00448008840F4004002490F
:1028A000088010BD00480040760000206000002035
:1028B000000400402202002021B1828942F400522B
:1028C000828104E082894DF6FF731A40828170474D
:1028D00002460020B1F5007F00D100BF13880B40F5
:1028E0000BB1012000E00020704770B502460024C3
:1028F00000230025002040F66A16B14200D100BF37
:10290000C1F3421501F01F03012606FA03F3012D5E
:1029100002D19689334006E0022D02D1168A334057
:1029200001E0968A33400C12012606FA04F4168858
:10293000344013B10CB1012000E0002070BDF0B5AF
:102940000346002400260025002040F66A17B942FD
:1029500000D100BF1846C1F3421401F01F06012741
:1029600007FA06F5012C01D10C3004E0022C01D14C
:10297000103000E014301AB107682F43076002E0FE
:102980000768AF430760F0BD2DE9F04786B0054604
:102990000E460024A24600BFA1460027B08900B120
:1029A00000BF2F462C8A4CF6FF700440F088044389
:1029B0002C82AC894EF6F3100440B088318908436C
:1029C000718908430443AC81AC8A4FF6FF40044050
:1029D000B0890443AC8201A8FFF770FD1F4887420D
:1029E00002D1DDF810A001E0DDF80CA0A88900F408
:1029F000004040B10AEBCA0000EB0A103168490000
:102A0000B0FBF1F807E00AEBCA0000EB0A103168EE
:102A10008900B0FBF1F86420B8FBF0F00401200954
:102A2000642101FB1089A88900F4004040B13220E4
:102A300000EBC900B0FBF1F000F00700044308E030
:102A4000322000EB09106421B0FBF1F000F00F0020
:102A500004432C8106B0BDE8F08700000038014037
:102A600001468888C0F308007047C1F308028280DD
:102A7000704700BFFEE7490050EAC12018BF04209C
:102A80004A0D18BF40F0010040F2FF72B2EB515FF7
:102A900008BF40F00200012808BF05207047303809
:102AA0000A2801D201207047002070471CB516E0AB
:102AB00000F060FE0AA0FDF73BFC10480221002355
:102AC0008022CDE900100EA1104801F04FF900F06E
:102AD00063FE002000F0E2FE642000F0C5FEE7E7A0
:102AE000737461727420637265617465206D6169CD
:102AF0006E207461736B0D0A00000000B4090020A1
:102B000064683131207461736B000000112B000880
:102B100088B040F2153007901CE000200190009032
:102B200000F028FE694601A8FFF7F9F99DF800308A
:102B30009DF8042008A102A8FDF706FC02A8FFF7F3
:102B4000C1FB00F029FE00BF0748079901F042F9D8
:102B500000BF00BFE1E70000227431223A25642C57
:102B6000226831223A2564008800002000BF054A0F
:102B7000128802F04002002AF9D0C2B2014B1B1D9C
:102B80001A8070470038014000B58BB024221349E9
:102B900002A8FDF7EDFD11482430006801904FF4C4
:102BA000A060FFF761FC01A902A800F05FFDFFF73C
:102BB000FDF900F03BF8FFF75FF918B908A0FDF741
:102BC000B7FB02E00AA0FDF7B3FB0D48FFF714FACC
:102BD0000CA0FDF7ADFB0BB000BD0000E442000807
:102BE0004448543131206572726F720D0A00000042
:102BF0004448313120737563636573730D0A0000B7
:102C0000A0860100616C6C206861726477617265F6
:102C1000732066696E697368656420696E6974699A
:102C2000616C697A6174696F6E0D0A0008B50121E3
:102C30000820FFF733FC08488088ADF8000010201A
:102C40008DF8030003208DF80200034908686946E7
:102C5000FFF786FA08BD00000000002000F0C2FC6B
:102C600001E000F0D9FCFCE72DE9F04105460E46F5
:102C70002648076826480068001D00F030FD50B95E
:102C80002348006890F82C100120884021490968E9
:102C9000814320480160681CD8B9D6B11E494868F4
:102CA0001B49096888601A4982680968CA6018491E
:102CB0000968091D8268516015490968091D81600C
:102CC000154A134909684A6111460968491C11608F
:102CD0001AE07C190E4800684460BC4207D20C48D8
:102CE0000168091D0D48006800F01DFD0CE0084852
:102CF0000168091D0A48006800F015FD09480068D0
:102D0000844201D207480460BDE8F081B000002091
:102D10009C000020B4000020640B0020A4000020D0
:102D2000A0000020CC00002010B5044600F022FDD9
:102D300031480068401C304908603048006840B99C
:102D40002E4804600846006801280DD100F084F97F
:102D50000AE02B48006838B928480068C06AE16A70
:102D6000884201D82548046026480068401C25494F
:102D7000086008460068606494F82C1001208840C0
:102D800021490968084320490860E16A01EB810193
:102D90001E4A02EB81014868A0608268E260211D42
:102DA000826851608160E16A01EB8101174A02EBA0
:102DB00081026261E16A01EB8101144A52F821103B
:102DC000491CE26A02EB8202104B43F8221000F029
:102DD000E3FC0B48006868B108480068C06AE16A13
:102DE000884207D24FF0805009490860BFF34F8FE7
:102DF000BFF36F8F10BD0000AC0000209C000020CE
:102E0000B8000020C8000020B4000020D409002031
:102E100004ED00E010B500F0ADFC0C48006890B97E
:102E20000B4800F070FC0B4800F06DFC08480A49A4
:102E3000086008480949086000221021322000F08B
:102E40006DFE0249086000F0A7FC10BDE400002000
:102E5000780B00208C0B0020DC000020E00000201C
:102E600010B516E000F086FC0C48C068C468201D50
:102E700000F035FC0A480068401E0949086009480E
:102E80000068401E0749086000F086FC204600F0FC
:102E900020F8044800680028E4D110BD500B002041
:102EA000AC000020A800002070B504460D46206C40
:102EB00070B1216CE0680144E160D4E902108842FD
:102EC00001D32168E1602846226CE168FDF70BFC24
:102ED00070BD10B50446206B00F06EFC204600F07B
:102EE0006BFC10BD0146084A126812680AB901223B
:102EF00000E000220A600A6822B9034A1268D26818
:102F0000106800E000207047DC00002030B54FF46E
:102F10002053154800F007042CB1C01D20F0070015
:102F2000114C041B1B1B0246104C226000240F4D49
:102F30006C60D018083820F007000D4C2060002489
:102F40000B4D2D686C600A4D2D682C601146441A9B
:102F50004C60074C24680C60064D4C682C60064D94
:102F60004C682C6030BD0000A00B0020F000002059
:102F7000F800002000010020FC00002000BFFFF747
:102F80006FFF064800680128F9D94FF080500449C6
:102F90000860BFF34F8FBFF36F8FF0E7D4090020B5
:102FA00004ED00E02DE9F04106460D46174698462F
:102FB000069C0DB9246000E02760E66325640121CA
:102FC000204600F0D1FD84F84C80BDE8F0812DE969
:102FD000F05F81460E4617469A46DDF828800C9C25
:102FE000B900A522206BFDF7F5FB781E216B01EBE4
:102FF000800B2BF0070B7EB1002507E0715D04F11B
:1030000034004155705D00B902E06D1C102DF5D300
:1030100000BF002143200155B8F1100F01D34FF03C
:103020000F08C4F82C80201D00F07AFB04F1180072
:1030300000F076FB2461C8F11000A0616462524682
:103040004946584600F0BCFA20600B9808B10B982E
:103050000460BDE8F09F000010B5002407E004EB19
:1030600084010F4A02EB810000F04DFB641C102C20
:10307000F5D30C4800F047FB0B4800F044FB0B482D
:1030800000F041FB0A4800F03EFB0A4800F03BFB21
:1030900004480949086004480849086010BD000058
:1030A000D4090020140B0020280B00203C0B00202A
:1030B000500B0020640B0020A0000020A400002082
:1030C00010B50146164800E0006803688B42FBD348
:1030D0000246436813448B4204D143684C6823443E
:1030E000436001460A464B6813440468A34211D169
:1030F0000C4C03682468A34208D04B6804686468D9
:1031000023444B6003681B680B6005E0054B1B689C
:103110000B6001E003680B60884200D0016010BDC5
:10312000F0000020F80000202DE9F04104460D4693
:1031300016461F464FF0000865602461B5420CD862
:10314000F01BA169884202D34FF0010811E0211D54
:103150000948006800F0E7FA0BE0BE4204D2BD4225
:1031600002D34FF0010804E0211D0448006800F07C
:10317000DAFA4046BDE8F081E0000020DC000020E3
:1031800070B5054600F0F6FAA86B08B9012400E016
:10319000002400F001FB204670BD000070B505461C
:1031A0000E460E480068C068C468201D00F097FAFB
:1031B00094F8280000F0040028B132462946204641
:1031C00000F0D0F805E094F8280000F0FE0084F844
:1031D00028002046216A884770BD0000DC000020DE
:1031E00070B586B077E00298002805DA03AED6E91C
:1031F0000020B168904700BF029800286BDB049C58
:10320000606908B9012000E0002010B9201D00F01D
:1032100066FA01A800F0D2F8054602980A2858D2AA
:10322000DFE800F05705072E364706082F3700BFA6
:1032300000BF00BF94F8280040F0010084F8280087
:103240000398A269811803462A462046FFF76CFFBF
:10325000A8B194F8280000F0040038B10398A269DE
:1032600081182A46204600F07DF805E094F82800F1
:1032700000F0FE0084F828002046216A884729E0F3
:1032800000BF94F8280000F0FE0084F8280021E038
:1032900000BF94F8280040F0010084F8280003984B
:1032A000A061A06941192B462A462046FFF73CFF42
:1032B00010E094F8280000F0020018B9204600F051
:1032C0007BFA05E094F8280000F0FE0084F828005E
:1032D00000E000BF00BF002202A90448006800F01F
:1032E00093FC00287FF47FAF06B070BDE40000209F
:1032F000F8B505460C4600F0BFFB684600F05EF8E6
:103300000646009820BB44B9B54206D800F0EEFE50
:1033100031462846FFF742FF1CE03CB10E480068EA
:10332000006808B9012000E000200446A91B2246DD
:103330000A48006800F072FA00F0D8FE50B94FF069
:10334000805007490860BFF34F8FBFF36F8F01E0D4
:1033500000F0CCFEF8BD0000E0000020E4000020FA
:1033600004ED00E070B504460D46164604E0A06981
:1033700005442046216A8847A06941192B463246F8
:103380002046FFF7D1FE0028F1D170BD0948006842
:10339000006808B9012000E0002020B14FF0FF30A4
:1033A0000549086005E003480068C06800680249F4
:1033B00008607047A0000020CC00002070B50446D3
:1033C00000F042FD054607480068854204D200F03F
:1033D0000BF80120206001E000202060014805601A
:1033E000284670BDEC00002070B508E00D4800686C
:1033F000C06804684FF0FF312046FFF7CFFE094850
:103400000068006808B9012000E000200028EDD025
:1034100004480568044800680249086002480560DD
:1034200070BD0000DC000020E000002000BFBF20D5
:1034300080F31188BFF34F8FBFF36F8F00BF00BFC2
:10344000FEE708B500BF6846FFF74CFD044620467E
:103450000099FFF74DFFFFF7C3FEF4E770B5044690
:1034600000F088F994F9455010E0606A08B901202D
:1034700000E0002038B904F1240000F0B3FD18B1D9
:1034800000F082FA00E003E0681E45B2002DECDC9B
:1034900000BFFF2084F8450000F07EF900F06AF9D3
:1034A00094F9445010E0206908B9012000E00020A0
:1034B00048B904F1100000F095FD08B100F064FA7D
:1034C000681E45B200E001E0002DECDC00BFFF20EB
:1034D00084F8440000F060F970BD00002DE9F04769
:1034E00005464FF0000900F0C7FA3048006808B9F7
:1034F000FFF70CFD75B105F00700C0F11008C8F129
:10350000FF30A84201D2012000E0002008B9454464
:1035100000E00025012000EBE570002841D0002DDF
:103520003FD02348006885423BD8224E304604688D
:1035300001E0264624686068A84202D2206800287C
:10354000F7D11A48006884422BD0306800F108098E
:10355000206830606068401B102807D967196068D0
:10356000401B786065603846FFF7AAFD1049606827
:103570000968081A0E490860084600680E4909687B
:10358000884203D20A4800680B490860606840F02E
:10359000004060600020206008480068401C074927
:1035A000086000F0A3FD4846BDE8F087F800002061
:1035B000FC000020F0000020000100200401002099
:1035C000001F4FF080730360001F21F001030360B0
:1035D000001F034B0360143802602038704700005E
:1035E0002D3400081CB5FFF7CFFA0648022100234E
:1035F0000A02CDE9001004A1064800F0B7FB00F074
:10360000FFF91CBDAC0900206372656174655461EB
:10361000736B0000AD2A0008704700000FB438B586
:1036200005A800900F48009A0499FCF76FFE00204F
:1036300000900C48FDF738F885B200240DE000BF7B
:1036400040210948FFF744F90028F9D00548015DF9
:103650000548FFF70AFA601C84B2AC42EFDB38BCC5
:103660005DF814FB220600200048004038B50446EF
:103670000D46A06818B10121A068FEF7FFFE606842
:1036800018B101216068FEF709FF608AADF80000FB
:1036900018208DF8030003208DF802006946E068C9
:1036A000FEF75EFD208AADF8000004208DF80300CF
:1036B0006946E068FEF754FD04F114012068FFF745
:1036C00063F901212068FFF7F7F8012240F2255144
:1036D0002068FFF734F92846FEF78EFE38BD014614
:1036E0000A69D1E901309860D1E901035860506856
:1036F000884201D188685060002008611068401E2F
:1037000010601068704700F1080141604FF0FF3110
:10371000816000F10801C160016100210160704712
:1037200000210161704710B502460B685C1C0CB9A2
:10373000106907E002F1080000E04068446824686E
:103740009C42FAD944684C604C68A1608860416032
:103750000A611468641C146010BD42684A60936872
:103760008B60936859609160086103685B1C03601B
:103770007047000000BFBF2080F31188BFF34F8F58
:10378000BFF36F8F00BF03480068401C0149086009
:10379000704700000C01002006480068401E0549E3
:1037A00008600846006820B9002080F3118800BF37
:1037B00000BF70470C01002070B506463546E6B1E3
:1037C000083D2C466068C00FB8B12068A8B9606891
:1037D00020F00040606000F04FF908496068096817
:1037E0000844064908602046FFF76AFC0448006860
:1037F000401C0349086000F079FC70BDFC0000200B
:103800000801002000204FF0E02108618861024893
:1038100048610720086170473F1901002DE9F04118
:1038200005460E4617462C46FFF7A4FF94F94400C0
:10383000401C10B9002084F8440094F94500401C55
:1038400010B9002084F84500FFF7A6FFA06B28B947
:103850003A46314604F1240000F0ACF82046FFF768
:10386000FDFDBDE8F081000070B50446002544B1BF
:1038700000F002F900212046FFF7F6F900F036FCCF
:1038800005463DB94FF0805003490860BFF34F8FA4
:10389000BFF36F8F70BD000004ED00E070B505460A
:1038A000FFF768FF15B92948006800E0284604467C
:1038B000201DFFF714FF78B9E06A00EB800024496F
:1038C00051F8200040B994F82C100120884021497B
:1038D000096881431F480160A06A18B104F118000B
:1038E000FFF7FDFE1C480068401C1B490860174894
:1038F0000068844209D1211D1848FFF72EFF18489F
:103900000068401C1649086006E016480068401E22
:1039100014490860FFF73AFDFFF73EFF0B480068C7
:10392000844202D02046FFF7D4FA0F48006858B10D
:1039300006480068844207D14FF080500B49086068
:10394000BFF34F8FBFF36F8F70BD00009C0000204E
:10395000D4090020B4000020C8000020500B002033
:10396000A8000020AC000020B800002004ED00E01A
:103970000349096801600349096841607047000014
:10398000C4000020B00000200120014908607047F9
:10399000C000002070B505460C4605480168183186
:1039A0002846FFF7C0FE01212046FFF75DF970BDF4
:1039B0009C00002070B504460E46154660680F490D
:1039C0000968C8610D49826809680A620B4909687B
:1039D00018318268516009490968183181600749C6
:1039E00009688C622168491C21600DB14FF0FF36D7
:1039F00029463046FFF738F970BD00009C000020D2
:103A00001CB5154800210B468022CDE9001013A1FA
:103A1000144800F0ABF90446012C02D100F014FC6C
:103A20000446012C14D100BFBF2080F31188BFF3DE
:103A30004F8FBFF36F8F00BF4FF0FF300A49086010
:103A400001200A49086000200949086000F04CF88C
:103A5000084800681CBD0000D000002049444C45C7
:103A6000000000007D2F0008CC000020B8000020DE
:103A7000B0000020D400002002480068401C01492A
:103A800008607047D80000201248006818B1012073
:103A9000114908601DE000200F4908600F480068C8
:103AA000B0FA80F0C0F11F0101EB81020C4B03EB77
:103AB000820042685268426000F108024368934203
:103AC00002D14268526842604268D268054B1A606F
:103AD00000BF7047D8000020C0000020B4000020C4
:103AE000D40900209C00002010B50A48006840F46A
:103AF0007F00084908600846006840F07F40086081
:103B0000FFF780FE002004490860FCF7A5FB0020B9
:103B100010BD000020ED00E00C0100202DE9F8436D
:103B200004460E4617460025DCB1681EB0FBF4F0D3
:103B3000B04216D304FB06F010F1510F11D804FB6C
:103B400006F909F15000FFF7C9FC05464DB1A8463A
:103B500008F150083B464246314620460095FFF7A3
:103B600021FA2846BDE8F8832DE9F04105460E46C6
:103B700001272C46002C41D0E06B00283ED0B91E16
:103B8000E06BB1FBF0F0216C884237D3FFF7F2FD18
:103B9000D4E90F12206801FB0200A0600020A0639E
:103BA00020686060E06B401E226C216800FB0211FF
:103BB000E160FF2084F8440084F845009EB9206944
:103BC00008B9012000E00020A8B904F1100000F0BD
:103BD00009FA80B14FF080500A490860BFF34F8F57
:103BE000BFF36F8F07E004F11000FFF78CFD04F1C5
:103BF0002400FFF788FDFFF7CFFD00E000273846DF
:103C0000BDE8F08104ED00E02DE9F74183B0054601
:103C10000F464FF000082C4600BFFFF7ABFDA66B28
:103C2000F6B139462046FFF73FF9701EA0632069C0
:103C300008B9012000E0002060B904F1100000F094
:103C4000D1F938B14FF080502F490860BFF34F8F42
:103C5000BFF36F8FFFF7A0FD012006B0BDE8F08134
:103C6000059818B9FFF798FD0020F6E7B8F1000FA6
:103C700004D101A8FFF77CFE4FF00108FFF78CFD8F
:103C8000FFF7FAFEFFF776FD94F94400401C10B9E7
:103C9000002084F8440094F94500401C10B900202D
:103CA00084F84500FFF778FD05A901A800F02EF87B
:103CB000F0B92046FFF764FAA0B104F12400059999
:103CC000FFF768FE2046FFF7C9FB00F00FFA002857
:103CD000A3D14FF080500C490860BFF34F8FBFF362
:103CE0006F8F9AE72046FFF7B9FB00F0FFF994E7E2
:103CF0002046FFF7B3FB00F0F9F92046FFF740FA42
:103D000000288AD00020A8E704ED00E070B5064640
:103D10000C46FFF72FFD134802687068131A2068DD
:103D2000401C08B9002519E00F493068096888422D
:103D300006D07068904203D80125002020600DE075
:103D40002068984207D92068C01A20603046FFF7E3
:103D50000FFE002502E0002020600125FFF71CFD7A
:103D6000284670BDB0000020C40000202DE9FF4FA0
:103D700085B0804689461746DDE912ABB800FFF7EB
:103D8000ADFB064676B15420FFF7A8FB04462CB1E4
:103D900054212046FCF748FD266304E03046FFF737
:103DA0000BFD00E000247CB10020CDE900ABCDE9A3
:103DB00002403A4649464046089BFFF708F920462C
:103DC000FEF7B2FF012501E04FF0FF35284609B0AC
:103DD000BDE8F08F2DE9F047044688464FF0000912
:103DE000FFF74AFE16480668206800EB08052068C1
:103DF000B04207D92068A8420BD9B54209D94FF083
:103E0000010906E02068A84201D8B54201D94FF067
:103E100001092560B9F1000F03D0A81B0021FEF7AE
:103E200023FF00F063F907463FB94FF08050054982
:103E30000860BFF34F8FBFF36F8F4846BDE8F08730
:103E4000B000002004ED00E0014908687047000060
:103E5000B00000202DE9F0410027574800680028F5
:103E60007ED156480068451C544805608DB95448B9
:103E7000D0F8008053480068514908605148C0F8A4
:103E8000008051480068401C4F490860FFF77EFAE7
:103E900000BF4E480068854276D300BF484800689E
:103EA000006808B9012000E0002020B14FF0FF3089
:103EB0004649086067E042480068C068C4686668B0
:103EC000B54202D2414806605DE06069D4E9021261
:103ED0008A60D4E902214A60211D42688A4201D1E8
:103EE000E1684160002262610168491E0160A06AC8
:103EF00098B1A06AD4E907128A60D4E907214A6020
:103F000004F1180142688A4201D1216A416000220D
:103F1000A2620168491E016000BF94F82C100120C4
:103F200088402B490968084329490860E16A01EB88
:103F30008101284A02EB81014868A0608268E26042
:103F4000211D826851608160E16A01EB8101214A93
:103F500002EB81026261E16A01EB81011D4A00E02E
:103F600022E052F82110491CE26A02EB8202194B4E
:103F700043F822101849E06A0968C96A88428DD955
:103F800001278BE700E000BF13480068C06A00EB20
:103F90008000104951F82000012800D901270F485E
:103FA000006800B1012704E00D480068401C0C497E
:103FB00008603846BDE8F081D8000020B00000203D
:103FC000A0000020A4000020C4000020CC0000209D
:103FD000B4000020D40900209C000020C000002074
:103FE000BC00002070B50346D868C168886AD1E972
:103FF0000745A560D1E90754656001F118044568DB
:10400000A54201D10C6A446000258D620468641EDB
:1040100004603048006800283DD14869D1E9024574
:10402000A560D1E9025465600C1D4568A54201D127
:10403000CC68446000254D610468641E046091F8FA
:104040002C400120A040244C24682043224C2060B6
:10405000CC6A04EB8404214D05EB8404606888601D
:104060008568CD600C1D85686C608460CC6A04EB4B
:1040700084041A4D05EB84054D61CC6A04EB84047D
:10408000164D55F82440641CCD6A05EB8505134E8A
:1040900046F8254010E0124C6068C86185680D62E2
:1040A00001F1180485686C6084600D4D8D622C46AA
:1040B0002468641C2C6000BF0A4CC86A2468E46A47
:1040C000A04204D901220120074C206000E0002218
:1040D000104670BDD8000020B4000020D409002094
:1040E0003C0B00209C000020C000002070B5002484
:1040F0000026FFF73FFB4B480068401E4949086017
:104100000846006800287DD147480068002879D01B
:104110005BE04648C068C468A06AD4E907128A60B8
:10412000D4E907214A6004F1180142688A4201D1AA
:10413000216A41600022A2620168491E0160606933
:10414000D4E902128A60D4E902214A60211D426842
:104150008A4201D1E1684160002262610168491E22
:10416000016094F82C100120884031490968084307
:104170002F490860E16A01EB81012E4A02EB8101BF
:104180004868A0608268E260211D82685160816099
:10419000E16A01EB8101274A02EB81026261E16A77
:1041A00001EB8101234A52F82110491CE26A02EB1B
:1041B0008202204B43F822101F49E06A0968C96A4D
:1041C000884202D301201D4908601848006808B9D8
:1041D000012000E0002000289BD00CB1FFF7D6F8AA
:1041E0001748056865B100BFFFF734FE10B1012024
:1041F000124908606D1E002DF6D10020104908609C
:104200000E4800E009E0006838B1012630070D498A
:104210000860BFF34F8FBFF36F8FFFF7BDFA3046D3
:1042200070BD0000D8000020AC0000203C0B002036
:10423000B4000020D40900209C000020C000002011
:10424000BC00002004ED00E01CB50024FEF7E2FDF8
:104250000748006850B10748322100230A46CDE9DB
:10426000001005A10648FFF781FD044620461CBD4D
:10427000E4000020E8000020546D722053766300B3
:104280004334000810B500290AD00878002807D068
:1042900005487844FDF78AF9002801D0002010BDB8
:1042A0000248784410BD00009A010000920100000D
:1042B00010B500290AD00878002807D005487844AE
:1042C000FDF774F9002801D0002010BD02487844A1
:1042D00010BD00008A01000082010000FCF786BDCD
:1042E000FCF7BABE003801400440000000000000A6
:1042F000000801400004000200C2010000000000AC
:1043000000000C00000000002503030130313233AF
:1043100034353637383941424344454640305800F9
:10432000303132333435363738396162636465662B
:104330004030780004000008000000000000000287
:10434000000100001000000000000000000000005C
:1043500030313233343536373839616263646566FB
:104360007870003031323334353637383941424392
:10437000444546585000000002400000000000A0E4
:104380000000000005400000000000C80000000020
:104390000C4000000000409C00000000194000009C
:1043A0000020BCBE0000000034400000BFC91B8ECE
:1043B00000000004B5400000504BCFD06607E2CFAC
:1043C000010000006C4100003E8251AADFEEA734DC
:1043D00001000000D9420000DCB5A0E23A301F978E
:1043E000FFFFFFFFB4450000FD25A0C8E9A3C14FB2
:1043F000FFFFFFFFFF3F0000000000800000000003
:10440000FF3F000000000080000000005845000849
:104410000000002028010000280100088046000854
:1044200028010020D8380000440100081C000000CA
:1044300043000000F8FFFFFF0C0000000E0000002A
:104440000F0000002E0000001001000043000000DB
:10445000F8FFFFFF004040404040404040404141A5
:104460004141414040404040404040404040404049
:1044700040404040400502020202020202020202E3
:1044800002020202022020202020202020202002E0
:104490000202020202029090909090901010101070
:1044A000101010101010101010101010101010100C
:1044B00002020202020288888888888808080808A0
:1044C000080808080808080808080808080808086C
:1044D0000202020240000000000000000000000094
:1044E00000000000000000000000000000000000CC
:1044F00000000000000000000000000000000000BC
:1045000000000000000000000000000000000000AB
:10451000000000000000000000000000000000009B
:10452000000000000000000000000000000000008B
:10453000000000000000000000000000000000007B
:10454000000000000000000000000000000000006B
:104550000000000000000000000C014060000000AE
:104560000000170305000000030000000000000029
:1045700000000000000000000048004008000000AB
:1045800000000400000C01400008000400C201000B
:104590000000000000000C000000000027020301E2
:1045A00000040040020000001F1C00006300000027
:1045B000000000001D0102010011223344550000DB
:1045C00000000000000000000000000000000000EB
:1045D00000000000000000000000000000000000DB
:1045E00000000000000000000000000000000000CB
:1045F00000000000000000000000000000000000BB
:1046000000000000000000000000000000000000AA
:10461000000000000000000000000000000000009A
:104620000000000000000000000000000F0000007B
:10463000000000000000000000000000000000007A
:10464000000000000000000000000000000000006A
:10465000000000000000000000000000000000005A
:1046600000000000AAAAAAAA0000000000000000A2
:1046700001020304010203040607080902040608F4
:04000005080000ED02
:00000001FF
