:020000040800F2
:10000000380F002011030008B123000891210008D7
:10001000AD230008E91D0008072D000800000000BE
:10002000000000000000000000000000790200084D
:100030005D1E000800000000BD02000855280008F1
:100040002B0300082B0300082B0300082B030008D8
:100050002B0300082B0300082B0300082B030008C8
:100060002B0300082B030008611E00082B03000867
:100070002B0300082B0300082B0300082B030008A8
:100080002B0300082B0300082B0300082B03000898
:100090002B0300082B0300082B0300082B03000888
:1000A0002B0300082B0300082B0300082B03000878
:1000B000E92800081D2900082B0300082B0300086D
:1000C0002B0300082B0300082B0300082B03000858
:1000D0002B0300084D2A00082B030008D52A00082E
:1000E0002B0300082B0300082B0300082B03000838
:1000F0002B0300082B0300082B0300082B03000828
:100100002B0300082B0300082B0300082B03000817
:100110002B0300082B0300082B0300082B03000807
:100120002B0300082B0300082B0300082B030008F7
:1001300000F002F800F090F80AA090E8000C824469
:100140008344AAF10107DA4501D100F085F8AFF246
:10015000090EBAE80F0013F0010F18BFFB1A43F0A5
:100160000103184790350000B0350000103A24BF55
:1001700078C878C1FAD8520724BF30C830C144BF0C
:1001800004680C607047000000230024002500264E
:10019000103A28BF78C1FBD8520728BF30C148BFEA
:1001A0000B6070476E2900F0BB83702900F0CF818F
:1001B000662903F00782652903F00482672903F0AA
:1001C0000182612903F0008203681B0A28BF41F005
:1001D0008001692900F04081642900F03D81752982
:1001E00000F03A816F2900F0B284782900F09B81F9
:1001F000E92900F04D84E42900F04A84F52900F053
:100200004784EF2900F0AF84F82900F09A81036851
:10021000DB0928BF41F08001632900F0BC8373290A
:1002200000F0C183E32901F08580F32901F08A8081
:10023000002070471FB501F0DBF80400002000210A
:1002400003F0AAF9401C60600020002103F08EF941
:10025000E0601FBD10B510BD01F09CF81146FFF71E
:10026000E9FF02F065FF01F079F903B4FFF7F2FF4F
:1002700003BC01F0C1F90000224B19680868B0E81E
:10028000F00F80F30988BFF36F8F4FF0000080F309
:1002900011884EF00D0E70470000000006480068FF
:1002A000006880F3088862B661B6BFF34F8FBFF372
:1002B0006F8F00DF00BF00BF08ED00E0EFF30980A3
:1002C000BFF36F8F0F4B1A6820E9F00F106008B56D
:1002D0004FF0BF0080F31188BFF34F8FBFF36F8FD4
:1002E00003F04CF84FF0000080F31188BDE808409F
:1002F00019680868B0E8F00F80F30988BFF36F8FC2
:10030000704700BF7C000020EFF3058070470000BD
:100310000948804709480047FEE7FEE7FEE7FEE799
:10032000FEE7FEE7FEE7FEE7FEE7FEE704480549D5
:10033000054A064B70470000892800083101000873
:1003400038090020380F0020380B0020380B00201F
:100350001CB50C46064B7B4469460090204600F0D5
:10036000F8FA04460020694600F006FB20461CBD52
:100370001F0600000FB4044910B503AA029800F04C
:1003800017FB10BC5DF814FB700000200FB41CB507
:10039000084B06AA7B4469460090059800F0D9FAFC
:1003A00004460020694600F0E7FA20461CBC5DF8D0
:1003B00014FB0000E105000070B504468569006883
:1003C000C10601D5302600E02026C00707D070BD49
:1003D000D4E9012130469047206A401C20626D1EFE
:1003E000F6D570BD70B5044685690078C00707D1A1
:1003F00070BDD4E9012120209047206A401C206272
:100400006D1EF6D570BD70B50C460546012A05D0A7
:100410002878800600D5EA69002302E0012305E080
:100420005B1C934202D2E05C0028F9D1A869E6186F
:10043000C01AA861286A184428622846FFF7BCFF42
:1004400004E0D5E9012114F8010B9047B442F8D338
:100450002846FFF7C7FF70BD2DE9F041064600248E
:1004600010687529314616A510D000F0EEF9002865
:1004700002DA404213A507E031688A0701D512A5C8
:1004800002E0490704D511A5012401E000F0E6F9D6
:1004900000210A2206F1240709E0B0FBF2FCB0FBC0
:1004A000F2F302FB1C00303078541846491C002837
:1004B000F3D123462A463046BDE8F04100F0D7B9D3
:1004C000000000002D0000002B00000020000000B4
:1004D000F0B40D460188090502D5214C7C4402E0A8
:1004E0001F4C7C440E34002100F1240608E002F089
:1004F0000F071209E75D42EA03721B097754491C92
:1005000052EA0307F3D102780023120704D5702DB5
:1005100006D009B1022311342246F0BC00F0A7B97D
:1005200001231034F8E770B504460D4621461068E3
:1005300000F094F9024629462046BDE870400023A9
:10054000C6E7D21D22F00703D3E90023C0E7036802
:10055000126843F0200303600823C3610023B7E758
:10056000143100002DE9F05F894604464FF0000A7F
:10057000DFF874B1FB44C0F820A02046E16888474A
:10058000002874D0252806D0D4E901219047206A9C
:10059000401C2062F1E700265F462046E16888475C
:1005A0002028054607DB312D05D2781910F8200CDC
:1005B00008B10643F1E7B00701D526F00406C4F8F8
:1005C0001CA00027C4F818A02A2D09D0284602F044
:1005D000B0FB38B304EB8708303DC8F8185019E079
:1005E00059F8041B204604EB87029161E1688847B3
:1005F000012F054618D1E069002820DA26F02006F0
:100600001DE0D8F8180000EB800005EB4000303802
:10061000C8F818002046E1688847054602F089FBC3
:100620000028EED1012F0AD02E2D08D12046E168F6
:1006300088477F1C0546022F46F02006C4DBA069D0
:10064000002803DA404246F00106A061F00701D01D
:1006500026F010066C2D0BD0682D09D04C2D39D00A
:100660006A2D35D0742D35D07A2D33D016E038E090
:10067000E1682F4620468847B842054609D16C2FCD
:1006800026D04FF48060E16806432046884705463F
:1006900004E06C2F1AD04FF4807006430DB3A5F11F
:1006A0004100192802D8203546F400664A462946FA
:1006B000204626604E46FFF775FD80B101280BD01D
:1006C000F61D26F0070000F1080956E74020E4E790
:1006D0008020D8E70020D6E706F104094DE7284638
:1006E00052E7206ABDE8F09FA430000030B505460F
:1006F0000B462A4613F8014B12F8010B08B1A04231
:10070000F8D01CB1002802D06D1CF1E7284630BD9E
:1007100010B5431C02E010F8011B71B18107FAD13A
:100720004FF0013202C88C1A8C4314EAC211F9D07E
:10073000C01A0A0603D0C01E10BDC01A10BD0A049C
:1007400001D0801E10BD0902FCD0401E10BD10B5A6
:10075000203AC0F00B80B1E81850203AA0E81850B9
:10076000B1E81850A0E81850BFF4F5AF5FEA027C7A
:1007700024BFB1E81850A0E8185044BF18C918C0E9
:10078000BDE810405FEA827C24BF51F8043B40F88A
:10079000043B08BF7047D20728BF31F8023B48BF6F
:1007A00011F8012B28BF20F8023B48BF00F8012BAD
:1007B00070474FF000020429C0F0128010F0030CC3
:1007C00000F01B80CCF1040CBCF1020F18BF00F844
:1007D000012BA8BF20F8022BA1EB0C0100F00DB8F3
:1007E0005FEAC17C24BF00F8012B00F8012B48BF51
:1007F00000F8012B70474FF0000200B513469446F5
:100800009646203922BFA0E80C50A0E80C50B1F168
:100810002001BFF4F7AF090728BFA0E80C5048BF7C
:100820000CC05DF804EB890028BF40F8042B08BF1A
:10083000704748BF20F8022B11F0804F18BF00F816
:10084000012B704770477047704709684A0501D50A
:1008500040B27047C905FCD500B2704709684A0527
:1008600001D5C0B27047C905FCD580B270472DE9EB
:10087000F0470D4699469246044600F12408016867
:10088000880604D5E06921F01001216000E0012014
:10089000A84201DD471B00E00027A1697A1902EB9D
:1008A0000900081AA0612078C00602D42046FFF78C
:1008B00083FD002608E0D4E901211AF806009047DC
:1008C000206A401C761C20624E45F4DB2078C0066E
:1008D0000AD52046FFF770FD06E0D4E9012130205B
:1008E0009047206A401C2062381EA7F10107F4DC03
:1008F00007E0D4E9012118F805009047206A401C60
:100900002062281EA5F10105F3DC2046FFF76AFDF1
:100910002078000602D50220BDE8F0870120FBE721
:1009200011680268006A530501D508700AE0D30512
:1009300001D5088006E0130603D5C217C1E90002FD
:1009400000E008600120704701694A1C02610878D4
:10095000704700B58FB0CDE90131002105910549FF
:100960007944CDE9031011466846FFF7FBFD0FB04F
:1009700000BD0000E5FFFFFF0A6802F8010B0A60F6
:10098000704710B5436913B1AFF3008001E0FFF782
:100990003AFD012010BD127800F124010A700022F6
:1009A0004A700122EDE711684FF0FF32E9E70000DD
:1009B000074B70B50D467B44FFF7CBFF0446284636
:1009C00000F0C4FC10B14FF0FF3070BD204670BD88
:1009D000EF2400002DE9FF5F15468A460446DFF844
:1009E000AC80F8440027D8E900103E46CDE900105D
:1009F00010E03AF816106A4602A800F0ABFC411C61
:100A000007D02178890603D5E269391891420DD8BB
:100A10000744761C2078800602D5E069B84205DDDF
:100A2000AE42E6DB3AF816000028E2D1A069C01B0E
:100A3000A0612046FFF7C0FCD8E90010CDE9001006
:100A4000002017E03AF818106A4602A800F082FC6D
:100A5000B0F1FF3F81460BD000250DF1080B05E0FA
:100A6000D4E901211BF8050090476D1C4D45F7D3D3
:100A700008F10100B0428046E4DB206A384420627D
:100A80002046FFF7AFFCBDE8FF9F00004A2C0000A6
:100A90002DE9F0418046D21D22F007020025D2E95F
:100AA0000002F52915A614D0011E72F1000106DA24
:100AB0000023D0EB030063EB020211A608E0D8F894
:100AC00000108B0701D50FA602E0490701D50EA63D
:100AD00001251146002408F1240704E000F04EF837
:100AE00030323A55641C50EA0102F7D12B463246A7
:100AF00021464046BDE8F041FFF7B9BE00000000C6
:100B00002D0000002B0000002000000030B4002168
:100B100000F1240408E002F00705D208303542EA6B
:100B20004372DB086554491C52EA0305F3D104689B
:100B3000002310A2250707D5A40600D421B1C4695B
:100B400001230DA2641EC46130BCFFF790BE10B536
:100B5000044621461068FFF781FE02462046BDE8A4
:100B600010400023D2E7D21D22F00701D1E9002373
:100B7000CCE70000000000003000000030B5B0F10C
:100B80000A024FEA900E71F100034EEA817EB0EB4B
:100B90000E0061EB91014FEA101E4EEA017E10EB50
:100BA0000E0041EB11114FEA102E4EEA016E10EBD0
:100BB0000E0041EB11214FEA104E4EEA014E10EBB0
:100BC0000E0041EB1141401841F100014FEAD00005
:100BD00040EA41704FEAD10110EB80054FEA8104F1
:100BE00044EA907444EB01046D1944EB0404521B75
:100BF000A3414FF0000348BF0A3200D530BD401C6E
:100C000041F1000130BD70472DE9FF4F0C461E46F3
:100C10004FF0FF378BB0D2E90001DDF860800A9019
:100C20008A46C1F30A5505B93D46002108464FF0F2
:100C30000000BAF1000F00F4400005DA00EB80007C
:100C40004FF4400101EA50004FEA9059B9F1010F09
:100C500000DDB9460A9850EA4A000ED044F610501A
:100C6000A5F2FF3545432F14B8F1000F1ED0754291
:100C7000291E1EDDC9F100021CE0B8F1010F4FF082
:100C8000000001D0302103E0F24305E02154401C74
:100C9000B042FBDB30460022002121540B99C1F801
:100CA0000880C1E900200FB0BDE8F08FBD1B6D1CAE
:100CB000DEE74A4600DA694206A800F0DDFB06AB33
:100CC00093E8070003AB83E8070050460A9900F059
:100CD0009AFC8DE80700A0F500501F38009003989B
:100CE000002D0ADD42F21F014A460844002303A9F1
:100CF0000390684600F003FF09E0A0F500504A4663
:100D00001F38002303A90390684600F00DFF8DE80B
:100D100007000004000C03D04FF0FF30410800E052
:100D20001046B8F1000F03D00022009215461EE0D5
:100D3000751E05D4FFF722FF303262556D1EF9D5BE
:100D4000B3460122084302D000227F1C04E0207831
:100D5000302801D100227F1E002A099784D01DE08F
:100D6000112D07DAFFF70AFF303262556D1C50EA89
:100D70000102F5D1084302D00098C8B10EE000216D
:100D8000681E05E0235C625C63542254401E491CCB
:100D90008142F7DBAB46A81B401E0990002004F8F7
:100DA0000B000B98099AC0F80880C0E9002B7AE77D
:100DB00011264FF0000857E72DE9F04F884604460A
:100DC000D21D22F0070191B0D1E90001CDE90A015D
:100DD00001F09BFF02460B98C00F01D02D2007E0C9
:100DE0002068810701D52B2002E0202101EAC00004
:100DF000032A099001D0072A05DB03464146204615
:100E000000F0FAFA0BE12078800601D5E06900E0F5
:100E10000620B8F1650F814606D0B8F1660F18D0EC
:100E2000B8F1670F70D131E00020B9F1110F0090D7
:100E300001DB112301E009F101030AAA01A90CA8B1
:100E4000FFF7E2FEDDE90C70002609F1010583469B
:100E500047E001204B4600904FF000470AAA01A945
:100E60000CA8FFF7D1FEDDE90DB00C995D46002618
:100E700010B909F101000D18B9EB050003D4C0F158
:100E8000FF3609F10105A5EB09002BE0B9F1010FCF
:100E900001DA4FF001090020B9F1110F0090484626
:100EA00001DD112300E003460AAA01A90CA8FFF7FF
:100EB000ABFEDDE90C704D46002683462078000726
:100EC0000AD4AB4500DA5D4601A8012D04DD4119C5
:100ED00011F8011C302907D04F4502DA17F1040F31
:100EE00004DA012082460FE06D1EEEE7002F02DCDF
:100EF000ED1B3E4403E0781CA84200DD7D1CB81BBE
:100F000000F1010A4FF000472078000703D4AA45FA
:100F100001DB4FF0FF3A0021B7F1004F0DF143081C
:100F20008DF8431024D002202B23002F01DA7F42BA
:100F30002D230A21021EA0F1010000DC5FB197FB06
:100F4000F1FC97FBF1F201FB1C7C17460CF1300C15
:100F500008F801CDEEE7A8F101000370218809052A
:100F600001D5452100E06521A0F1010800F8011C30
:100F700009980FA9A1EB0807FF1D00B10120411935
:100F800001EBEA70A1693844081A401EA06120787C
:100F9000C00602D42046FFF70FFA099828B1D4E919
:100FA00001219047206A401C20622078C00622D58B
:100FB0002046FFF701FA1EE0002E04DBB34502DDF8
:100FC00001A8805D00E03020D4E901219047206A2B
:100FD000401C2062761CAAF101005FEA000A0AD1D7
:100FE00000F006FAC0680168405CD4E9012190472E
:100FF000206A401C2062281EA5F10105DCDC07E008
:10100000D4E9012118F8010B9047206A401C2062A6
:10101000381EA7F10107F3DC2046FFF7E3F90320B0
:1010200011B041E62DE9F04F04460D46D21D22F0E5
:10103000070089B0D0E900974846394601F065FEBF
:101040000246F80F01D02D2307E02068810701D563
:101050002B2302E0202101EAC0038DF820300BB1E0
:10106000012000E00020032A824601D0072A04DB89
:101070002946204600F0C0F93FE12078800601D4DF
:101080000D2500E0E569C7F30A560D2D49DA002168
:101090004FEA175B08464FF00000002F00F44000B5
:1010A00007DA00EB80004FF4400100EBD07001EA5A
:1010B00060008115012901DD4FF0FF3100224FEA68
:1010C000850CBCF1180F06D31346ACF118004FF095
:1010D0008052C24003E04FF4801323FA0CF30CF16A
:1010E0000C0CBCF1200F04D3ACF1200C09FA0CF06D
:1010F00001E007FA0CF000294FF0004801DD18B9B3
:101100000FE00ED140450CD319EB02095F4121B924
:10111000404502D19F4329EA0209BBEB175F00D08B
:10112000761C2088000502D57B48784402E07A4886
:101130007844193808AA302302F80A30037C0AF1EF
:101140000101002E0AF1020A53546A4602DC4FF0F4
:10115000300101E04FF031014FF001088DF800102F
:1011600002D0A6F2FF3603E059EA470100D06B4EE9
:10117000002D02DC2178090704D54FF002082E214A
:101180008DF80110C44600210BE0C7F303433F0173
:10119000C35C491C6D1E02F80830052908F10108DE
:1011A00001DA002DF1DC00210CE000EB1973491C81
:1011B0001B786D1E082902F808304FEA091908F15A
:1011C000010801DA002DF0DC21688B0602D516E05B
:1011D000A8F10108E04505DD02EB080313F8013C26
:1011E000302BF5D0B8F1000F09DD02EB080313F83E
:1011F000013C2E2B03D1090701D4A8F10108002DD1
:1012000005DD3E2102F808106D1E08F10108407C42
:10121000002E02F8080008F1010804DA2D207642B9
:1012200002F8080002E02B2002F808000A214FF41F
:101230007A70864208F101080BDB96FBF0F330333D
:1012400002F8083096FBF0F308F1010800FB136682
:1012500001E0642E0CDB642096FBF0F3303302F8DF
:10126000083096FBF0F308F1010800FB136601E07B
:101270000A2E06DB96FBF1F0303002F8080008F188
:10128000010896FBF1F001FB1060303002F8080015
:10129000A16908F1010808EB050202EB0A00081A2F
:1012A000A0612078C00602D42046FFF785F8216AA5
:1012B00008AE01EB0A00206204E0D4E9012116F82F
:1012C000010B9047BAF1010AF7D22078C00602D587
:1012D0002046FFF771F86E4609E016F8010B3E282C
:1012E0000FD0D4E901219047206A401C2062B8F158
:1012F0000108F2D22046FFF775F809B00320BDE8D7
:10130000F08F206A2844206203E0D4E901213020D4
:1013100090476D1EEBD3F8E71D25000002FCFFFF90
:1013200010B5436913B1AFF3008001E0FFF752FB42
:10133000012010BD128800F1240182840022C284A1
:101340000122EDE711684FF0FF32E9E7007B00F082
:101350008000704770B516460C46054600F040F810
:10136000036893F80101012806D0FF2C0FD8185DFF
:1013700068B101202C7070BDD3F8070132462146B8
:1013800003F2071303442846BDE8704018474FF0A6
:10139000FF3070BD754600F0EBF8AE4605006946BB
:1013A000534620F00700854618B020B5FEF7BEFF73
:1013B000BDE820404FF000064FF000074FF0000856
:1013C0004FF0000B21F00701AC46ACE8C009ACE8D7
:1013D000C009ACE8C009ACE8C0098D467047000000
:1013E00010B500F005F8001D10BD00BFAD210000D4
:1013F00000487047F80800202DE9F0411F460446D8
:1014000003260168072A01F4006004DB08B116A571
:1014100005E016A503E008B115A500E015A521F02B
:1014200010002060A069C01EA0610FB1401EA06125
:101430002046FEF7C1FF4FB1D4E90121384690475D
:10144000206A401C2062C01C206206E0206AFAE785
:10145000D4E9012115F8010B9047761EF8D22046F9
:10146000FEF7C0FFBDE8F0814E414E006E616E0098
:10147000494E4600696E66002DE9F04781461646E2
:101480008AB0354878440DC88DE80D00324878445C
:10149000801C03AC0DC884E80D0041F69B30084465
:1014A000372190FBF1F290FBF1F5A5F1800501FBEE
:1014B00012041B3C02D56442012000E00020DFF84A
:1014C00098A080460027FA44AAF1BE0A0EE0E00781
:1014D0000AD03246684607EB470101230AEB810137
:1014E00000F022FB8DE8070064107F1C002CEED179
:1014F000194F7F44AE3F19E0E80715D007EB041001
:101500000DF1180A90E80E008AE80E00C068F0425B
:1015100001D1981908903246012306A903A800F0CA
:1015200003FB03AB83E807006D10641C002DE3D1BF
:101530004FF0010332466946B8F1000F03A802D00C
:1015400000F0DDFA01E000F0EFFAC9E90001C9F8A6
:1015500008200AB0BDE8F0875422000010B5044608
:10156000AFF300802046BDE81040FEF77EBE0000CD
:1015700000487047D80800204FF0013C50F8042B79
:1015800051F8043B9A4221D1A2EB0C03934313EA96
:10159000CC1317D150F8042B51F8043B9A4215D1C3
:1015A000A2EB0C03934313EACC130BD150F8042B9A
:1015B00051F8043B9A4209D1A2EB0C03934313EA7E
:1015C000CC13DBD04FF00000704700BFD01A01BA37
:1015D000B1FA81F101F0180122FA01F0CB40C1F11A
:1015E0002001DBB2C0B2C01A2CFA01F3D11A914328
:1015F00011EAC311E6D1704701491820ABBEFEE7DE
:101600002600020070475FEA400C08BF91F0000F0F
:101610004FEA8C234FEAC12243EA51514FEA1C5052
:1016200018BF00F5F0404FEA300018BF41F000410C
:101630005FEA6C5C00F02980BCF1FF3F08BF40F01E
:1016400080407047130C06BF12044FF0100C4FF08F
:10165000000C130E04BF12020CF1080C130F04BF90
:1016600012010CF1040C930F04BF92000CF1020C58
:10167000D30F04BF52000CF1010C11464FF00002D1
:10168000A0F11F00A0EB0C00704711F0004F08BF45
:10169000704731F000413FF4D5AF0B0C06BF090491
:1016A0004FF0100C4FF0000C0B0E04BF09020CF1B0
:1016B000080C0B0F04BF09010CF1040C8B0F04BFC5
:1016C00089000CF1020CCB0F04BF49000CF1010C96
:1016D000CCF12003A0EB0C0022FA03F302FA0CF287
:1016E00041EA030100F10100704720F07F4C80EADD
:1016F000030023F07F47ACEB070303F57C5300F0B6
:10170000004003F1FF032DE980494FEA154B09B46E
:101710004FEA144325EA0B4E24EA03480FF204264D
:1017200006EB132749083E785FEA320203FB06679F
:10173000C7F5000707FB06F64FEA54374FEAD646CF
:1017400006F1020607FB066CCCF1005C4FEA1C4771
:101750002CEA074C07FB06F40CFB06F504EB1546D8
:101760004FEA961634BF00204FF000404FEAD137C1
:1017700006FB07FC4FEA1C4C0CFB0BF7D21B03FBD0
:101780000CF761EB07010CFB0EF7B0EB074072EBB7
:1017900017420CFB08F734BFA2EB0742B2EB07423B
:1017A00061EB17414FEA0C444FEA910706FB07FC37
:1017B0004FEA1C4C0CFB0BF7B0EBC74072EB5732F7
:1017C00003FB0CF734BFA2EBC742B2EBC74261EB9D
:1017D00057310CFB0EF7B0EBC70072EB57720CFBE6
:1017E00008F734BFA2EBC702B2EBC70261EB577137
:1017F000039F4FEA816141EA921104EBCC044FEA66
:10180000D1374FEA826206FB07FC42EA90124FEAA8
:1018100080604FEA1C4C0CFB0BF7D21B03FB0CF750
:1018200061EB07010CFB0EF7B0EB074072EB1742C0
:101830000CFB08F734BFA2EB0742B2EB074261EBA7
:1018400017414FEA8C554FEA910704EB9C2406FBA5
:1018500007FC4FEA1C4C0CFB0BF7B0EBC74072EBDC
:10186000573203FB0CF734BFA2EBC742B2EBC742BF
:1018700061EB57310CFB0EF7B0EBC70072EB577200
:101880000CFB08F734BFA2EBC702B2EBC70261EB57
:10189000577115EB4C254FEA816141EA92114FEAED
:1018A00082624FEAD13742EA901206FB07FC44F10C
:1018B00000044FEA80604FEA1C4C0CFB0BF7D21B74
:1018C00003FB0CF761EB07010CFB0EF7B0EB0740D5
:1018D00072EB17420CFB08F734BFA2EB0742B2EBE6
:1018E000074261EB174115EB1C154FEA813141EAC4
:1018F00092414FEA823242EA90424FEA80304FEA08
:101900000C7644F1000448EA03434EEA0B484FF0DA
:10191000000EB2EB080C71EB030724BF6246394698
:101920004EEB0E0E4FF0000B0018524149414BEBAD
:101930000B0BB2EB080C71EB03077BF1000B24BF20
:10194000624639464EEB0E0E4FF0000B0018524126
:1019500049414BEB0B0BB2EB080C71EB03077BF12E
:10196000000B24BF624639464EEB0E0E51EA0207C9
:1019700018BF46F0010616EB0E7655F1000254F141
:10198000000103D5BDE88901BDE80088BDE88901F3
:10199000BDE80048B619524141EB0101A3F1010332
:1019A000704780807F7E7D7C7B7A797877767675CC
:1019B0007473727171706F6E6E6D6C6C6B6A6A6944
:1019C0006868676666656464636362616160605FDE
:1019D0005F5E5E5D5D5C5C5B5B5A5A595958585757
:1019E00057565655555554545353525252515150BF
:1019F00050504F4F4F4E4E4D4D4D4C4C4C4B4B4B12
:101A00004A4A4A4949494848484747474746464657
:101A10004545454444444443434343424242424192
:101A20004141002B9C4630D477002BD01CB54FEAA7
:101A3000370703B44FF010004FF01001BAF1000F58
:101A400006D0BCF1000FDCBF40F0080040F00801F8
:101A50004FF000000FBCBDE810400BF1010BBBF1D3
:101A6000010F08BF5FEA170722BF12F1010211F14F
:101A700001014FF0004143F1000300F0004043EA50
:101A800000007047F9D35708D0E746EA064613F13D
:101A9000400F4FEA16461FDD13F1200FDFBF16433C
:101AA0000A46002120335B42BED0C3F1200746EA3C
:101AB000064602FA07F74FEA164646EA0706C3F15A
:101AC000200722FA03F201FA07F721FA03F14FF097
:101AD000000342EA0702A7E746EA020646EA06468C
:101AE0004FEA164646EA0106BCBF46EA0646360CF1
:101AF0004FF000034FF000024FF0000194E72DE992
:101B0000804C9A46934670B491E8380007C831EA91
:101B1000400C48BF34EA430C03D5FFF7E6FDFFF75E
:101B200080FFF0BCBDE8008C2DE9804C9A469346BE
:101B300070B491E8380007C810F0804F08BF13F068
:101B4000804F03D100F005F8FFF76BFFF0BCBDE854
:101B5000008C20F07F4780EA030023F07F4C07EBE6
:101B60000C03A3F57C5300F00040A3F1FE0392F0B8
:101B7000000F00F0B38095F0000F00F077802DE9A2
:101B800001494FEA11404FEA144621EA004800FBA0
:101B900006FC24EA064708FB06F607FB08F800FBEC
:101BA00007F718EB06484CEB164C4FEA124B18EBB4
:101BB00007484FEA15464CEB174022EA0B4E0BFB49
:101BC00006FC25EA06470EFB06F607FB0EFE0BFB9E
:101BD00007F71EEB064E4CEB164C4FF000061EEBC3
:101BE000074E4CEB174B18EB0B0840F1000018EBBD
:101BF0000E0B58EB000840F100008F1A4FF0000167
:101C00003CBFC943661B14BFB5EB040C00213CBFAD
:101C1000C943F61B4FEA17444EEA8E0E27EA0445E5
:101C20004FEA1C4704FB07622CEA074C05FB07F749
:101C30000CFB05F604FB0CFC16EB074642EB1742C7
:101C400016EB0C4642EB1C421BEB060658EB02025D
:101C5000414146EA9E0601D5BDE80189B6195241C7
:101C600041EB0101A3F10103BDE801894FEA1445ED
:101C70004FEA114724EA054621EA074C05FB07F421
:101C800006FB07F70CFB06F105FB0CFC11EB07410B
:101C900044EB17444FEA124711EB0C4144EB1C4450
:101CA00022EA074C05FB07F206FB07F70CFB06F6DA
:101CB00005FB0CFC16EB074642EB174216EB0C46F5
:101CC00042EB1C456A1854F1000148BF7047B61931
:101CD000524141EB0101A3F10103704795F0000F60
:101CE00037D04FEA11424FEA144721EA024624EA6C
:101CF000074C02FB07F106FB07F70CFB06F402FB9F
:101D00000CFC14EB074441EB17414FEA154714EB69
:101D10000C4441EB1C4125EA074C02FB07F506FB8E
:101D200007F70CFB06F602FB0CFC16EB074645EB2F
:101D3000174516EB0C4645EB1C42121951F10001F8
:101D400048BF7047B619524141EB0101A3F10103AD
:101D500070474FEA14454FEA114724EA054621EA45
:101D6000074C05FB07F106FB07F70CFB06F24FF0EB
:101D7000000605FB0CFC12EB074241EB174112EB8E
:101D80000C4251EB1C4148BF7047921841EB0101D6
:101D9000A3F101037047000010B504462CB90020E0
:101DA0000E4988710E49C8700FE0012C03D108203C
:101DB0000A49487104E0022C02D10C2007494871FD
:101DC0000120064988710649C87006480470034816
:101DD00000F09CF8024800F0EDFA10BD140000205D
:101DE0001C0000206D00002000BFFEE710480068C6
:101DF00020F080700E4908600846006840F080704E
:101E000008600C48006820F001000A490860084694
:101E1000006840F0010008600020486000BF00BF7B
:101E200000BF0448406808B1002070470120FCE76B
:101E3000FCED00E0001000E001B50749486800999A
:101E400001EBC101C900009100BF03494968091AAB
:101E5000009A9142F9D308BD001000E070470000DD
:101E600010B5102000F03EF870B318480078012833
:101E70000AD117480078012802D1002015490880AE
:101E800002201249087018E010480078022814D186
:101E90000F480078012806D10E48008840F4004021
:101EA0000C49088006E00A480078022802D1012087
:101EB0000749087001200549087004480078FFF7B9
:101EC0006BFF102000F008F810BD00006D0000202E
:101ED0006000002076000020014908607047000083
:101EE00014040140014600200022074B1B6803EA4E
:101EF0000102054B14331B680B4013B10AB10120DA
:101F000000E0002070470000000401400021234948
:101F10008279002A3AD00A46126803689A430B462F
:101F20001A600A1D126803689A430B1D1A60027931
:101F300011440A6803681A430A60184A0832126892
:101F400003689A43154B08331A601A1D1268036818
:101F50009A43124B0C331A604279102A0ED11A1F81
:101F6000126803681A430D4B08331A601A1D126871
:101F700003681A43094B0C331A600DE00749427994
:101F800011440A6803681A430A6005E002791144A3
:101F90000A6803689A430A60704700000004014021
:101FA00030B500228B071C0F0F2303FA04F20B4BF2
:101FB0008C1053F824309343084C8D1044F825308E
:101FC00023468C1053F824308C07240F00FA04F4B5
:101FD0002343024C8D1044F8253030BD08000140E9
:101FE0002DE9F041024600250026002000230024B0
:101FF000002791F803C00CF00F0591F803C00CF016
:10200000100CBCF1000F03D091F802C04CEA05059A
:1020100091F800C0BCF1000F31D0146800202BE013
:102020004FF0010C0CFA00F3B1F800C00CEA030603
:102030009E4220D183004FF00F0C0CFA03F7BC43F3
:1020400005FA03FC4CEA040491F803C0BCF1280F24
:1020500006D14FF0010C0CFA00FCC2F814C00AE0E3
:1020600091F803C0BCF1480F05D14FF0010C0CFAF8
:1020700000FCC2F810C0401C0828D1D31460B1F88D
:1020800000C0BCF1FF0F34DD546800202EE000F1E9
:10209000080C4FF0010808FA0CF3B1F800C00CEA84
:1020A00003069E4221D183004FF00F0C0CFA03F778
:1020B000BC4305FA03FC4CEA040491F803C0BCF1EC
:1020C000280F05D100F1080C08FA0CF8C2F81480AA
:1020D00091F803C0BCF1480F07D100F1080C4FF094
:1020E000010808FA0CF8C2F81080401C0828CED36A
:1020F0005460BDE8F0810000F0B50A4600230024DA
:102100000021002500F00046B6F1004F02D11D4E1F
:10211000F16901E01B4E7168C0F3034583B200F41E
:102120004016B6F5401F08D121F07061154E766853
:1021300026F07066134F7E6012E000F48016B6F54C
:10214000801F06D1032606FA05F4A14341F0706111
:1021500006E0460D360103FA06F6B14341F0706120
:1021600022B1460D360103FA06F6314300F000466F
:10217000B6F1004F02D1034EF16101E0014E7160F2
:10218000F0BD0000000001404161704701617047EF
:1021900000BFFEE770B5002400251548008800F454
:1021A000004020B312480088C0F30E0500201149FA
:1021B00048550F49088000BF0DE000BF40210E4880
:1021C00000F0D0FC0028F9D00A48015D0A4800F070
:1021D00096FD601C84B2AC42EFDB0848C07910B9B0
:1021E000002000F019FF29460248FEF7E2FA70BD10
:1021F00076000020D00000200038014008000020B8
:1022000030B585B0002500220721434800F0CEFFFD
:102210000021414800F0AAFF00BF404800680028A4
:10222000FBD101203D49AC3108603D48FFF704FE79
:1022300000203C4908703C480088040A3A48057868
:102240002B46224639A16846FEF7A0F832223CA16F
:10225000684600F023FF34480379827839A1684644
:10226000FEF794F8322236A1684600F017FF2E4898
:10227000C27838A16846FEF789F8322230A1684654
:1022800000F00CFF2848827936A16846FEF77EF8F8
:1022900032222BA1684600F001FF2348C27935A104
:1022A0006846FEF773F8322225A1684600F0F6FE74
:1022B0001D48427932A16846FEF768F8322220A113
:1022C000684600F0EBFE1848437A027A30A168466F
:1022D000FEF75CF832221AA1684600F0DFFE00200B
:1022E0002F49C1F8BC012F48FFF7A6FD00BF0B48DE
:1022F00000680028FBD12C4908800120094908709A
:102300000948427A017A044800F050FF0120FFF7A3
:1023100043FD05B030BD0000200000201001214227
:1023200040420F00600000200800002041542B4173
:102330004444523D253032782C253032780000005C
:102340004F4B000041542B574C524154453D25649E
:102350002C25640041542B54504F5745523D256461
:102360000000000041542B43574D4F44453D256428
:102370000000000041542B544D4F44453D2564005E
:1023800041542B574C54494D453D256400000000F5
:1023900041542B554152543D25642C2564000000C6
:1023A00000002142801A06007600002000BFFEE7F0
:1023B0007047000070B5002100230F22C47804B3D9
:1023C000154C246804F4E064C4F5E064210AC1F10A
:1023D0000403CA40447804FA03F18478144021438A
:1023E00009010E4C0678A155047804F01F0501245C
:1023F000AC4005786D11AD0005F1E025C5F8004150
:1024000009E0047804F01F050124AC40044D06786F
:10241000761145F8264070BD0CED00E000E400E0C8
:1024200080E100E002490143024A11607047000068
:102430000000FA050CED00E070B5002419E004F18D
:10244000B001C8B2002100F0D7F80021084600F022
:10245000D3F80021102000F0CFF8002505E001217D
:10246000002000F0C9F8681CC5B2802DF7DB601CA5
:10247000C4B2082CE3DB70BD08B50121202000F0B8
:10248000FBF8F020ADF8000010208DF803000320C9
:102490008DF8020069464A48FFF7A2FD4FF4FC712F
:1024A0004748FFF773FE10214548FFF76FFE454888
:1024B000FFF7C2FC10214248FFF766FE4148FFF7D4
:1024C000BBFC10213E48FFF761FE0021AE2000F06A
:1024D00093F80021084600F08FF80021102000F04A
:1024E0008BF80021402000F087F80021812000F0C7
:1024F00083F80021CF2000F07FF80021A12000F018
:102500007BF80021C82000F077F80021A62000F019
:1025100073F80021A82000F06FF800213F2000F0A0
:102520006BF80021D32000F067F80021084600F086
:1025300063F80021D52000F05FF80021802000F032
:102540005BF80021D92000F057F80021F12000F0BD
:1025500053F80021DA2000F04FF80021122000F09B
:102560004BF80021DB2000F047F80021402000F06C
:1025700043F80021202000F03FF80021022000F065
:102580003BF800218D2000F037F80021142000F0E6
:1025900033F80021A42000F02FF80021A62000F03D
:1025A0002BF80021AF2000F027F80021AF2000F029
:1025B00023F8FFF741FF0021084600F005F808BDA9
:1025C00000140140A086010070B504460D4605F1D7
:1025D000B001C8B2002100F00FF8102141EA141038
:1025E000002100F009F804F00F0141F00100002182
:1025F00000F002F870BD000070B504460E4626B12A
:1026000020211448FFF7C2FD03E020211148FFF705
:10261000BBFD002517E040210E48FFF7B5FD04F093
:10262000800020B180210B48FFF7B0FD03E080213E
:102630000848FFF7A9FD40210648FFF7A7FD6006FF
:10264000040E681CC5B2082DE5DB20210148FFF708
:102650009DFD70BD0014014029B1064AD2690243B4
:10266000044BDA6104E0034AD2698243014BDA6128
:10267000704700000010024029B1064A92690243E7
:10268000044B9A6104E0034A92698243014B9A61C8
:10269000704700000010024030B5002100220024E5
:1026A00000232D4D6D6805F00C0121B1042905D0E2
:1026B000082923D105E0294D056022E0274D05605A
:1026C0001FE0254D6D6805F47012234D6D6805F40B
:1026D0008034022505EB92421CB9214D554305601B
:1026E0000BE01D4D6D6805F400351DB11C4D5543C3
:1026F000056002E0194D5543056002E0174D056085
:1027000000BF00BF144D6D6805F0F0010909154DBB
:102710006B5C0568DD4045600F4D6D6805F4E06158
:10272000090A104D6B5C4568DD4085600A4D6D6897
:1027300005F46051C90A0B4D6B5C4568DD40C5600E
:10274000054D6D6805F44041890B074D6B5CC5680C
:10275000B5FBF3F5056130BD0010024000127A00B0
:1027600000093D00BC000020CC00002010B500F0A6
:1027700001F810BD0CB500200190009033480068AE
:1027800040F480303149086000BF3048006800F4F0
:10279000003000900198401C0190009818B90198F1
:1027A000B0F5A06FF1D12948006800F4003010B1F5
:1027B0000120009001E0002000900098012843D102
:1027C0002348006840F0100021490860084600686E
:1027D00020F0070008600846006840F0020008602A
:1027E0001A484068194948600846406848600846E9
:1027F000406840F4806048600846406820F47C10DF
:1028000048600846406840F4E810486008460068A0
:1028100040F08070086000BF0C48006800F0007055
:102820000028F9D00948406820F0030007494860B3
:102830000846406840F00200486000BF0348406816
:1028400000F00C000828F9D10CBD00000010024077
:102850000020024010B500BFBF2080F31188BFF3F5
:102860004F8FBFF36F8F00BF00F0B8FD18B14FF06E
:1028700080500449086000BF002080F3118800BF29
:1028800010BD000004ED00E010B51348006840F0F2
:1028900001001149086008464068104908400E4987
:1028A0004860084600680E4908400B490860084621
:1028B000006820F4802008600846406820F4FE008C
:1028C00048604FF41F008860FFF750FF4FF0006032
:1028D0000449086010BD0000001002400000FFF82D
:1028E000FFFFF6FE08ED00E010B50121880700F0BB
:1028F0003EF880B108480088401C80B20649088034
:102900004FF6FE71884202D1002003490880012160
:10291000880700F01DF810BD6E00002010B50121E1
:10292000094800F024F868B10121074800F010F8C8
:102930000648008840F4004004490880002102480D
:1029400000F009F810BD00000004004076000020EF
:10295000CA430282704721B1028842F0010202801C
:1029600004E002884FF6FE731A400280704730B5CB
:102970000246002000230024158A05EA01039589F8
:1029800005EA010413B10CB1012000E0002030BDC4
:102990001AB183890B43838102E083898B4383814E
:1029A0007047818470470000002202881D4B9842C6
:1029B0000ED01D4B98420BD0B0F1804F08D01B4B6E
:1029C000984205D01A4B984202D01A4B984204D133
:1029D0004FF68F731A404B881A43174B984207D013
:1029E000164B984204D04FF6FF431A40CB881A4347
:1029F00002808B8883850B8803850A4B98420BD015
:102A0000094B984208D00E4B984205D00D4B984286
:102A100002D00D4B984201D10B7A038601238382A9
:102A200070470000002C01400034014000040040C9
:102A300000080040000C004000100040001400405E
:102A400000400140004401400048014010B540F200
:102A500025511D4800F093F810B31B4800F04AF9C7
:102A6000C4B21A48008800F40040C8B9174800886A
:102A700000F4804060B10A2C03D000201349088084
:102A800020E01248008840F400401049088019E016
:102A90000D2C06D10D48008840F480400B49088079
:102AA00010E00A480088C0F30D0009490C5407489B
:102AB0000088401C0549088008460088092801DD77
:102AC0000020088010BD0000003801407400002084
:102AD0002807002010B540F22551174800F04FF8A4
:102AE00010B3154800F006F9C4B21448008800F489
:102AF0000040C8B911480088B0F5806F15DA104859
:102B0000007850B900210F48FFF74BFF0B480088B1
:102B100018B901210B48FFF71EFF08490888411C1E
:102B2000064A118008490C5405E00448008840F426
:102B300000400249088010BD004800407600002097
:102B40006000002000040040D000002021B18289F4
:102B500042F40052828104E082894DF6FF731A40EC
:102B60008281704702460020B1F5007F00D100BF8E
:102B700013880B400BB1012000E00020704770B5B6
:102B80000246002400230025002040F66A16B142C8
:102B900000D100BFC1F3421501F01F03012606FA60
:102BA00003F3012D02D19689334006E0022D02D1B4
:102BB000168A334001E0968A33400C12012606FA49
:102BC00004F41688344013B10CB1012000E0002059
:102BD00070BDF0B50346002400260025002040F615
:102BE0006A17B94200D100BF1846C1F3421401F080
:102BF0001F06012707FA06F5012C01D10C3004E06D
:102C0000022C01D1103000E014301AB107682F43B4
:102C1000076002E00768AF430760F0BD2DE9F047A9
:102C200086B005460E460024A24600BFA1460027F6
:102C3000B08900B100BF2F462C8A4CF6FF700440CB
:102C4000F08804432C82AC894EF6F3100440B0881F
:102C500031890843718908430443AC81AC8A4FF63B
:102C6000FF400440B0890443AC8201A8FFF714FD83
:102C70001F48874202D1DDF810A001E0DDF80CA06A
:102C8000A88900F4004040B10AEBCA0000EB0A102A
:102C900031684900B0FBF1F807E00AEBCA0000EB2D
:102CA0000A1031688900B0FBF1F86420B8FBF0F03D
:102CB00004012009642101FB1089A88900F4004067
:102CC00040B1322000EBC900B0FBF1F000F007008A
:102CD000044308E0322000EB09106421B0FBF1F05E
:102CE00000F00F0004432C8106B0BDE8F08700001F
:102CF0000038014001468888C0F308007047C1F3DE
:102D000008028280704700BFFEE7490050EAC120F8
:102D100018BF04204A0D18BF40F0010040F2FF72B6
:102D2000B2EB515F08BF40F00200012808BF052048
:102D3000704730380A2801D20120704700207047C0
:102D400038B50024012501210420FFF795FC01215D
:102D50000846FFF791FC01213B48FFF7CDF9E80356
:102D6000ADF8000010208DF8030003208DF802005C
:102D700069463648FFF734F91020ADF800002820E6
:102D80008DF8030003208DF8020069462F48FFF7F5
:102D900027F904210020FFF703F910202C490860CF
:102DA0000020087108204871002088710846FFF74C
:102DB000ADF80A2027490870022048700320887067
:102DC0000020C8700846FFF7F5FA00202249086085
:102DD0002249C1F8100105E021A0FDF7CBFA2548F2
:102DE000FFF72AF81C48AC3800680028F4D12249C3
:102DF000224800F089FA2249224800F03DFA0020DA
:102E00002149088000212148FFF7A5FD0120124932
:102E100008601848FFF710F803240AE046221CA1B6
:102E20001CA000F03BF920B900251CA0FDF7A2FA78
:102E300004E0201EA4F10101CCB2EFD100BF04B91F
:102E40000125284638BD000000023000000801407E
:102E5000140000201C000020BC012142000021427F
:102E6000C4A3BFE9D5FDC3A62CC7EBC9D4B5C821FF
:102E7000210A000040420F004400002020000020F2
:102E80005C00002048000020760000200004004084
:102E90004F4B00004154453000000000BCECB2E252
:102EA000B3C9B9A60A00000000BF054A128802F0A3
:102EB0004002002AF9D0C2B2014B1B1D1A80704794
:102EC0000038014000B58BB02422104902A8FDF75C
:102ED0003EFC0E482430006801904FF4A060FFF7DC
:102EE000A1FA01A902A800F00FFAFEF77FFF00F097
:102EF00025F800F03BF8FFF7BFFA0548FEF79CFF06
:102F000004A0FDF737FA0BB000BD0000CC35000877
:102F1000A0860100616C6C206861726477617265E3
:102F2000732066696E697368656420696E69746987
:102F3000616C697A6174696F6E0D0A0008B50121D0
:102F40000820FFF799FB08488088ADF800001020A2
:102F50008DF8030003208DF80200034908686946D4
:102F6000FFF73EF808BD00000000002010B508E0A3
:102F70001AA0FDF7FFF91EA0FDF7FCF91D48FEF7AA
:102F80005BFFFFF7DDFE0028F2D11BA0FDF7F2F991
:102F90001D48FEF751FF01201C49086049F64040DA
:102FA000FEF74AFF01211A4800F0E0F80020FEF782
:102FB000F3FE45F210401749088010208870002069
:102FC000C87005200871002048718871C8710720F9
:102FD000087200204872FFF713F910BDCEB4BCECA4
:102FE000B2E2B5BDC4A3BFE92121210D0A00000052
:102FF0000D0A0000E0930400BCECB2E2B5BDC4A32E
:10300000BFE92121210D0A0020A10700BC012142B6
:10301000200000200800002010B504460A4800885F
:1030200000F4004070B1002007490988C1F30E0187
:10303000064A5054114606A0FDF79CF914B1002031
:103040000149088010BD000076000020D00000205B
:1030500073656E6420726573756C743A25730D0A1E
:103060000000000070B5044600250A48008800F4FE
:10307000004068B1002007490988C1F30E01064AE3
:103080005054FFF7C9FF21460348FDF72FFB0546C3
:10309000284670BD76000020D00000202DE9F041C8
:1030A00004460E461546002700201A49088021468E
:1030B00019A0FDF75FF9FF2C0AD800BF1948008856
:1030C00000F040000028F9D01649091D0C8003E0EB
:1030D000214615A000F0F0F8CEB1C5B110E042F2E3
:1030E0001070FEF7A9FE0B48008800F4004038B1CC
:1030F0003046FFF7B7FF00B106E000200549088021
:10310000681E80B2051EEAD100BF05B90127384606
:10311000BDE8F08176000020B7A2CBCDA3BA25731D
:103120000D0A00000048004025730D0A0000000051
:1031300000F09AF801E000F09BF8FCE7094800680D
:10314000006808B9012000E0002020B14FF0FF30F6
:103150000549086005E003480068C0680068024946
:103160000860704780000020AC00002070B5044665
:103170000D4600210C48FFF7E9FC15B90C21E1834D
:1031800008E0012D02D10821E18303E0022D01D1E5
:103190000421E18304F114012068FFF73FFD0121C0
:1031A0002068FFF7D3FC70BD0048004070B50446AE
:1031B0000E461546082E2DD2DFE806F004090E1340
:1031C000181D22274FF496602549086022E04FF42D
:1031D0001660234908601DE04FF4965020490860AE
:1031E00018E04FF416501E49086013E04FF4964063
:1031F0001B4908600EE04FF416401949086009E0C9
:103200004FF461401649086004E04FF4E13014497E
:10321000086000BF00BF00211248FFF797FC10486C
:10322000006860610021618315B92183A1830DE0ED
:10323000012D04D1290321838910A18306E0022DE9
:1032400004D1E90221834FF4C061A18304F1140188
:103250000448FFF7E3FC01210248FFF777FC70BD4B
:10326000780000200048004010B5FFF72BFE10BD8D
:1032700010B5FEF78FFF10BD70B504460D466068AF
:1032800018B101216068FFF7E7F901212068FFF715
:103290005FFB04F108012068FFF786FB012211465D
:1032A0002068FFF775FB01212068FFF754FB2846D3
:1032B000FFF780F870BD00000FB438B505A8009086
:1032C0000F48009A0499FDF743F8002000900C483D
:1032D000FDF71EFA85B200240DE000BF4021094829
:1032E000FFF740FC0028F9D00548015D0548FFF7CD
:1032F00006FD601C84B2AC42EFDB38BC5DF814FB09
:10330000D00400200048004038B504460D46A068AF
:1033100018B10121A068FFF79FF9606818B1012179
:103320006068FFF7A9F9608AADF8000018208DF8F1
:10333000030003208DF802006946E068FEF750FEA6
:10334000208AADF8000004208DF803006946E0688B
:10335000FEF746FE04F114012068FFF75FFC01212F
:103360002068FFF7F3FB012240F225512068FFF7A8
:1033700030FC2846FFF71EF838BD000012480068F0
:1033800018B10120114908601DE000200F490860B4
:103390000F480068B0FA80F0C0F11F0101EB810214
:1033A0000C4B03EB820042685268426000F1080255
:1033B0004368934202D14268526842604268D268D0
:1033C000054B1A6000BF7047B8000020A000002025
:1033D00094000020340700207C0000202DE9F041FB
:1033E00000275748006800287ED156480068451CD1
:1033F000544805608DB95448D0F80080534800689F
:10340000514908605148C0F8008051480068401C8C
:103410004F490860FFF792FE00BF4E4800688542A2
:1034200076D300BF48480068006808B9012000E072
:10343000002020B14FF0FF304649086067E0424865
:103440000068C068C4686668B54202D24148066038
:103450005DE06069D4E902128A60D4E902214A6021
:10346000211D42688A4201D1E16841600022626107
:103470000168491E0160A06A98B1A06AD4E90712E8
:103480008A60D4E907214A6004F1180142688A423F
:1034900001D1216A41600022A2620168491E0160D7
:1034A00000BF94F82C10012088402B49096808437C
:1034B00029490860E16A01EB8101284A02EB810198
:1034C0004868A0608268E260211D82685160816066
:1034D000E16A01EB8101214A02EB81026261E16A4A
:1034E00001EB81011D4A00E022E052F82110491C45
:1034F000E26A02EB8202194B43F822101849E06A93
:103500000968C96A88428DD901278BE700E000BFAE
:1035100013480068C06A00EB8000104951F8200091
:10352000012800D901270F48006800B1012704E0F5
:103530000D480068401C0C4908603846BDE8F08121
:10354000B8000020900000208000002084000020AF
:10355000A4000020AC0000209400002034070020CC
:103560007C000020A00000209C00002010B5002955
:103570000AD00878002807D005487844FDF7FCFFFA
:10358000002801D0002010BD0248784410BD000082
:103590009A0100009201000010B500290AD00878B5
:1035A000002807D005487844FDF7E6FF002801D041
:1035B000002010BD0248784410BD00008A010000C0
:1035C00082010000FDF7F8BBFDF72CBD003801407B
:1035D0000440000000000000000801400004000258
:1035E00000C201000000000000000C00000000000C
:1035F000250303013031323334353637383941420F
:103600004344454640305800303132333435363744
:1036100038396162636465664030780004000008F0
:103620000000000000000002000100001000000087
:1036300000000000000000003031323334353637EE
:1036400038396162636465667870003031323334D2
:10365000353637383941424344454658500000001A
:1036600002400000000000A0000000000540000033
:10367000000000C8000000000C4000000000409C5A
:1036800000000000194000000020BCBE0000000047
:1036900034400000BFC91B8E00000004B54000008C
:1036A000504BCFD06607E2CF010000006C41000014
:1036B0003E8251AADFEEA73401000000D94200008B
:1036C000DCB5A0E23A301F97FFFFFFFFB4450000D2
:1036D000FD25A0C8E9A3C14FFFFFFFFFFF3F00008A
:1036E0000000008000000000FF3F0000000000809C
:1036F000000000004038000800000020D00000005A
:103700006C01000810390008D0000020680E00008D
:10371000880100081C00000043000000F8FFFFFFC4
:103720000C0000000E0000000F0000002E00000042
:103730001001000043000000F8FFFFFF0040404080
:103740004040404040404141414141404040404074
:103750004040404040404040404040404005020220
:1037600002020202020202020202020202202020DF
:10377000202020202020200202020202020290903B
:103780009090909010101010101010101010101039
:10379000101010101010101002020202020288888D
:1037A0008888888808080808080808080808080899
:1037B0000808080808080808020202024000000081
:1037C00000000000000000000000000000000000F9
:1037D00000000000000000000000000000000000E9
:1037E00000000000000000000000000000000000D9
:1037F00000000000000000000000000000000000C9
:1038000000000000000000000000000000000000B8
:1038100000000000000000000000000000000000A8
:103820000000000000000000000000000000000098
:103830000000000000000000000000000000000088
:10384000000C0140600000000000170305000000AC
:103850000300000000000000000000000000000065
:10386000004800400800000000000400000C014077
:103870000008000400C201000000000000000C006D
:1038800000000000270203010004004002000000C5
:103890001F1C000063000000000000001D01020169
:1038A0000011223344550000000000000000000019
:1038B0000000000000000000000000000000000008
:1038C00000000000000000000000000000000000F8
:1038D00000000000000000000000000000000000E8
:1038E00000000000000000000000000000000000D8
:1038F000000000000F0000000000000000000000B9
:103900000102030401020304060708090204060871
:0400000508000131BD
:00000001FF
